:10000000782400201D0200001902000019020000DF
:1000100000000000000000000000000000000000E0
:1000200000000000000000000000000019020000B5
:10003000000000000000000019020000B5050000EB
:100040001902000019020000190200001902000044
:100050001902000019020000190200001902000034
:100060001902000019020000190200001902000024
:100070001902000019020000190200001902000014
:100080001902000019020000E50100001902000039
:10009000190200000000000000000000190200002A
:1000A00019020000190200001902000019020000E4
:1000B0000000000010B5064C2378002B07D1054B3B
:1000C000002B02D0044800E000BF0123237010BDC4
:1000D000340400200000000070080000084B10B538
:1000E000002B03D00749084800E000BF0748036819
:1000F000002B00D110BD064B002BFBD09847F9E731
:1001000000000000380400207008000070080000A3
:1001100000000000034B18751A00D37BDB09FCD1EB
:100120007047C046002C0042044A138802210B434A
:100130001380D37BDB09FCD17047C046002C004202
:10014000044A138802218B431380D37BDB09FCD143
:100150007047C046002C004210B51A4A116A80232D
:100160001B010B431362184B80229A608022D2013C
:100170009A60164A164B5A801A0053785BB2002BCD
:10018000FBDB144B9847144B01225A738021C902A0
:10019000124A11601A880C218A4304210A431A80EA
:1001A0001A8860218A431A805A8959398A43022160
:1001B0000A435A815A8920210A435A81FF20084B59
:1001C000984710BD00040040004400411B4000005F
:1001D000000C004041010000002C004200E100E062
:1001E00015010000094B9B7BDB070DD50122074B56
:1001F0009A737F32064B9A61064B1B78002B03D013
:100200008022D201024B9A617047C046002C004206
:100210000044004104000020FEE70000F8B52A4A2F
:100220002A4B9A4211D01A00294B9A420DD2294AE0
:1002300003339B1A9B0801339B0000222348224969
:100240008C58845004329A42FAD1234A234B9A4262
:100250000AD2D34321495B1803218B4304339B18F3
:10026000002102C29342FCD11D4AFF211D4B8B434A
:100270009360FD3990235B001B4AD1501B4AD37811
:100280000325AB4302242343D370D3780C27BB430D
:1002900008263343D370164B987B3022904320229C
:1002A00010439873997BB943314399739A7BAA435E
:1002B00022439A730F4A536880210B4353600E4BBD
:1002C00098470E4B9847FEE770080000000000209A
:1002D00034040020040000203404002078040020AE
:1002E00000ED00E0000000000070004100500041FF
:1002F0000048004100400041A9060000E50400005C
:10030000574A53681E218B431C390B435360554A8F
:10031000936906310B439361534B544A9A829A8AEC
:1003200002210A439A8219000222CB681A42FCD0A9
:1003300001224F4B1A701A00012113780B4203D08F
:1003400053785BB2002BF8DB0122494B9A601A000C
:1003500053785BB2002BFBDB464A454B5A601A00D0
:1003600053785BB2002BFBDB8222D201404B5A80D8
:100370001A0053785BB2002BFBDB3B4A938C802145
:100380008B43938411001022CB681A42FCD03A4A66
:10039000354BDA6219001022CB681A42FCD0324A7F
:1003A000938C36490B43938411001022CB681A4278
:1003B000FCD02D4A938C02210B4393847E31402044
:1003C000D3681942FCD0D3681842F9D026491022CC
:1003D000CB681A42FCD00022254B9A601A00537851
:1003E0005BB2002BFBDB264A214B5A601A00537884
:1003F0005BB2002BFBDB1C4B1A6A224911408022A6
:1004000052000A431A621A6A80218A431A62184B00
:1004100003229A601C4A5A601A0053785BB2002B80
:10042000FBDB104B00221A725A729A72DA72174A68
:10043000174B1A60174B1968174B1868C00E8B06BC
:100440005B0F1B024901FF220A4002431343134A78
:100450001385034A536880210B4353607047C0469D
:100460000040004100040040000800400C0600006D
:10047000000C004001050100B805FF7D040A0000E2
:1004800000070300FFFCFFFF03060100006CDC0215
:1004900000000020246080002060800000400042B6
:1004A0000B4A136A02210B4313620A4A0A4B5A8011
:1004B0001A0053785BB2002BFBDB084B1A78012142
:1004C0000A431A70892252001A81054A5A607047FD
:1004D0000004004007400000000C004000040042FF
:1004E00000002506F8B5CE46474680B5214B984713
:1004F000214A224B53602248036A1B021B0AC02177
:1005000009060B43036200239360073313601D4BFE
:10051000984764201C4B98471C4B98471C4B9847A6
:100520001C4B98471C4B98471C490B688022920231
:1005300013430B601A4B1A600B0080258024E401E2
:1005400018481949194A94468146194E5D615C6103
:1005500002688A42FAD98022920267463A6072B6ED
:1005600000224F463A60327857425741377062B6A0
:10057000ECE7C0460103000010E000E07FBB000094
:1005800000ED00E005060000C5050000590100006F
:10059000A104000099060000290100000044004168
:1005A0001844004150040020E70300001C440041AF
:1005B00004000020024A1368013313607047C046EC
:1005C000500400200E4BD866C0011A6F000A120EAC
:1005D000120602431A675A6F120E120602435A6736
:1005E0009A6F120E120602439A67DA6F120E120603
:1005F0001043D8671A0093681B03FCD47047C046A9
:100600000020004210B51D4A116A80235B000B4395
:1006100013621B4A1B4B5A801A0053785BB2002BA3
:10062000FBDB194A136802218B43136017494F20E3
:100630000B5C012423430B5418380C5C0F2323401C
:10064000502423430B54D36B07218B4306390B43B0
:10065000D36393685B06FCD464200D4B98470A4B28
:100660001A680C490A401A60196A802252040A4327
:100670001A621A6802210A431A6010BD0004004081
:100680001A400000000C00400020004200440041DD
:10069000C5050000FFF8FFFF024A136802210B4363
:1006A000136070470020004270B50D4E0D4D0024C0
:1006B000AD1BAD1005D0A300F35801349847A542F7
:1006C000F9D100F0C3F8084E084D0024AD1BAD1061
:1006D00005D0A300F35801349847A542F9D170BD65
:1006E0005808000058080000580800006008000082
:1006F000034B10B5002B02D0024800F005F810BDE6
:10070000000000001907000010B5010000230022BE
:10071000002000F01FF810BD70B5094B094CE41A19
:10072000A41009D0084AA518AD00ED182B68013CAB
:100730009847043D002CF9D100F092F870BDC046F6
:100740006C08000070080000FFFFFF3F7047C046C4
:100750007047C046F0B54E464546DE465746E0B5C2
:10076000364D83B00600286898460F009146FFF783
:10077000EDFF334B1C68A4235B00E058002852D0E7
:1007800043681F2B13DC5A1C0192002E28D1019ABA
:1007900002339B0042601F502868FFF7D9FF0020FA
:1007A00003B03CBC90469946A246AB46F0BD254BF3
:1007B000002B3DD0C820400000E000BF002837D00B
:1007C000A42200235200A15843600160A05040328F
:1007D000835004328350013301930023002ED6D07E
:1007E0009A00924682444A46882154466250C42266
:1007F0005200914681444A468739994012688B4697
:100800000A4394464A46614611608422414652009A
:10081000A150022EBBD102005C468D32FF3211681E
:100820000C431460B3E720004D30FF30E050A7E7E1
:100830002868FFF78DFF01204042B1E73004002017
:10084000480800000000000008000020F8B5C0467D
:10085000F8BC08BC9E467047F1060000DD000000B1
:10086000F8B5C046F8BC08BC9E467047B50000000D
:1008700040420F000100000000000000F4020020D0
:100880005C030020C4030020000000000000000002
:100890000000000000000000000000000000000058
:1008A0000000000000000000000000000000000048
:1008B0000000000000000000000000000000000038
:1008C0000000000000000000000000000000000028
:1008D0000000000000000000000000000000000018
:1008E0000000000000000000000000000000000008
:1008F00000000000000000000000000000000000F8
:1009000000000000000000000000000000000000E7
:1009100000000000000000000000000000000000D7
:1009200001000000000000000E33CDAB34126DE674
:10093000ECDE05000B0000000000000000000000DD
:1009400000000000000000000000000000000000A7
:100950000000000000000000000000000000000097
:100960000000000000000000000000000000000087
:100970000000000000000000000000000000000077
:040CA00054040020D8
:00000001FF
