:10000000B8240020D5020000D1020000D102000077
:1000100000000000000000000000000000000000E0
:10002000000000000000000000000000D1020000FD
:100030000000000000000000D10200009508000050
:10004000D1020000D1020000D1020000D102000064
:10005000D1020000D1020000D1020000D102000054
:100060000D040000D1020000D1020000D102000006
:10007000D1020000210A0000D1020000D1020000DC
:10008000D1020000D102000089020000D10200006C
:10009000D10200000000000000000000D1020000BA
:1000A000D1020000D1020000D1020000D102000004
:1000B0000000000010B5064C2378002B07D1054B3B
:1000C000002B02D0044800E000BF0123237010BDC4
:1000D000340400200000000020130000084B10B57D
:1000E000002B03D00749084800E000BF0748036819
:1000F000002B00D110BD064B002BFBD09847F9E731
:10010000000000003804002020130000201300002D
:10011000000000000B4BC9201A5C02210A431A544C
:1001200085381A5C0A431A5404301A5C0A431A547C
:100130008021890084229950743A5A60F0325A60C2
:100140007047C046004400410100134AA023D35821
:100150009B05DB0F126AD20600D502330E4A126AE3
:100160000020D20504D5002903D158424341D8B21A
:100170007047012906D0022909D0033B5842434168
:10018000D8B2F5E7013B58424341D8B2F0E7023B11
:1001900058424341D8B2EBE700440041044A138877
:1001A00002210B431380D37BDB09FCD17047C0468F
:1001B000002C0042044A138802218B431380D37B16
:1001C000DB09FCD17047C046002C004210B51F4A25
:1001D000116A80231B010B4313621D4B80229A601E
:1001E0008022D2019A601B4A1B4B5A801A00537816
:1001F0005BB2002BFBDB194B9847194A138801218E
:100200000B4313801388DB07FCD4D37BDB09F9D1C4
:10021000134B1A880C218A431A801A8854318A4356
:1002200020210A431A800F4A1A835A8907208243E1
:10023000022002435A815A890A435A8101225A7381
:100240008022D202084B1A6010BDC0460004004054
:10025000004400411B400000000C0040B5010000BC
:10026000002C0042FF0F000000E100E0014B187875
:10027000C0B270475004002072B6024B187062B6CC
:100280007047C0465004002010B50D4B9B7BDB0728
:1002900000D410BD01220A4B9A737F32094B9A6138
:1002A000094B9847002804D0064B8022D2019A615E
:1002B0005A618022034B5A610120044B9847E8E7BA
:1002C000002C0042004400410D0A000079020000A9
:1002D000FEE70000F8B52A4A2A4B9A4211D01A00CC
:1002E000294B9A420DD2294A03339B1A9B080133AA
:1002F0009B000022234822498C58845004329A42A1
:10030000FAD1234A234B9A420AD2D34321495B189C
:1003100003218B4304339B18002102C29342FCD17A
:100320001D4AFF211D4B8B439360FD3990235B00D9
:100330001B4AD1501B4AD3780325AB4302242343E5
:10034000D370D3780C27BB4308263343D370164BA6
:10035000987B30229043202210439873997BB943B5
:10036000314399739A7BAA4322439A730F4A536885
:1003700080210B4353600E4B98470E4B9847FEE786
:10038000201300000000002034040020040000209E
:1003900034040020B804002000ED00E0000000005C
:1003A0000070004100500041004800410040004101
:1003B000690B000025050000014A024B1A607047D6
:1003C00040420F00000000200B4A136A02210B4339
:1003D00013620A4A0A4B5A801A0053785BB2002B08
:1003E000FBDB084B1A7801210A431A70892252005C
:1003F0001A81054A5A607047000400400740000017
:10040000000C00400004004200002506044B9B69DC
:10041000DB0503D580225200014B9A617047C0462C
:1004200000040042F0B5CE46474680B59446002A07
:100430001ED0002600257300C418228812094A55D0
:10044000AF1CBFB20233C3186A1C92B29146248813
:100450002401A0461C88240A424614434A468C5470
:100460000335ADB21B88CB550236B6B2B445E2D8DF
:100470000CBC90469946F0BD04490B68802292025C
:1004800013430B60024B1A607047C04600440041A2
:100490001844004110B5052807D88000104C20589A
:1004A00087461048C183828343830E480100203170
:1004B00010220D4B984710BD0A480183C2828382E7
:1004C000F3E7084841820282C381EEE70548818153
:1004D00042810381E9E70348C18082804380E4E7E9
:1004E000080D0000540400202504000010B50B4B3B
:1004F000D883188358829881D8809983D9821982A9
:10050000598199805A839A82DA811A815A80190016
:10051000203110221800024B984710BD54040020CF
:1005200025040000F0B5DE4657464E464546E0B588
:1005300085B0C04B9847C04AC04B5360C048036A5F
:100540001B021B0AC02109060B43036200239360B0
:1005500007331360BB4B9847BB4B9847BB4B98473F
:10056000BB4B9847BB4B9847BB4B9847BB4B9847F7
:10057000BB4B9847002200210020BA4B9847BA4B4A
:1005800098470223029300239A46013301930024E3
:100590000026002500239846B44FB946B44B9B462D
:1005A000009612E00020B34B9847002828D0AF4BAC
:1005B0001C6800239846AD4B1B681B1B0025142BA1
:1005C00028D8AB4B9847002834D13B681B1B142B11
:1005D000E8D8002DEFD04B461B681B1B0125142BC0
:1005E00000D97CE0D8470028EFD00020A24B9847E4
:1005F0005346072B00D98EE09B00A04AD3589F4654
:1006000001209C4B98470028E3D0984B1C6804239A
:100610009846E0E70120974B98470028D1D0934BAC
:100620001C680022002100208E4B98478E4B984773
:100630000135C6E70020904B98474346052B4AD822
:100640009B008F4AD3589F46009B5B008D4A995A66
:1006500000228D48834B9847834B9847009E013674
:10066000B2B200926823FF339A42AED943460133B7
:10067000DBB29846002300934346052BA5D90023FF
:100680009846A2E7009B5A00804B9B185022985A2C
:1006900000227D49DEE7009B5B007A4A9A5A7A493C
:1006A0000020D7E7009B5A00784B9B185022995A9C
:1006B000754A0020CEE7009B5B00724A985A724A46
:1006C0000021C7E7009B5A00704B9B1850229A5A92
:1006D00000216D48BEE7002200210020BAE700207B
:1006E000644B9847002800D17CE7604B1C680022CF
:1006F000002100205B4B98475B4B98470025002367
:1007000098466FE7009B5B005E4A9B5A00220021DF
:1007100001985F4EB047544B9847009E0136B2B2E5
:1007200000926823FF339A4200D84EE753460133C4
:10073000DBB29A46002300935346072B00D844E7C8
:10074000029A130001330192DBB2029302239A460C
:100750000023009339E7009B5B004A4A995A4A4BB1
:10076000002201984A4EB047D5E7009B5A00474BFC
:100770009B1850229B5A002243490198444EB0478F
:10078000C9E7009B5B003F4A9A5A00233E49019803
:100790003F4EB047BFE7009B5A003C4B9B1850228E
:1007A000995A0023384A0198394EB047B3E7009B65
:1007B0005B00344A9B5A344A00210198344EB047BA
:1007C000A9E7009B5A00314B0392944663445022A0
:1007D0009A5A2D4B002101982D4EB047294B039A70
:1007E000D35A002200210298294EB04793E7009E79
:1007F00073001A00254B03929446634450229B5A7F
:10080000002200210198224EB0471E4B039AD15A74
:100810001D4B002202981E4EB047134B9847009E76
:100820000136B2B200926823FF339A4200D8CCE678
:1008300086E7C046B903000010E000E07FBB00007F
:1008400000ED00E079040000CD0A0000CD010000B9
:10085000A5080000C903000015010000590B0000A5
:100860009D010000ED040000E10900008C0400205F
:100870006D0200004901000079020000200D000017
:10088000400D0000580D0000FF0F0000D80F0000C1
:1008900095040000024A1368013313607047C04694
:1008A0008C04002070B53B4BB520195C0F26B1437A
:1008B000032529431954CA229C5C01210C439C54F2
:1008C00036241A5DB2432A431A5516341A5D0A4378
:1008D0001A551C5C0F222240302422431A54163031
:1008E0001A5C0A431A542C4A136802218B43136082
:1008F000D3699B07FCD4294A136A40210B43136236
:10090000274A284B5A801A0053785BB2002BFBDB36
:10091000214A136801210B4313601368DB07FCD4E1
:10092000D369DB07F9D41C4B1A681F490A401A60C7
:100930001A681E491140802252020A431A601A683E
:100940001B490A401A601A681A490A401A601A6854
:1009500019490A401A601A681C218A4310390A434F
:100960001A605968802292020A435A601A00D369B9
:100970005B07FCD4084B0B221A731A6802210A4346
:100980001A601A00D3699B07FCD4802292010B4B9A
:100990001A6070BD0044004100180042000400408D
:1009A00018400000000C0040FFFFCFFFFFFFFCFFDE
:1009B000FFFFFFBFFFFFFFDFFFFFFFEF00E100E0F2
:1009C00072B6064B1B78002B05D10122034B1A701F
:1009D00062B60120704762B60020FBE79004002059
:1009E00010B5064B9847002807D00122044B1A7017
:1009F000044B1978044B99629A7510BDC109000027
:100A0000040000207404002000180042034B5878B2
:100A1000C0B2002801D000225A7070479004002014
:100A2000164B1B7EDB0711D5154B1B78DBB2172B42
:100A300011D813490B78DBB25A1CD2B20A70114A92
:100A4000D25C0E4B9A6201220C4B1A760B4B1B7E2A
:100A50009B0706D47047094B01221A7501329A751B
:100A6000F1E7064B02221A761A75013A044B1A7006
:100A7000054B5A7000221A70ECE7C046001800427D
:100A80000400002074040020900400200E4BD8665F
:100A9000C0011A6F000A120E120602431A675A6F3B
:100AA000120E120602435A679A6F120E1206024382
:100AB0009A67DA6F120E12061043D8671A0093680D
:100AC0001B03FCD47047C0460020004210B51B4AEF
:100AD000116A80235B000B431362194A194B5A8039
:100AE0001A0053785BB2002BFBDB174A1368022114
:100AF0008B43136015494F200B5C012423430B5497
:100B000018380C5C0F232340502423430B54D36B21
:100B100007218B4306390B43D36393685B06FCD4F0
:100B200005200B4B9847084B1A680A490A401A607F
:100B3000196A802252040A431A6210BD0004004060
:100B40001A400000000C0040002000420044004118
:100B50008D0A0000FFF8FFFF024A136802210B43D1
:100B6000136070470020004270B50D4E0D4D0024FB
:100B7000AD1BAD1005D0A300F35801349847A54232
:100B8000F9D100F0BBFB084E084D0024AD1BAD10A1
:100B900005D0A300F35801349847A542F9D170BDA0
:100BA00008130000081300000813000010130000D1
:100BB000034B10B5002B02D0024800F005F810BD21
:100BC00000000000D90B000010B501000023002236
:100BD000002000F01FF810BD70B5094B094CE41A55
:100BE000A41009D0084AA518AD00ED182B68013CE7
:100BF0009847043D002CF9D100F08AFB70BDC04637
:100C00001C13000020130000FFFFFF3F7047C04689
:100C10007047C046F0B54E464546DE465746E0B5FD
:100C2000364D83B00600286898460F009146FFF7BE
:100C3000EDFF334B1C68A4235B00E058002852D022
:100C400043681F2B13DC5A1C0192002E28D1019AF5
:100C500002339B0042601F502868FFF7D9FF002035
:100C600003B03CBC90469946A246AB46F0BD254B2E
:100C7000002B3DD0C820400000E000BF002837D046
:100C8000A42200235200A15843600160A0504032CA
:100C9000835004328350013301930023002ED6D0B9
:100CA0009A00924682444A46882154466250C422A1
:100CB0005200914681444A468739994012688B46D2
:100CC0000A4394464A4661461160842241465200D6
:100CD000A150022EBBD102005C468D32FF3211685A
:100CE0000C431460B3E720004D30FF30E050A7E71D
:100CF0002868FFF78DFF01204042B1E73004002053
:100D0000F812000000000000AA040000A204000085
:100D1000B8040000C2040000CC040000D6040000A7
:100D200004070000560700006A0700008207000061
:100D300096070000AE070000C2070000EE070000A3
:100D4000480600008406000096060000A406000085
:100D5000B6060000C406000000000000000000000D
:100D60000100010001000200020003000300040072
:100D70000500050006000700080009000A000B0036
:100D80000D000E000F0011001200140015001700D6
:100D900019001B001D001F00210023002500270053
:100DA00029002B002E0030003300350038003B00B6
:100DB0003E0040004300460049004C004F005300F5
:100DC000560059005D006000640067006B006F0012
:100DD000720076007A007E00820086008A008F0012
:100DE000930097009C00A000A500A900AE00B300EE
:100DF000B800BC00C100C600CB00D000D600DB00AC
:100E0000E000E600EB00F000F600FC000101070145
:100E10000D01130119011F0125012B0131013701BA
:100E20003E0144014B01510158015E0165016C0115
:100E300073017A01800187018F0196019D01A40150
:100E4000AC01B301BA01C201CA01D101D901E1016A
:100E5000E901F001F8010002090211021902210260
:100E60002A0232023B0243024C0254025D02660235
:100E70006F02780281028A0293029C02A502AF02ED
:100E8000B802C102CB02D402DE02E802F202FB0287
:100E900005030F03190323032D03380342034C03F7
:100EA000570361036C03760381038B039603A1034D
:100EB000AC03B703C203CD03D803E303EF03FA0384
:100EC000050411041C04280434043F044B04570493
:100ED00063046F047B0487049304A004AC04B80487
:100EE000C504D104DE04EA04F704040510051D0559
:100EF0002A053705440551055F056C057905870509
:100F00009405A205AF05BD05CA05D805E605F4059B
:100F1000020610061E062C063A0649065706650606
:100F20007406820691069F06AE06BD06CC06DB0659
:100F3000EA06F90608071707260735074507540785
:100F40006407730783079207A207B207C207D20795
:100F5000E207F20702081208220833084308530880
:100F60006408740885089608A608B708C808D90850
:100F7000EA08FB080C091D092F09400951096309FA
:100F8000740986099809A909BB09CD09DF09F10986
:100F9000030A150A270A390A4B0A5E0A700A830AED
:100FA000950AA80ABA0ACD0AE00AF30A060B190B39
:100FB0002C0B3F0B520B650B780B8C0B9F0BB30B61
:100FC000C60BDA0BED0B010C150C290C3D0C510C6A
:100FD000650C790C8D0CA10CB60CCA0CDE0CF30C54
:100FE000070D1C0D310D460D5A0D6F0D840D990D19
:100FF000AE0DC30DD90DEE0D030E180E2E0E430EC1
:10100000590E6F0E840E9A0EB00EC60EDC0EF20E46
:10101000080F1E0F340F4B0F610F770F8E0FA40FA9
:10102000BB0FD20FE80FFF0FFF0FE80FD20FBB0F60
:10103000A40F8E0F770F610F4B0F340F1E0F080F89
:10104000F20EDC0EC60EB00E9A0E840E6F0E590E06
:10105000430E2E0E180E030EEE0DD90DC30DAE0D60
:10106000990D840D6F0D5A0D460D310D1C0D070D98
:10107000F30CDE0CCA0CB60CA10C8D0C790C650CB3
:10108000510C3D0C290C150C010CED0BDA0BC60BA9
:10109000B30B9F0B8C0B780B650B520B3F0B2C0B80
:1010A000190B060BF30AE00ACD0ABA0AA80A950A38
:1010B000830A700A5E0A4B0A390A270A150A030ACC
:1010C000F109DF09CD09BB09A90998098609740945
:1010D0006309510940092F091D090C09FB08EA0899
:1010E000D908C808B708A6089608850874086408CF
:1010F000530843083308220812080208F207E207DF
:10110000D207C207B207A2079207830773076407D3
:10111000540745073507260717070807F906EA06A3
:10112000DB06CC06BD06AE069F0691068206740657
:101130006506570649063A062C061E0610060206E4
:10114000F405E605D805CA05BD05AF05A205940559
:10115000870579056C055F055105440537052A05A6
:101160001D0510050405F704EA04DE04D104C504D6
:10117000B804AC04A004930487047B046F046304E4
:1011800057044B043F04340428041C0411040504D0
:10119000FA03EF03E303D803CD03C203B703AC03A1
:1011A000A10396038B03810376036C03610357034A
:1011B0004C03420338032D03230319030F030503D4
:1011C000FB02F202E802DE02D402CB02C102B80244
:1011D000AF02A5029C0293028A02810278026F028A
:1011E00066025D0254024C0243023B0232022A02B2
:1011F00021021902110209020002F801F001E901BD
:10120000E101D901D101CA01C201BA01B301AC01A6
:10121000A4019D0196018F01870180017A0173016C
:101220006C0165015E01580151014B0144013E0111
:10123000370131012B0125011F01190113010D0196
:1012400007010101FC00F600F000EB00E600E00001
:10125000DB00D600D000CB00C600C100BC00B80047
:10126000B300AE00A900A500A0009C009700930069
:101270008F008A00860082007E007A00760072006D
:101280006F006B006700640060005D00590056004D
:1012900053004F004C0049004600430040003E0010
:1012A0003B0038003500330030002E002B002900B1
:1012B00027002500230021001F001D001B0019002E
:1012C000170015001400120011000F000E000D0091
:1012D0000B000A00090008000700060005000500D1
:1012E00004000300030002000200010001000100ED
:1012F000000000000000000008000020F8B5C04613
:10130000F8BC08BC9E467047B10B0000DD00000031
:10131000F8B5C046F8BC08BC9E467047B500000052
:1013200040420F000100000000000000F402002015
:101330005C030020C4030020000000000000000047
:10134000000000000000000000000000000000009D
:10135000000000000000000000000000000000008D
:10136000000000000000000000000000000000007D
:10137000000000000000000000000000000000006D
:10138000000000000000000000000000000000005D
:10139000000000000000000000000000000000004D
:1013A000000000000000000000000000000000003D
:1013B000000000000000000000000000000000002D
:1013C000000000000000000000000000000000001D
:1013D00001000000000000000E33CDAB34126DE6BA
:1013E000ECDE05000B000000000000000000000023
:1013F00000000000000000000000000000000000ED
:1014000000000000000000000000000000000000DC
:1014100000000000000000000000000000000000CC
:1014200000000000000000000000000000000000BC
:0417500094040020DD
:00000001FF
