:10000000C82400209D040000990400009904000009
:1000100000000000000000000000000000000000E0
:100020000000000000000000000000009904000033
:10003000000000000000000099040000F10B000027
:10004000990400009904000099040000990400003C
:10005000990400009904000099040000990400002C
:10006000D5050000990400009904000099040000DF
:10007000990400007D0D000099040000990400001F
:100080009904000099040000510400009904000044
:100090009904000000000000000000007D02000044
:1000A00099040000990400009904000099040000DC
:1000B0000000000010B5064C2378002B07D1054B3B
:1000C000002B02D0044800E000BF0123237010BDC4
:1000D0003404002000000000AC170000084B10B5ED
:1000E000002B03D00749084800E000BF0748036819
:1000F000002B00D110BD064B002BFBD09847F9E731
:100100000000000038040020AC170000AC1700000D
:1001100000000000384A116A80235B020B4313621F
:10012000364A374B5A801A005378DB09FCD1354ADE
:10013000137801210B4313701378DB07FCD4537E33
:10014000DB09F9D12F4B1A7804218A431A701A78E7
:1001500002398A431A705A780D318A4302200243C9
:100160005A709A78702082439A709A788A439A706B
:10017000DA7830318A43DA709A8823491140C022F4
:10018000D2000A439A809A8830218A439A809A88BA
:1001900004210A439A809A8808218A439A801A0087
:1001A000537EDB09FCD1174B1969F02212050A4373
:1001B0001A611A6915491140C02252010A431A6195
:1001C0001A691F218A431D390A431A611A00537E96
:1001D000DB09FCD1802212040D4B1A60094B1978FF
:1001E0000220014319701A7B02431A731A00537ECE
:1001F000DB09FCD17047C046000400401E400000EF
:10020000000C004000400042FFF8FFFFFFE0FFFF4E
:1002100000E100E0034A537EDB09FCD1014B588B1F
:1002200080B2704700400042074B9A8804210A437D
:100230009A809A7D01210A439A751A691F218A437F
:100240001D390A431A61704700400042094B9A88E1
:1002500004218A439A80DA7D01210A43DA7500215C
:10026000054A11701A691F318A431D390A431A6100
:100270007047C0460040004250040020164B1B7ED1
:10028000DB0716D50122144B1A76144B1B78002B72
:1002900010D1114B5A8B92B210494A801A691F2013
:1002A00082431A6101230B700B4A137B02210B431B
:1002B00013737047094B1B78012BF5D1064A538BFA
:1002C0009BB206498B8013691F2083431D3803436B
:1002D000136100230B70E7E7004000425004002048
:1002E0000B4BC9201A5C02210A431A5485381A5C48
:1002F0000A431A5404301A5C0A431A5480218900B4
:1003000084229950743A5A60F0325A607047C0465D
:10031000004400410100134AA023D3589B05DB0F82
:10032000126AD20600D502330E4A126A0020D205A4
:1003300004D5002903D158424341D8B2704701295E
:1003400006D0022909D0033B58424341D8B2F5E711
:10035000013B58424341D8B2F0E7023B5842434187
:10036000D8B2EBE700440041044A138802210B4352
:100370001380D37BDB09FCD17047C046002C0042C0
:10038000044A138802218B431380D37BDB09FCD101
:100390007047C046002C004210B51F4A116A8023E6
:1003A0001B010B4313621D4B80229A608022D201F5
:1003B0009A601B4A1B4B5A801A0053785BB2002B81
:1003C000FBDB194B9847194A138801210B43138013
:1003D0001388DB07FCD4D37BDB09F9D1134B1A88D4
:1003E0000C218A431A801A8854318A4320210A43F7
:1003F0001A8096221A835A890720824302200243D8
:100400005A815A890A435A8101225A738022D202A0
:10041000074B1A6010BDC046000400400044004174
:100420001B400000000C004081030000002C004233
:1004300000E100E0014B1878C0B27047560400207C
:1004400072B6024B187062B67047C0465604002060
:1004500010B50D4B9B7BDB0700D410BD01220A4B6E
:100460009A737F32094B9A61094B9847002804D050
:10047000064B8022D2019A615A618022034B5A6155
:100480000120044B9847E8E7002C0042004400415B
:10049000690D000041040000FEE70000F8B52A4A9B
:1004A0002A4B9A4211D01A00294B9A420DD2294A5E
:1004B00003339B1A9B0801339B00002223482249E7
:1004C0008C58845004329A42FAD1234A234B9A42E0
:1004D0000AD2D34321495B1803218B4304339B1871
:1004E000002102C29342FCD11D4AFF211D4B8B43C8
:1004F0009360FD3990235B001B4AD1501B4AD3788F
:100500000325AB4302242343D370D3780C27BB438A
:1005100008263343D370164B987B30229043202219
:1005200010439873997BB943314399739A7BAA43DB
:1005300022439A730F4A536880210B4353600E4B3A
:1005400098470E4B9847FEE7AC17000000000020CC
:10055000340400200400002034040020C4040020DF
:1005600000ED00E00000000000700041005000417C
:100570000048004100400041DD0F0000FD07000081
:10058000014A024B1A60704740420F0000000020F1
:100590000B4A136A02210B4313620A4A0A4B5A8020
:1005A0001A0053785BB2002BFBDB084B1A78012151
:1005B0000A431A70892252001A81054A5A6070470C
:1005C0000004004007400000000C0040000400420E
:1005D00000002506044B9B69DB0503D580225200F1
:1005E000014B9A617047C04600040042F0B5CE4608
:1005F000474680B59446002A1ED000260025730089
:10060000C418228812094A55AF1CBFB20233C3185E
:100610006A1C92B2914624882401A0461C88240AB0
:10062000424614434A468C540335ADB21B88CB5521
:100630000236B6B2B445E2D80CBC90469946F0BD3D
:1006400004490B688022920213430B60024B1A602C
:100650007047C046004400411844004110B50528C9
:1006600007D88000104C205887461048C1838283E9
:1006700043830E480100203110220D4B984710BDD6
:100680000A480183C2828382F3E7084841820282DA
:10069000C381EEE70548818142810381E9E7034890
:1006A000C18082804380E4E77C1100005804002070
:1006B000ED05000010B50B4BD88318835882988144
:1006C000D8809983D9821982598199805A839A82D4
:1006D000DA811A815A801900203110221800024B49
:1006E000984710BD58040020ED05000070B50020AB
:1006F000234B984700280AD10120214B9847002816
:1007000014D102201E4B9847002828D170BD1D4BE4
:1007100098471D4C0025257065700022002100209F
:100720001A4B98471A4B98476580E5E7154B984751
:10073000154C01252570002200210020134B9847FD
:10074000134B98470020134B984700236380237175
:10075000114B1D7002225A7000236371D1E70F4BB9
:1007600098470222084B1A70002200210020074BF4
:100770009847074B98470020064B9847C6E7C04666
:10078000150300002902000090040020B5060000B7
:100790003D0D000041040000040000204D02000057
:1007A00010B5114B98472423132801D8180010BD09
:1007B0000D4B98470D4A01239042F7D80A4B9847B2
:1007C000FA23DB00984205D9074B9847084A0623CD
:1007D0009042EBD9044B98470649074B984724238E
:1007E0004343DBB2E2E7C04615020000EB0F000016
:1007F00033080000FF0F0000C50E0000F0B5DE4614
:1008000057464E464546E0B587B0D44B9847D44A44
:10081000D44B5360D448036A1B021B0AC02109064B
:100820000B4303620023936007331360CF4B984759
:10083000CF4B9847CF4B9847CF4B9847CF4B9847D4
:10084000CF4B9847CF4B9847CF4B9847CF4B9847C4
:10085000CF4B9847002200210020CE4B9847CE4B2B
:1008600098470025CD4B98461E001F009B461FE071
:10087000CA4B9D68CA4B984724E0C84B5B885B0015
:10088000C84A9B5A039300230193C74B0293019AD2
:1008900003990298BF4B9847BF4B9847BF4B588866
:1008A000001980B26823FF3398425FD8BB4B588051
:1008B00043461B78002B00D092E0B84B9B685B1B33
:1008C000142BD5D8B94B98470028F1D00020B84B4D
:1008D0009847B84B98470400B04B5A78052A40D83F
:1008E0009300B54AD3589F46AC4B5A885200B34B3D
:1008F0009B1850229B5A029300230193AA4B039307
:10090000C5E7A64B5B885B00A64A9B5A0193A64BA2
:10091000039300230293BAE7A04B5A885200A74BD7
:100920009B1850229B5A03939F4B019300230293E1
:10093000ADE79A4B5B885B009A4A9B5A02939A4BAD
:10094000019300230393A2E7944B5A8852009B4BD8
:100950009B1850229B5A019300230393924B0293BE
:1009600095E7002301930393029390E78B4B0022BA
:100970005A805B780133DBB2052B02D8874A53706B
:1009800096E70022854B5A7092E75B469D68844B40
:1009900098472DE0814B5B885B00824A9B5A01930C
:1009A00000230593049303930293854B9A4618788A
:1009B000019B039A0299834CA04753465878059BA4
:1009C00000220499A047744B9847744B58884844B8
:1009D00080B26823FF33984200D98BE06F4B588078
:1009E0003378012B00D063E7BB685B1B142BCCD89A
:1009F0006E4B98470028F3D000206D4B98476D4B05
:100A000098478146654B1A79072ACED893006E4ADB
:100A1000D3589F46614B5B885B00624A9B5A0293A6
:100A2000002305930493604B019300230393BCE7D9
:100A30005A4B5A885200614B9B1850229B5A019383
:100A40000023059304930393574B0293ADE7534B55
:100A50005B885B00534A9B5A0393002305930493DE
:100A60000193514B0293A0E74C4B5A885200534BD1
:100A70009B1850229B5A02930023059304930193E1
:100A8000494B039391E7454B5B885B00454A9B5A72
:100A90000193002305930493434B03930023029394
:100AA00083E73E4B5B885B00444AD2185021525A80
:100AB00003923C4A9B5A0593002304933A4B0193BB
:100AC0000023029371E7354B5B8859003B4A52186B
:100AD0005021525A0192012A09D05B00314A9B5A97
:100AE0000493314B05930023039302935DE70022A7
:100AF0000192F2E7294B00225A801B790133DBB2C5
:100B0000072B02D8254A13716AE7244B02221A7177
:100B10005879052808D883002C4AD3589F46284B7B
:100B200002221A7003325A700130C0B20621284BDB
:100B300098471A4B597153E7214B05221A70013A15
:100B40005A70F1E71E4B04221A70013A5A70EBE713
:100B50001B4B03221A7002325A70E5E78105000030
:100B600010E000E07FBB000000ED00E04106000067
:100B7000290E000099030000010C000091050000FF
:100B8000E102000015010000B50E0000690300003D
:100B900029020000B50600003D0D00009004002071
:100BA000ED060000E4110000FF0F00003504000016
:100BB00041040000A107000094110000641400002B
:100BC000040000205D060000AC110000CC11000004
:100BD000D10F0000054B05221A70043A5A70A3E7A2
:100BE000024B01221A7001325A709DE70400002066
:100BF000024A9368013393607047C0469004002016
:100C000070B53B4BB520195C0F26B1430325294332
:100C10001954CA229C5C01210C439C5436241A5D51
:100C2000B2432A431A5516341A5D0A431A551C5CFE
:100C30000F222240302422431A5416301A5C0A43F1
:100C40001A542C4A136802218B431360D3699B0703
:100C5000FCD4294A136A40210B431362274A284BCC
:100C60005A801A0053785BB2002BFBDB214A1368D1
:100C700001210B4313601368DB07FCD4D369DB0746
:100C8000F9D41C4B1A681F490A401A601A681E4999
:100C90001140802252020A431A601A681B490A4016
:100CA0001A601A681A490A401A601A6819490A40F3
:100CB0001A601A681C218A4310390A431A6059685D
:100CC000802292020A435A601A00D3695B07FCD45F
:100CD000084B0B221A731A6802210A431A601A0081
:100CE000D3699B07FCD4802292010B4B1A6070BD24
:100CF0000044004100180042000400401840000079
:100D0000000C0040FFFFCFFFFFFFFCFFFFFFFFBF16
:100D1000FFFFFFDFFFFFFFEF00E100E072B6064BD1
:100D20001B78002B05D10122034B1A7062B60120FB
:100D3000704762B60020FBE79C04002010B5064B0C
:100D40009847002807D00122044B1A70044B1978E9
:100D5000044B99629A7510BD1D0D0000060000201D
:100D60007804002000180042034B5878C0B20028D5
:100D700001D000225A7070479C040020164B1B7E45
:100D8000DB0711D5154B1B78DBB2172B11D8134994
:100D90000B78DBB25A1CD2B20A70114AD25C0E4BED
:100DA0009A6201220C4B1A760B4B1B7E9B0706D4D2
:100DB0007047094B01221A7501329A75F1E7064B0B
:100DC00002221A761A75013A044B1A70054B5A70B2
:100DD00000221A70ECE7C04600180042060000200E
:100DE000780400209C0400200E4BD866C0011A6FC6
:100DF000000A120E120602431A675A6F120E1206EA
:100E000002435A679A6F120E120602439A67DA6F0C
:100E1000120E12061043D8671A0093681B03FCD405
:100E20007047C0460020004210B51B4A116A80235B
:100E30005B000B431362194A194B5A801A0053780E
:100E40005BB2002BFBDB174A136802218B43136054
:100E500015494F200B5C012423430B5418380C5CBC
:100E60000F232340502423430B54D36B07218B4380
:100E700006390B43D36393685B06FCD4C8200B4B45
:100E80009847084B1A680A490A401A60196A802272
:100E900052040A431A6210BD000400401A400000C8
:100EA000000C00400020004200440041E90D000019
:100EB000FFF8FFFF024A136802210B4313607047DB
:100EC00000200042002243088B4274D303098B4266
:100ED0005FD3030A8B4244D3030B8B4228D3030C0A
:100EE0008B420DD3FF22090212BA030C8B4202D3AC
:100EF0001212090265D0030B8B4219D300E0090AD4
:100F0000C30B8B4201D3CB03C01A5241830B8B42DC
:100F100001D38B03C01A5241430B8B4201D34B03C5
:100F2000C01A5241030B8B4201D30B03C01A52412A
:100F3000C30A8B4201D3CB02C01A5241830A8B42AF
:100F400001D38B02C01A5241430A8B4201D34B0298
:100F5000C01A5241030A8B4201D30B02C01A5241FC
:100F6000CDD2C3098B4201D3CB01C01A52418309B0
:100F70008B4201D38B01C01A524143098B4201D3EA
:100F80004B01C01A524103098B4201D30B01C01A15
:100F90005241C3088B4201D3CB00C01A524183088F
:100FA0008B4201D38B00C01A524143088B4201D3BC
:100FB0004B00C01A5241411A00D20146524110461C
:100FC0007047FFE701B5002000F006F802BDC046FB
:100FD0000029F7D076E770477047C04670B50D4ED0
:100FE0000D4D0024AD1BAD1005D0A300F358013406
:100FF0009847A542F9D100F0C7FB084E084D0024E0
:10100000AD1BAD1005D0A300F35801349847A5429D
:10101000F9D170BD941700009417000094170000D8
:101020009C170000034B10B5002B02D0024800F0C3
:1010300005F810BD000000004D10000010B50100C3
:1010400000230022002000F01FF810BD70B5094BEE
:10105000094CE41AA41009D0084AA518AD00ED18EF
:101060002B68013C9847043D002CF9D100F096FB19
:1010700070BDC046A8170000AC170000FFFFFF3F7F
:101080007047C0467047C046F0B54E464546DE46FE
:101090005746E0B5364D83B00600286898460F00E5
:1010A0009146FFF7EDFF334B1C68A4235B00E0582B
:1010B000002852D043681F2B13DC5A1C0192002ECB
:1010C00028D1019A02339B0042601F502868FFF725
:1010D000D9FF002003B03CBC90469946A246AB46DF
:1010E000F0BD254B002B3DD0C820400000E000BFE4
:1010F000002837D0A42200235200A1584360016089
:10110000A0504032835004328350013301930023B6
:10111000002ED6D09A00924682444A4688215446F0
:101120006250C4225200914681444A468739994010
:1011300012688B460A4394464A46614611608422EF
:1011400041465200A150022EBBD102005C468D32B6
:10115000FF3211680C431460B3E720004D30FF30BC
:10116000E050A7E72868FFF78DFF01204042B1E774
:101170003004002084170000000000007206000008
:101180006A060000800600008A060000940600003F
:101190009E0600007A080000E8080000020900002E
:1011A00018090000320900004809000094090000F5
:1011B000140A0000300A00004E0A0000680A00000D
:1011C000860A0000A20A0000C60A00001E0B0000EA
:1011D000380B0000440B0000500B0000D40B000043
:1011E000E00B000000000000000000000000000014
:1011F00000000000000000000000000000000000EF
:1012000000000000000000000000000000000000DE
:1012100000000000000000000000000001000100CC
:1012200001000100010001000100010001000100B6
:10123000020002000200020002000200030003009C
:10124000030003000400040004000400050005007E
:101250000500060006000700070007000800080058
:10126000090009000A000A000B000B000C000D0029
:101270000D000E000F0010001000110012001300EE
:1012800014001400150016001700180019001A00A9
:101290001C001D001E001F0020002200230024004F
:1012A0002600270028002A002C002D002F003000E7
:1012B000320034003600370039003B003D003F006B
:1012C00041004300450048004A004C004F005100D7
:1012D0005300560058005B005E006000630066002B
:1012E00069006C006F007200750078007B007F0061
:1012F0008200860089008D009000940098009B0079
:101300009F00A300A700AB00B000B400B800BD0070
:10131000C100C600CA00CF00D400D900DD00E30040
:10132000E800ED00F200F700FD00020108010E01E7
:10133000130119011F0125012B01310138013E0163
:1013400045014B01520159015F0166016D017501B3
:101350007C0183018B0192019A01A201AA01B201D1
:10136000BA01C201CA01D301DB01E401EC01F501BC
:10137000FE01070210021A0223022D023602400269
:101380004A0254025E02690273027D0288029302DD
:101390009E02A902B402BF02CB02D602E202EE0212
:1013A000F902060312031E032B0337034403510300
:1013B0005E036B03780386039403A103AF03BD03AD
:1013C000CB03DA03E803F70306041504240433040B
:1013D000430452046204720482049204A304B3041A
:1013E000C404D504E604F70409051A052C053E05D6
:1013F00050056205740587059A05AD05C005D3053E
:10140000E705FA050E06220637064B066006740647
:1014100089069E06B406C906DF06F5060B072107F6
:1014200038074F0766077D079407AC07C307DB073C
:10143000F3070C0824083D0856086F088808A2081E
:10144000BC08D608F0080B09250940095B09770993
:101450009209AE09CA09E609030A1F0A3C0A590A99
:10146000770A940AB20AD00AEE0A0D0B2C0B4B0B2A
:101470006A0B8A0BA90BC90BE90B0A0C2B0C4C0C41
:101480006D0C8E0CB00CD20CF40C170D390D5C0DDC
:10149000800DA30DC70DEB0D0F0E340E580E7D0EF3
:1014A000A30EC80EEE0E140F3B0F620F880FB00F85
:1014B000D70FFF0FFF0FD70FB00F880F620F3B0F33
:1014C000140FEE0EC80EA30E7D0E580E340E0F0E26
:1014D000EB0DC70DA30D800D5C0D390D170DF40C30
:1014E000D20CB00C8E0C6D0C4C0C2B0C0A0CE90BB6
:1014F000C90BA90B8A0B6A0B4B0B2C0B0D0BEE0ABD
:10150000D00AB20A940A770A590A3C0A1F0A030A47
:10151000E609CA09AE09920977095B09400925095C
:101520000B09F008D608BC08A20888086F085608FE
:101530003D0824080C08F307DB07C307AC07940732
:101540007D0766074F07380721070B07F506DF06FB
:10155000C906B4069E068906740660064B06370661
:1015600022060E06FA05E705D305C005AD059A0566
:1015700087057405620550053E052C051A05090509
:10158000F704E604D504C404B304A304920482045B
:101590007204620452044304330424041504060450
:1015A000F703E803DA03CB03BD03AF03A1039403FE
:1015B000860378036B035E035103440337032B0355
:1015C0001E0312030603F902EE02E202D602CB0268
:1015D000BF02B402A9029E02930288027D02730236
:1015E00069025E0254024A02400236022D022302C0
:1015F0001A0210020702FE01F501EC01E401DB0111
:10160000D301CA01C201BA01B201AA01A2019A0121
:1016100092018B0183017C0175016D0166015F01FF
:10162000590152014B0145013E01380131012B01A5
:1016300025011F01190113010E0108010201FD001E
:10164000F700F200ED00E800E300DD00D900D4006F
:10165000CF00CA00C600C100BD00B800B400B00091
:10166000AB00A700A3009F009B009800940090008F
:101670008D008900860082007F007B007800750065
:1016800072006F006C0069006600630060005E001D
:101690005B0058005600530051004F004C004A00B8
:1016A00048004500430041003F003D003B00390039
:1016B000370036003400320030002F002D002C009F
:1016C0002A002800270026002400230022002000F2
:1016D0001F001E001D001C001A0019001800170032
:1016E0001600150014001400130012001100100061
:1016F00010000F000E000D000D000C000B000B0081
:101700000A000A0009000900080008000700070095
:10171000070006000600050005000500040004009F
:1017200004000400030003000300030002000200A1
:10173000020002000200020001000100010001009D
:101740000100010001000100010001000100010091
:101750000100010000000000000000000000000087
:101760000000000000000000000000000000000079
:101770000000000000000000000000000000000069
:101780000000000008000020F8B5C046F8BC08BC06
:101790009E46704725100000DD000000F8B5C046E9
:0C17A000F8BC08BC9E467047B500000075
:1017AC0040420F000102010000000000F402002082
:1017BC005C030020C40300200000000000000000B7
:1017CC00000000000000000000000000000000000D
:1017DC0000000000000000000000000000000000FD
:1017EC0000000000000000000000000000000000ED
:1017FC0000000000000000000000000000000000DD
:10180C0000000000000000000000000000000000CC
:10181C0000000000000000000000000000000000BC
:10182C0000000000000000000000000000000000AC
:10183C00000000000000000000000000000000009C
:10184C00000000000000000000000000000000008C
:10185C0001000000000000000E33CDAB34126DE629
:10186C00ECDE05000B000000000000000000000092
:10187C00000000000000000000000000000000005C
:10188C00000000000000000000000000000000004C
:10189C00000000000000000000000000000000003C
:1018AC00000000000000000000000000000000002C
:041BDC00A004002041
:00000001FF
