S00D00004C414231302E73726563E7
S1130000B8240020D9030000D5030000D503000064
S113001000000000000000000000000000000000DC
S1130020000000000000000000000000D5030000F4
S11300300000000000000000D5030000990A000041
S1130040D5030000D5030000D5030000D50300004C
S1130050D5030000D5030000D5030000D50300003C
S113006011050000D5030000D5030000D5030000EE
S1130070D5030000250C0000D5030000D5030000C3
S1130080D5030000D50300008D030000D503000054
S1130090D50300000000000000000000D5030000AC
S11300A0D5030000D5030000D5030000D5030000EC
S11300B00000000010B5064C2378002B07D1054B37
S11300C0002B02D0044800E000BF0123237010BDC0
S11300D0340400200000000054160000084B10B542
S11300E0002B03D00749084800E000BF0748036815
S11300F0002B00D110BD064B002BFBD09847F9E72D
S113010000000000380400205416000054160000BB
S113011000000000364A116A80235B020B4313621D
S1130120344A354B5A801A005378DB09FCD1334AE0
S1130130137801210B4313701378DB07FCD4537E2F
S1130140DB09F9D12D4B1A7804218A431A701A78E5
S113015002398A431A705A780D318A4302200243C5
S11301605A709A78702082439A709A788A439A7067
S1130170DA7830318A43DA709A8821491140C022F2
S1130180D2000A439A809A8830210A439A809A8836
S113019004210A439A809A8808218A439A801A0083
S11301A0537EDB09FCD1154B1969F02212050A4371
S11301B01A611A6913491140C02252010A431A6193
S11301C01A691F218A431D390A431A611A00537E92
S11301D0DB09FCD1094B19780220014319701A7B01
S11301E002431A731A00537EDB09FCD17047C046E0
S11301F0000400401E400000000C0040004000428B
S1130200FFF8FFFFFFE0FFFF034A537EDB09FCD149
S1130210014B588BC0B27047004000420B4BC920C1
S11302201A5C02210A431A5485381A5C0A431A5488
S113023004301A5C0A431A5480218900842299509C
S1130240743A5A60F0325A607047C0460044004124
S11302500100134AA023D3589B05DB0F126AD20670
S113026000D502330E4A126A0020D20504D50029B3
S113027003D158424341D8B27047012906D002291C
S113028009D0033B58424341D8B2F5E7013B5842F9
S11302904341D8B2F0E7023B58424341D8B2EBE7BE
S11302A000440041044A138802210B431380D37B8A
S11302B0DB09FCD17047C046002C0042044A138875
S11302C002218B431380D37BDB09FCD17047C046EA
S11302D0002C004210B51F4A116A80231B010B43F6
S11302E013621D4B80229A608022D2019A601B4ABD
S11302F01B4B5A801A0053785BB2002BFBDB194B63
S11303009847194A138801210B4313801388DB078C
S1130310FCD4D37BDB09F9D1134B1A880C218A4313
S11303201A801A8854318A4320210A431A8096225B
S11303301A835A8907208243022002435A815A8928
S11303400A435A8101225A738022D202074B1A604F
S113035010BDC04600040040004400411B400000A2
S1130360000C0040BD020000002C004200E100E04F
S1130370014B1878C0B270475004002072B6024B8B
S1130380187062B67047C0465004002010B50D4B7B
S11303909B7BDB0700D410BD01220A4B9A737F328A
S11303A0094B9A61094B9847002804D0064B8022D8
S11303B0D2019A615A618022034B5A610120044B95
S11303C09847E8E7002C004200440041110C00006B
S11303D07D030000FEE70000F8B52A4A2A4B9A4242
S11303E011D01A00294B9A420DD2294A03339B1A81
S11303F09B0801339B000022234822498C588450D7
S113040004329A42FAD1234A234B9A420AD2D34362
S113041021495B1803218B4304339B18002102C23A
S11304209342FCD11D4AFF211D4B8B439360FD3940
S113043090235B001B4AD1501B4AD3780325AB435E
S113044002242343D370D3780C27BB4308263343B9
S1130450D370164B987B302290432022104398731C
S1130460997BB943314399739A7BAA4322439A7384
S11304700F4A536880210B4353600E4B98470E4B31
S11304809847FEE7541600000000002034040020C2
S11304900400002034040020B804002000ED00E033
S11304A0000000000070004100500041004800417D
S11304B000400041850E000071060000014A024B15
S11304C01A60704740420F00000000200B4A136A74
S11304D002210B4313620A4A0A4B5A801A005378CA
S11304E05BB2002BFBDB084B1A7801210A431A701C
S11304F0892252001A81054A5A607047000400405C
S113050007400000000C00400004004200002506E3
S1130510044B9B69DB0503D580225200014B9A6191
S11305207047C04600040042F0B5CE46474680B549
S11305309446002A1ED0002600257300C418228881
S113054012094A55AF1CBFB20233C3186A1C92B2D7
S1130550914624882401A0461C88240A4246144358
S11305604A468C540335ADB21B88CB550236B6B21D
S1130570B445E2D80CBC90469946F0BD04490B68DA
S11305808022920213430B60024B1A607047C046EC
S1130590004400411844004110B5052807D88000E4
S11305A0104C205887461048C183828343830E48E9
S11305B00100203110220D4B984710BD0A480183D9
S11305C0C2828382F3E7084841820282C381EEE754
S11305D00548818142810381E9E70348C180828023
S11305E04380E4E72410000054040020290500009F
S11305F010B50B4BD883188358829881D88099837F
S1130600D9821982598199805A839A82DA811A810E
S11306105A801900203110221800024B984710BD4F
S1130620540400202905000010B50F4B98472423DB
S1130630092801D8180010BD0B4B98470123F52851
S1130640F8D8094B9847742804D9074B98470623D0
S11306508B28EFD9044B9847FF21044B9847242358
S11306604343DBB2E6E7C046090200006D0D00001B
S1130670F0B5DE4657464E464546E0B58BB0DB4BFB
S11306809847DB4ADB4B5360DB48036A1B021B0AB7
S1130690C02109060B4303620023936007331360F0
S11306A0D64B9847D64B9847D64B9847D64B984746
S11306B0D64B9847D64B9847D64B9847D64B984736
S11306C0D64B9847002200210020D54B9847D54BA4
S11306D09847002399460233089300239846013330
S11306E00793002600240023019309933500CCE1ED
S11306F0CD4B1B685B1B019E142B05D8CB4B984735
S113070000281DD10196C0E10120C94B9847019EE4
S11307100028F3D0C44B1D68002200210020C04BE8
S11307209847C04B98470020C24B9847019A91467E
S1130730904602230893013B079300240126DDE73A
S11307400020BC4B9847BC4B98478246099B052B1D
S113075056D89B00B94AD3589F466300B84A9B5A5F
S1130760049300230293B74B0593029A04990598C6
S1130770AB4B9847AB4B98475444A4B26823FF3320
S11307809C4242D9099B0133DBB20993052B3ED924
S1130790019B09930196002477E16200AA4B9B1800
S11307A050229B5A059300230293A64B0493DCE743
S11307B06300A34A9B5A0293A24B0493002305931C
S11307C0D3E76200A04B9B1850229B5A04939D4B85
S11307D0029300230593C8E76300994A9B5A059343
S11307E0984B029300230493BFE76200964B9B1837
S11307F050229B5A029300230493924B0593B4E72F
S11308000023029304930593AFE701963DE101961B
S113081000243AE10020864B9847019E002800D12D
S1130820CDE0814B1B689A460022002100207C4BBE
S113083098477C4B98470024002600230993BEE088
S113084063007F4A9B5A0293002306930393049305
S11308500593029B049A059907987C4FB847069B19
S1130860002203990898B8476E4B98474444A4B2B1
S11308706823FF339C4200D897E00135EDB2002491
S1130880072D00D891E04B46052B00D983E09B004F
S11308906F4AD3589F466300694A9B5A05930023C5
S11308A006930393674B029300230493D1E76200FA
S11308B0654B9B1850229B5A029300230693039383
S11308C00493604B0593C4E763005D4A9B5A049309
S11308D000230693039302935A4B0593B9E76200EE
S11308E0594B9B1850229B5A05930023069303935C
S11308F00293544B0493ACE76300514A9B5A02930E
S11309000023069303934F4B049300230593A0E71E
S113091063004D4AD2185021525A0492484A9B5AB5
S1130920069300230393474B02930023059390E718
S113093023006100444A52185021525A0292012A5B
S11309401CD05B003E4A9B5A0393029B0022002169
S113095007983E4FB8473B4B002203990898B84785
S1130960304B98474444A4B26823FF339C4208D8D0
S1130970344B069300230493059316E0002202925D
S1130980DFE7304B06930023049305937BE70523AD
S11309900893033B079348460130C0B206212D4B10
S11309A09847CBB2994602250024012E6AD11E4BEA
S11309B01B6852469B1A019E142B00D92AE71B4B35
S11309C098470028F1D000201A4B98471A4B9847B3
S11309D08046072D00D93CE7AB001F4AD3589F46F9
S11309E00423089301330793D5E7C046BD040000F0
S11309F010E000E07FBB000000ED00E07D0500009A
S1130A00D10C0000D5020000A90A0000CD040000AA
S1130A101D020000150100005D0D0000A50200008C
S1130A20F1050000E50B00008C04002071030000B8
S1130A30510200007D030000290600003C10000064
S1130A408C100000FF0F00000C130000990500003B
S1130A5054100000790E00006C100000032308936A
S1130A600133079397E74B4607930523089392E7CF
S1130A70019B0893052307938DE7019B07930223AA
S1130A80089388E7A84655460196019B002B00D1A0
S1130A902EE6AA4645468AE7024A136801331360E4
S1130AA07047C0468C04002070B53B4BB520195CE0
S1130AB00F26B143032529431954CA229C5C012102
S1130AC00C439C5436241A5DB2432A431A551634F7
S1130AD01A5D0A431A551C5C0F222240302422431B
S1130AE01A5416301A5C0A431A542C4A1368022109
S1130AF08B431360D3699B07FCD4294A136A4021B2
S1130B000B431362274A284B5A801A0053785BB26E
S1130B10002BFBDB214A136801210B43136013688C
S1130B20DB07FCD4D369DB07F9D41C4B1A681F49D3
S1130B300A401A601A681E491140802252020A4370
S1130B401A601A681B490A401A601A681A490A404E
S1130B501A601A6819490A401A601A681C218A43E3
S1130B6010390A431A605968802292020A435A6073
S1130B701A00D3695B07FCD4084B0B221A731A685A
S1130B8002210A431A601A00D3699B07FCD480220D
S1130B9092010B4B1A6070BD0044004100180042E2
S1130BA00004004018400000000C0040FFFFCFFF8D
S1130BB0FFFFFCFFFFFFFFBFFFFFFFDFFFFFFFEFB4
S1130BC000E100E072B6064B1B78002B05D1012230
S1130BD0034B1A7062B60120704762B60020FBE72F
S1130BE09004002010B5064B9847002807D0012236
S1130BF0044B1A70044B1978044B99629A7510BD12
S1130C00C50B0000040000207404002000180042FA
S1130C10034B5878C0B2002801D000225A707047A4
S1130C2090040020164B1B7EDB0711D5154B1B7857
S1130C30DBB2172B11D813490B78DBB25A1CD2B292
S1130C400A70114AD25C0E4B9A6201220C4B1A763E
S1130C500B4B1B7E9B0706D47047094B01221A7568
S1130C6001329A75F1E7064B02221A761A75013A97
S1130C70044B1A70054B5A7000221A70ECE7C046F8
S1130C800018004204000020740400209004002096
S1130C900E4BD866C0011A6F000A120E12060243E8
S1130CA01A675A6F120E120602435A679A6F120E8F
S1130CB0120602439A67DA6F120E12061043D867BF
S1130CC01A0093681B03FCD47047C04600200042FE
S1130CD010B51B4A116A80235B000B431362194A47
S1130CE0194B5A801A0053785BB2002BFBDB174A6E
S1130CF0136802218B43136015494F200B5C0124B8
S1130D0023430B5418380C5C0F23234050242343F3
S1130D100B54D36B07218B4306390B43D36393687E
S1130D205B06FCD419200B4B9847084B1A680A49F8
S1130D300A401A60196A802252040A431A6210BDDA
S1130D40000400401A400000000C00400020004253
S1130D5000440041910C0000FFF8FFFF024A1368B1
S1130D6002210B4313607047002000420022430815
S1130D708B4274D303098B425FD3030A8B4244D35F
S1130D80030B8B4228D3030C8B420DD3FF220902A1
S1130D9012BA030C8B4202D31212090265D0030B60
S1130DA08B4219D300E0090AC30B8B4201D3CB0356
S1130DB0C01A5241830B8B4201D38B03C01A524198
S1130DC0430B8B4201D34B03C01A5241030B8B429A
S1130DD001D30B03C01A5241C30A8B4201D3CB0285
S1130DE0C01A5241830A8B4201D38B02C01A52416A
S1130DF0430A8B4201D34B02C01A5241030A8B426D
S1130E0001D30B02C01A5241CDD2C3098B4201D384
S1130E10CB01C01A524183098B4201D38B01C01A02
S1130E20524143098B4201D34B01C01A5241030979
S1130E308B4201D30B01C01A5241C3088B4201D328
S1130E40CB00C01A524183088B4201D38B00C01AD5
S1130E50524143088B4201D34B00C01A5241411AFC
S1130E6000D20146524110467047FFE701B5002009
S1130E7000F006F802BDC0460029F7D076E77047B7
S1130E807047C04670B50D4E0D4D0024AD1BAD101E
S1130E9005D0A300F35801349847A542F9D100F0D6
S1130EA0C7FB084E084D0024AD1BAD1005D0A300B0
S1130EB0F35801349847A542F9D170BD3C1600009F
S1130EC03C1600003C16000044160000034B10B50D
S1130ED0002B02D0024800F005F810BD000000000D
S1130EE0F50E000010B5010000230022002000F0E0
S1130EF01FF810BD70B5094B094CE41AA41009D0B1
S1130F00084AA518AD00ED182B68013C9847043D2C
S1130F10002CF9D100F096FB70BDC04650160000BD
S1130F2054160000FFFFFF3F7047C0467047C0469D
S1130F30F0B54E464546DE465746E0B5364D83B0DD
S1130F400600286898460F009146FFF7EDFF334BE3
S1130F501C68A4235B00E058002852D043681F2B70
S1130F6013DC5A1C0192002E28D1019A02339B00F3
S1130F7042601F502868FFF7D9FF002003B03CBC33
S1130F8090469946A246AB46F0BD254B002B3DD07A
S1130F90C820400000E000BF002837D0A42200236E
S1130FA05200A15843600160A05040328350043283
S1130FB08350013301930023002ED6D09A00924629
S1130FC082444A46882154466250C42252009146C3
S1130FD081444A468739994012688B460A439446AD
S1130FE04A4661461160842241465200A150022EB5
S1130FF0BBD102005C468D32FF3211680C43146091
S1131000B3E720004D30FF30E050A7E72868FFF732
S11310108DFF01204042B1E7300400202C1600006F
S113102000000000AE050000A6050000BC0500009D
S1131030C6050000D0050000DA0500005A070000CC
S11310409A070000B0070000C2070000D80700009C
S1131050EA0700008E090000E00900005C0A0000B5
S1131060660A0000700A00007A0A000040080000C6
S113107096080000AE080000C8080000DE08000062
S1131080F80800001009000030090000000000000A
S1131090000000000000000000000000000000004C
S11310A0000000000000000000000000000000003C
S11310B0000000000000000000000000000000002C
S11310C00000000001000100010001000100010016
S11310D00100010001000100020002000200020000
S11310E002000200030003000300030004000400E4
S11310F004000400050005000500060006000700C2
S11311000700070008000800090009000A000A0097
S11311100B000B000C000D000D000E000F00100062
S11311201000110012001300140014001500160022
S11311301700180019001A001C001D001E001F00D3
S113114020002200230024002600270028002A0073
S11311502C002D002F003000320034003600370000
S113116039003B003D003F0041004300450048007A
S11311704A004C004F0051005300560058005B00D9
S11311805E0060006300660069006C006F0072001E
S1131190750078007B007F008200860089008D0046
S11311A09000940098009B009F00A300A700AB0050
S11311B0B000B400B800BD00C100C600CA00CF0032
S11311C0D400D900DD00E300E800ED00F200F700F0
S11311D0FD00020108010E01130119011F0125017F
S11311E02B01310138013E0145014B0152015901E6
S11311F05F0166016D0175017C0183018B01920120
S11312009A01A201AA01B201BA01C201CA01D30121
S1131210DB01E401EC01F501FE01070210021A02F0
S113122023022D02360240024A0254025E0269027F
S113123073027D02880293029E02A902B402BF02D5
S1131240CB02D602E202EE02F902060312031E03E7
S11312502B033703440351035E036B0378038603B4
S11312609403A103AF03BD03CB03DA03E803F7033D
S1131270060415042404330443045204620472046F
S113128082049204A304B304C404D504E604F7045A
S113129009051A052C053E055005620574058705E8
S11312A09A05AD05C005D305E705FA050E06220625
S11312B037064B066006740689069E06B406C90600
S11312C0DF06F5060B07210738074F0766077D077A
S11312D09407AC07C307DB07F3070C0824083D0891
S11312E056086F088808A208BC08D608F0080B093D
S11312F0250940095B0977099209AE09CA09E6097B
S1131300030A1F0A3C0A590A770A940AB20AD00A45
S1131310EE0A0D0B2C0B4B0B6A0B8A0BA90BC90B9A
S1131320E90B0A0C2B0C4C0C6D0C8E0CB00CD20C73
S1131330F40C170D390D5C0D800DA30DC70DEB0DCD
S11313400F0E340E580E7D0EA30EC80EEE0E140FA3
S11313503B0F620F880FB00FD70FFF0FFF0FD70F90
S1131360B00F880F620F3B0F140FEE0EC80EA30EC2
S11313707D0E580E340E0F0EEB0DC70DA30D800D10
S11313805C0D390D170DF40CD20CB00C8E0C6D0CD9
S11313904C0C2B0C0A0CE90BC90BA90B8A0B6A0B1E
S11313A04B0B2C0B0D0BEE0AD00AB20A940A770AE7
S11313B0590A3C0A1F0A030AE609CA09AE09920936
S11313C077095B09400925090B09F008D608BC0810
S11313D0A20888086F0856083D0824080C08F3077B
S11313E0DB07C307AC0794077D0766074F07380779
S11313F021070B07F506DF06C906B4069E06890613
S1131400740660064B06370622060E06FA05E70543
S1131410D305C005AD059A05870574056205500519
S11314203E052C051A050905F704E604D504C40491
S1131430B304A304920482047204620452044304B5
S11314403304240415040604F703E803DA03CB0386
S1131450BD03AF03A1039403860378036B035E0308
S11314605103440337032B031E0312030603F9023B
S1131470EE02E202D602CB02BF02B402A9029E022D
S1131480930288027D02730269025E0254024A02D8
S1131490400236022D0223021A0210020702FE0144
S11314A0F501EC01E401DB01D301CA01C201BA0177
S11314B0B201AA01A2019A0192018B0183017C016C
S11314C075016D0166015F01590152014B0145012E
S11314D03E01380131012B0125011F0119011301BE
S11314E00E0108010201FD00F700F200ED00E80022
S11314F0E300DD00D900D400CF00CA00C600C1005B
S1131500BD00B800B400B000AB00A700A3009F006A
S11315109B009800940090008D0089008600820052
S11315207F007B007800750072006F006C0069001A
S11315306600630060005E005B00580056005300C4
S113154051004F004C004A00480045004300410050
S11315503F003D003B0039003700360034003200C4
S113156030002F002D002C002A0028002700260020
S113157024002300220020001F001E001D001C0068
S11315801A001900180017001600150014001400A2
S1131590130012001100100010000F000E000D00C7
S11315A00D000C000B000B000A000A0009000900E2
S11315B008000800070007000700060006000500F1
S11315C005000500040004000400040003000300F7
S11315D003000300020002000200020002000200F5
S11315E001000100010001000100010001000100EF
S11315F001000100010001000100010000000000E1
S113160000000000000000000000000000000000D6
S113161000000000000000000000000000000000C6
S1131620000000000000000000000000080000208E
S1131630F8B5C046F8BC08BC9E467047CD0E000005
S1131640DD000000F8B5C046F8BC08BC9E467047F3
S1071650B5000000DD
S113165440420F000100000000000000F4020020DA
S11316645C030020C403002000000000000000000C
S11316740000000000000000000000000000000062
S11316840000000000000000000000000000000052
S11316940000000000000000000000000000000042
S11316A40000000000000000000000000000000032
S11316B40000000000000000000000000000000022
S11316C40000000000000000000000000000000012
S11316D40000000000000000000000000000000002
S11316E400000000000000000000000000000000F2
S11316F400000000000000000000000000000000E2
S113170401000000000000000E33CDAB34126DE67E
S1131714ECDE05000B0000000000000000000000E7
S113172400000000000000000000000000000000B1
S113173400000000000000000000000000000000A1
S11317440000000000000000000000000000000091
S11317540000000000000000000000000000000081
S1071A8494040020A2
S9030000FC
