S00D00004C414231302E73726563E7
S113000028260020250D0000210D0000210D0000F0
S113001000000000000000000000000000000000DC
S1130020000000000000000000000000210D00009E
S11300300000000000000000210D0000A9200000C5
S1130040210D0000210D0000210D0000210D0000F4
S1130050210D0000210D0000210D0000210D0000E4
S11300605D0E0000210D0000210D0000210D000097
S1130070DD0F000035220000210D0000210D0000DD
S1130080210D0000210D0000D90C0000210D0000FD
S1130090210D00000000000000000000FD0300002E
S11300A0210D0000210D0000210D0000210D000094
S11300B00000000010B5064C2378002B07D1054B37
S11300C0002B02D0044800E000BF0123237010BDC0
S11300D03404002000000000903A0000084B10B5E2
S11300E0002B03D00749084800E000BF0748036815
S11300F0002B00D110BD064B002BFBD09847F9E72D
S11301000000000038040020903A0000903A0000FB
S11301100000000082B0054B5843C0080190019BC9
S11301205A1E0192002BFAD102B0704780BB000026
S113013010B54000C0B2024CA047002010BDC0461C
S1130140B10F000030B589B0050010001C1C1F2B36
S113015000D91F24A4B26B46197022000100581C58
S1130160054B9847621C6D00E8B26946034B9847FB
S1130170002009B030BDC046C92A00007D0F000030
S113018000B583B015486823437000238370144B73
S1130190C361144B0362144B4362144B9847C0B2BF
S11301A06B46D87107331B78002B0FD10B480C23F7
S11301B04371093B8371013BC3710F3303710C4BD2
S11301C098470C4B1870002803D0FEE7FFF7D8FFC0
S11301D0ECE76420044B984703B000BDCC05002035
S11301E0310100004501000015010000FD0500007B
S11301F0A10700005004002010B50F4B00220F4946
S113020001200F4CA0470F4B18700023002811D178
S11302100D4B197858780B4A0002014351809978A4
S1130220D87800020143918019795B791B020B4352
S1130230D3800123180010BDCC050020F405002054
S11302406109000050040020C4050020014B022075
S1130250185E704750040020014B0420185E70475C
S113026050040020384A116A80235B020B43136256
S1130270364A374B5A801A005378DB09FCD1354A89
S1130280137801210B4313701378DB07FCD4537EDE
S1130290DB09F9D12F4B1A7804218A431A701A7892
S11302A002398A431A705A780D318A430220024374
S11302B05A709A78702082439A709A788A439A7016
S11302C0DA7830318A43DA709A8823491140C0229F
S11302D0D2000A439A809A8830218A439A809A8865
S11302E004210A439A809A8808218A439A801A0032
S11302F0537EDB09FCD1174B1969F02212050A431E
S11303001A611A6915491140C02252010A431A613F
S11303101A691F218A431D390A431A611A00537E40
S1130320DB09FCD1802212040D4B1A60094B1978A9
S11303300220014319701A7B02431A731A00537E78
S1130340DB09FCD17047C046000400401E40000099
S1130350000C004000400042FFF8FFFFFFE0FFFFF9
S113036000E100E0034A537EDB09FCD1014B588BCA
S113037080B270470040004272B6044B1B889BB2A7
S113038062B680200001C01A00B2704758040020F1
S113039072B6044B5B889BB262B680200001C01A1F
S11303A000B2704758040020074B9A8804210A437E
S11303B09A809A7D01210A439A751A691F218A43FA
S11303C01D390A431A61704700400042094B9A885C
S11303D004218A439A80DA7D01210A43DA750021D7
S11303E0054A11711A691F318A431D390A431A617A
S11303F07047C0460040004258040020164B1B7E44
S1130400DB0716D50122144B1A76144B1B79002BEB
S113041010D1114B5A8B92B210490A801A691F20CD
S113042082431A6101230B710B4A137B02210B4394
S113043013737047094B1B79012BF5D1064A538B73
S11304409BB206494B8013691F2083431D38034325
S1130450136100230B71E7E70040004258040020B9
S113046000280AD0C369002B0AD0036A002B0AD0E3
S1130470436A584258414042704701204042FBE7DA
S113048001204042F8E701204042F5E770B506003C
S11304901C1E18D0DD69002D18D09B78012B0CD0C0
S11304A0607813000A003100A8470500636A012040
S11304B09847002D04D1280070BD7F331E43EFE719
S11304C002256D42F7E701256D42F4E701256D42EF
S11304D0F1E7F8B5CE46474680B580468946170011
S11304E01D1E3CD01C6A002C3DD09B78012B23D0D0
S11304F02B7A112B25D02B7C152B22D00024002302
S11305001E00002F13D04B461A1943461919C9B2BD
S1130510687801232E6AB047060001206B6A984769
S11305200134E4B2A3B2BB42EDD3002E13D13000A8
S11305300CBC90469946F8BD7E3302001A409046A2
S1130540D6E768783B004A464146A04706006B6AF6
S113055001209847E9E702235B421E00E7E70123F5
S11305605B421E00E3E701235B421E00DFE700005D
S113057070B582B00400B6226B46DA71002832D01E
S1130580436A002B32D00300B53A694607317E2016
S1130590184DA84705000F20636A9847002D14D111
S11305A0A378012B14D00222E27108236371102175
S11305B021710D39A171E27363730C33237300232A
S11305C0A3736368A360E3682361280002B070BD6D
S11305D023000122694607317F20074EB0470028D7
S11305E0E1D00500F1E701256D42EEE701256D42FA
S11305F0EBE7C046D30400008D04000030B583B09F
S11306000400164B9847002816D1A378012B15D067
S113061023000122694606310020114DA847002815
S113062016D16B4606331B78D12B14D123702E338D
S1130630E37020000B4B984703B030BD2300012228
S1130640694607317F30064DA8470028F4D1DFE71B
S113065003204042F0E703204042EDE7610400003C
S11306608D0400007105000030B583B0041E00D174
S113067085E0436A002B00D184E000226B469A7126
S113068003791A00103A022A00D981E0027A9A42C8
S11306904FD000226B46DA710300013269460631FD
S11306A040203D4DA847051E14D12379122B16D0A6
S11306B06B4606331B785AB2002A28DB211D23001F
S11306C001227E20354DA8470500237A102B2CD01B
S11306D023792372002D2CD0280003B030BD6B4643
S11306E0991D0A787F231A40FF3B13430B702300A4
S11306F001224020294DA847051EEBD123000222E8
S1130700694607315820254DA84705000AE06A4686
S1130710911D7F2213400B7023007E3A40201F4D11
S1130720A8470500002DD7D1C8E70520636A98477C
S1130730CEE7237B1A00143A012A01D9172B24D1BE
S1130740227C00259A42C7D021000C3123000122CB
S11307507E20124DA8470500237C142B04D0172BB0
S113076006D0237B2374B7E75120636A9847F8E7E0
S1130770237B152BF5D10A20636A9847F1E70125FD
S11307806D42A9E701256D42A6E704256D42A3E762
S113079004256D42A0E7C0468D040000D304000088
S11307A030B583B0041E00D1CBE0436A002B00D1E6
S11307B0CAE001A900230B80030002224020654DFA
S11307C0A847002801D003B030BD62790F2A00D9B0
S11307D0A8E0637A934206D001A803780F218B43E3
S11307E00A4013430370E379022B00D99AE0E27ABA
S11307F09A4204D001AA137870218B431370A37911
S1130800042040420C2BDED8A27A9A4206D001A8DA
S113081042780F218A430B40134343702300012283
S113082001A940204C4DA8470028CCD163796372BC
S1130830E379E3720120636A984723000122694641
S113084005314120444DA8470028BCD1A379A372A7
S113085001A900230B802300022242303D4DA8470A
S11308600028B0D1627B0D2A5FD8637C934206D006
S113087001A803780F218B430A4013430370E37BE1
S1130880022B52D801A91B01302213400A783020D0
S1130890824313430B70A37B042B58D8A27C9A4247
S11308A006D008004A7807218A430B40134343705B
S11308B02300012201A94220274DA847002800D087
S11308C081E7637B6374E37BE3740120636A984785
S11308D0230001226946053143201F4DA847002803
S11308E000D070E7A37BA37420001C4B984700281A
S11308F000D068E701AD00232B70230001222900FA
S11309000230144CA0472B78DB061B0F012B0FD0B1
S1130910022B10D0032B11D0072B00D053E7092052
S1130920404250E7042040424DE7042040424AE759
S11309300620404247E70720404244E7082040425F
S113094041E7012040423EE7012040423BE70420CA
S1130950404238E78D040000D3040000690600001B
S1130960F0B585B00F0016001D004407E40F032303
S11309701840002C00D00324002D00D1E0E0022810
S11309803ED0032800D18FE0012803D00520404247
S113099005B0F0BD002F00D1D5E009220021684642
S11309A06F4B9847A21D2B00694612206D4DA84736
S11309B0002822D16B465A7812021B7813433B80DD
S11309C06B46DA7812029B7813437B806B465A7924
S11309D012021B791343BB80032C02D00023BB609B
S11309E0D6E76B461B7A1B046A46D279120213437C
S11309F06A4692791343BB60CAE702204042C7E7C4
S1130A00002E00D1A2E00F2200216846544B9847E3
S1130A10002C1CD12B00062269460C20514CA04707
S1130A2000283BD16B465A7812021B78134333805B
S1130A306B46DA7812029B78134373806B465A79BB
S1130A4012021B791343B3800023B360A0E7220092
S1130A500C322B0069460C20424CA047002820D1C0
S1130A606B465A7812021B78134333806B46DA784C
S1130A7012029B78134373806B465A7912021B79D6
S1130A801343B3806B469B7B1B046A46527B120262
S1130A9013436A46127B1343B36079E70220404252
S1130AA076E70220404273E7002E52D0002F53D045
S1130AB00F22002168462A4B984722000C322B0053
S1130AC069460C20274DA847002836D16B465A7832
S1130AD012021B78134333806B46DA7812029B7838
S1130AE0134373806B465A7912021B791343B38004
S1130AF06B46DA7912029B7913433B806B465A7A30
S1130B0012021B7A13437B806B46DA7A12029B7AB9
S1130B101343BB80032C03D00023BB60B36037E7CF
S1130B206B469B7B1B046A46527B120213436A4644
S1130B30127B1343BB60B3602AE70220404227E7DD
S1130B400120404224E70120404221E701204042A5
S1130B501EE7012040421BE70120404218E7C0463F
S1130B604D2B00008D0400000B4BC9201A5C0221A0
S1130B700A431A5485381A5C0A431A5404301A5C1E
S1130B800A431A548021890084229950743A5A6085
S1130B90F0325A607047C046004400410100134AD5
S1130BA0A023D3589B05DB0F126AD20600D502336B
S1130BB00E4A126A0020D20504D5002903D15842F6
S1130BC04341D8B27047012906D0022909D0033B1A
S1130BD058424341D8B2F5E7013B58424341D8B2A9
S1130BE0F0E7023B58424341D8B2EBE700440041EE
S1130BF0044A138802210B431380D37BDB09FCD105
S1130C007047C046002C0042044A138802218B43DB
S1130C101380D37BDB09FCD17047C046002C004213
S1130C2010B51F4A116A80231B010B4313621D4B2D
S1130C3080229A608022D2019A601B4A1B4B5A8000
S1130C401A0053785BB2002BFBDB194B9847194A07
S1130C50138801210B4313801388DB07FCD4D37B57
S1130C60DB09F9D1134B1A880C218A431A801A889C
S1130C7054318A4320210A431A8096221A835A89BE
S1130C8007208243022002435A815A890A435A8127
S1130C9001225A738022D202074B1A6010BDC0464B
S1130CA000040040004400411B400000000C0040D0
S1130CB0090C0000002C004200E100E0014B187810
S1130CC0C0B270475D04002072B6024B187062B661
S1130CD07047C0465D04002010B50D4B9B7BDB07BD
S1130CE000D410BD01220A4B9A737F32094B9A61DA
S1130CF0094B9847002804D0064B8022D2019A6100
S1130D005A618022034B5A610120044B9847E8E75B
S1130D10002C00420044004121220000C90C0000C4
S1130D20FEE70000F8B52A4A2A4B9A4211D01A006D
S1130D30294B9A420DD2294A03339B1A9B0801334B
S1130D409B000022234822498C58845004329A4242
S1130D50FAD1234A234B9A420AD2D34321495B183E
S1130D6003218B4304339B18002102C29342FCD11C
S1130D701D4AFF211D4B8B439360FD3990235B007B
S1130D801B4AD1501B4AD3780325AB430224234387
S1130D90D370D3780C27BB4308263343D370164B48
S1130DA0987B30229043202210439873997BB94357
S1130DB0314399739A7BAA4322439A730F4A536827
S1130DC080210B4353600E4B98470E4B9847FEE728
S1130DD0903A0000000000203404002004000020A9
S1130DE0340400202406002000ED00E00000000090
S1130DF000700041005000410048004100400041A3
S1130E00812A00005D120000014A024B1A607047FB
S1130E1040420F00000000200B4A136A02210B43DA
S1130E2013620A4A0A4B5A801A0053785BB2002BA9
S1130E30FBDB084B1A7801210A431A7089225200FD
S1130E401A81054A5A6070470004004007400000B8
S1130E50000C00400004004200002506044B9B697E
S1130E60DB0503D580225200014B9A617047C046CE
S1130E7000040042F0B53B4B8020000498605722E8
S1130E80995C0224214399549861995C0420844616
S1130E90604601439954995C0127394399543B2096
S1130EA01A5C0F2111402022114319548021C903D7
S1130EB0996056229E5C26439E5499619D5C6146CE
S1130EC00D439D54995C394399541A5C0F218A430C
S1130ED022431A54244A136A11310B431362234ADE
S1130EE0234B5A80234A13681E398B431360D369FA
S1130EF0002BFCD11F4A51680133FF330B4353606D
S1130F00D369002BFCD1E8221A4BDA601A00D369AA
S1130F10002BFCD1174A13681C218B4308390B435F
S1130F201360D369002BFCD1124A1168C0239B03C0
S1130F300B431360D369002BFCD10E4A13680221C2
S1130F400B431360D369002BFCD10A4A538B102145
S1130F500B435383D369002BFCD180225201064BEF
S1130F601A60F0BD00440041000400401740000036
S1130F70000C00400014004200E100E0F8B5070056
S1130F80074C8325257607480026067042700430F6
S1130F90054B9847054B1E71A5756762F8BDC046A1
S1130FA00014004260040020C92A000060050020EB
S1130FB070B5084D83262E76074C6171022121718C
S1130FC00021A171E071DBB223726172E260AE753F
S1130FD0686270BD001400426005002030B5434BC8
S1130FE01B7EDB070CD5414B5B8B5B072CD4404B42
S1130FF01B79002B2FD0022B42D001223B4B1A76B7
S11310003A4B1B7E9B071BD5394B5A7AD2B21B7ABB
S1131010013B9A424DDA35492823CC5C344A537A51
S11310203448C454D568537ADBB2581CC0B25072E9
S1131030EC544B68304A13404B6002222B4B1A7617
S113104080222A4B1A7630BD284A5168C0239B025D
S11310500B435360F7E7294B1A785B78934208D91E
S1131060264B511C19709A18117928231F4AD15400
S1131070C3E71E4A5168C0239B020B435360BCE77D
S11310801B4B9B79002B07D1194B58792822174900
S11310908854273A9A71B0E7144B5A6816490A40A3
S11310A05A601349CA79012002435A6201230B7121
S11310B0A3E70E4B59688022D2020A435A6059684A
S11310C0C02292020A435A6028229C5C08494A7A48
S11310D008488454CD684A7AD2B2501CC0B24872CF
S11310E0AC545A8B10210A435A83A6E700140042D9
S11310F060050020C4050020FFFFFBFF6004002002
S1131100F0B5CE46474680B59446002A1ED0002648
S113111000257300C418228812094A55AF1CBFB2B7
S11311200233C3186A1C92B2914624882401A04653
S11311301C88240A424614434A468C540335ADB2F3
S11311401B88CB550236B6B2B445E2D80CBC9046E7
S11311509946F0BD04490B688022920213430B6048
S1131160024B1A607047C0460044004118440041D5
S113117010B5052807D88000104C20588746104821
S1131180C183828343830E480100203110220D4B1A
S1131190984710BD0A480183C2828382F3E7084856
S11311A041820282C381EEE7054881814281038145
S11311B0E9E70348C18082804380E4E7382D0000DA
S11311C0700500200111000010B50B4BD883188363
S11311D058829881D8809983D982198259819980BB
S11311E05A839A82DA811A815A8019002031102296
S11311F01800024B984710BD700500200111000033
S113120010B5104B98472423632801D8180010BD4B
S11312100C4B98470C4A01239042F7D8094B984746
S11312200A4B984205D9074B9847094A062390422E
S1131230ECD9044B98470749074B98472423434369
S1131240DBB2E3E765030000170C00009E07000013
S113125065080000FF0F00007D230000F0B5DE46A6
S113126057464E464546E0B58FB0DB4B9847DB4AC0
S1131270DB4B5360DB48036A1B021B0AC0210906CF
S11312800B4303620023936007331360D64B9847E4
S1131290D64B9847D64B9847D64B9847D64B98474A
S11312A0D64B9847D64B9847D64B9847D64B98473A
S11312B0D64B9847D64B9847D64B984700220021E7
S11312C00020D54B9847D54B98470023059300271A
S11312D0D34B99463E0000F0B4FED14B1B689B1BD8
S11312E0142B14D8CF4B9847002801D100F0A9FE45
S11312F00020CD4B9847CD4B98470400C84B9A7AB1
S1131300052A00D9A8E09300C94AD3589F46012072
S1131310C84B984700281AD10220C64B984700288A
S11313202FD10320C34B98470028DBD0BC4C266840
S1131330B84B984703232371002200210020B64BA9
S11313409847B64B98470020B74B9847CAE7B44C28
S11313502668B04B98470125257100220021002002
S1131360AD4B9847AD4B98470020AF4B98470023AF
S1131370E3802372B04B1D7002225A700023637203
S1131380CAE7A74C2668AD4B984702232371002275
S113139000210020A04B9847A04B98470020A24B67
S11313A09847BEE79E4BDB885B00A54A9B5A08938F
S11313B000230693A34B0793069A08990798964B24
S11313C09847964B9847964BDB881C19A4B2682320
S11313D0FF339C4245D8924BDC8000F032FE904BA8
S11313E0DA885200984B9B1850229B5A079300238B
S11313F00693944B0893DFE7894BDB885B00904AA4
S11314009B5A06938F4B089300230793D4E7844B8E
S1131410DA8852008C4B9B1850229B5A0893894BB4
S1131420069300230793C7E77D4BDB885B00844A60
S11314309B5A0793834B069300230893BCE7784B8E
S1131440DA885200804B9B1850229B5A0693002343
S113145008937C4B0793AFE7002306930893079305
S1131460AAE76F4B0022DA809B7A0133DBB2052BAB
S113147003D86B4A937200F0E4FD0022684B9A7221
S113148000F0DFFD00206B4B984700281AD10220A2
S1131490684B9847002825D10320664B98470028BD
S11314A05ED05F4C26685B4B984703232371002270
S11314B000210020584B9847584B984700205A4B1E
S11314C098474DE0564C2668524B984700272771A1
S11314D0A7720022002100204F4B98474F4B98479A
S11314E0E780D4E74E4C2668544B98470223237177
S11314F0002200210020484B9847484B9847002081
S1131500494B9847C8E7464BDB885B004C4A9B5ADB
S1131510069300230A93099308930793464C207873
S1131520069B089A0799494FB84760780A9B00229E
S11315300999B847394B9847394BD888584480B2F1
S11315406823FF33984200D9CAE0354BD880344B26
S11315501B79012B00D003E12B689B1B142B91D822
S1131560304B98470028F2D000202F4B98472F4B40
S1131570984783462A4B1A7A072ACFD89300344ACD
S1131580D3589F46264BDB885B002D4A9B5A079312
S113159000230A9309932B4B069300230893BDE77A
S11315A01F4BDA885200284B9B1850229B5A0693F3
S11315B000230A9309930893224B0793AEE7184B31
S11315C0DB885B001E4A9B5A089300230A93099305
S11315D006931C4B0793A1E7090E000010E000E0FE
S11315E07FBB000000ED00E055110000E122000087
S11315F0210C0000B9200000190E0000690B000046
S113160065020000750E0000810100006D230000DA
S1131610F10B0000A9030000C9110000F52100002E
S1131620A8050020BD0C0000C90C00000112000038
S1131630502D00009D0B000004000020CD0300008D
S1131640A02D0000FF0F00002030000071110000E9
S1131650682D0000CB4BDA885200CB4B9B185022EC
S11316609B5A079300230A9309930693C74B089345
S113167054E7C44BDB885B00C54A9B5A069300239E
S11316800A930993C14B08930023079346E7BD4B84
S1131690DB885B00BC4AD2185021525A0892BC4ADB
S11316A09B5A0A9300230993B84B0693002307938C
S11316B034E7B44BDB885900B34A52185021525ACC
S11316C00692012A09D05B00B14A9B5A0993AF4B99
S11316D00A9300230893079320E700220692F2E777
S11316E0A84B0022DA801B7A0133DBB2072B02D825
S11316F0A44A13722BE7A34B02221A72587A0528C4
S113170008D88300A34AD3589F46A34B02221A70D9
S113171003325A700130C0B20621A04B9847994B4E
S1131720597214E79C4B05221A70013A5A70F1E77A
S1131730994B04221A70013A5A70EBE7964B032234
S11317401A7002325A70E5E7934B05221A70043A74
S11317505A70DFE7904B01221A7001325A70D9E7B0
S1131760884FCEE100208E4B984700281BD10120E2
S11317708B4B9847002826D10320894B9847002893
S113178000D1C7E17F4C2668864B98470323237119
S1131790002200210020844B9847844B9847002066
S11317A0834B9847B6E1774C26687E4B98470025D3
S11317B02571A5720022002100207B4B98477B4BAA
S11317C09847E580D3E76F4C2668764B9847012508
S11317D02571002200210020734B9847734B9847D2
S11317E00020734B98470023E38023726A4B1D70DB
S11317F002225A7000236372BEE76E4B9847C317E8
S1131800C01858406C4B98421ADC6A4CA047C31766
S1131810C01858409B38FF384000684B1818038C98
S11318200C93A047C317C01858409B38FF3840009A
S1131830634B18185423C35A9B4600230D938CE121
S11318405C4B9847C317C01858405E4B98421CDC49
S1131850584CA047C317C01858405B4B9C46604483
S11318604000564B1818038C0D93A047C317C0189B
S11318705840554B9C4660444000514B1818542323
S1131880C35A0C9300239B4667E14A4B9847C317FE
S1131890C01858404D4B98421ADC464DA847474C57
S11318A0C217831853404A4A944663445B00E318C2
S11318B01B8C0D93A847C21783185340444A94467F
S11318C063445B00E418238C9B4600230C9344E19F
S11318D0384B9847C217831853403E4A9446634492
S11318E05B00364AD3181B8C0C93284B9B460D93F4
S11318F033E1394B9847C317C01858402E4B9842D0
S11319001ADC354CA047C317C01858409B38FF3821
S113191040002A4B1818038C0393A047C317C01820
S113192058409B38FF384000254B18185423C35A9D
S11319300B930023049327E1274B9847C317C01840
S11319405840204B984249DC234CA047C317C01889
S113195058401D4B9C4660444000184B1818038C9B
S11319600493A047C317C0185840174B9C466044C3
S11319704000134B18185423C35A039300230B93AA
S113198002E1C046A805002020300000FF0F00003F
S1131990A02D0000882D00000400002089240000F0
S11319A09D0B0000A9030000C9110000F5210000EF
S11319B0C90C000091030000330300002033000031
S11319C020360000CD040000CCFCFFFF67060000B9
S11319D032FBFFFF98F9FFFF79030000D74B9847CC
S11319E0C317C0185840D64B98421ADCD34DA847A9
S11319F0D44CC21783185340D34A944663445B00C3
S1131A00E3181B8C0493A847C21783185340CE4A8B
S1131A10944663445B00E418238C0B9300230393E4
S1131A20B2E0C64B9847C21783185340C74A94463E
S1131A3063445B00C34AD3181B8C0393C44B0B93BE
S1131A400493A1E0BD4B9847C317C018584080B217
S1131A50AEE0CD239B00984209D8181A4000B94B38
S1131A601818038C02931C0000230193ADE0B94BBA
S1131A7098420CD8181A4000B24B1B181B8C0293C6
S1131A80B54B18185423C35A019300249DE0CD2369
S1131A90DB0098420CD8181A4000AA4B1B181B8C68
S1131AA00193AD4B18185423C45A002302938CE0BD
S1131AB0AA4B181A4000A34B1818048C0023029355
S1131AC0019382E05B460D9A0C990420A44DA8472B
S1131AD005E05B460D9A0C990220A14DA847974B4F
S1131AE0984700287CDD0B9B049A039901209C4DA8
S1131AF0A8472300029A01990520994CA047994BC5
S1131B0098473B79022B76D14B461B689B1B142BC1
S1131B1000D927E6944B98470028F2D00020934B35
S1131B209847002200210020914B9847914B9847F9
S1131B30C317C01858409A23FF33984200DD5CE66F
S1131B408C4B9847C317C018584040007D4B181859
S1131B50038C9B4600230D930C93784B9847C31733
S1131B60C01858409A23FF33984200DDC1E6734BF6
S1131B709847C317C01858404000724B1818038C7C
S1131B800B930023049303937A4B984704006B4B05
S1131B909847E317E4185C40C317C01858408442C0
S1131BA000DC4FE7734B9847C317C018584080B206
S1131BB0CD235B00984200D94BE7181A4000614BD3
S1131BC01818038C0193624C02946A4B98470028BE
S1131BD000DA77E7674B9847002800DD79E77EE76E
S1131BE0564B9847002884DA0B9B049A03990320E8
S1131BF05B4DA8477DE754464546B2E100205E4B65
S1131C00984700281BD101205B4B9847002828D116
S1131C100220594B9847002800D1ACE1574F3E6849
S1131C20574B984702233B71002200210020504B60
S1131C3098474C4B984700204C4B98479BE14F4F9B
S1131C403E68504B9847002398463B71BB72002274
S1131C5000210020464B9847424B98474346FB805F
S1131C60D1E7464F3E68474B9847012398463B715E
S1131C700022002100203E4B98473A4B9847002011
S1131C803A4B98470023FB803B723F4B42461A7005
S1131C9002225A7000237B72BAE73C4B98473C4BB4
S1131CA098473C4B9A4698473B4B98463B49984744
S1131CB03B4F8A21C905B8473A4DA84704B23A4B6D
S1131CC09847D0473949C0478A21C905B847A8472A
S1131CD005B22A4B1B68059360E13549354BD3188F
S1131CE09BB28B4211D8E217A31853409B3BFF3B96
S1131CF05B00144AD218128C9046174AD318542207
S1131D009B5A9B46002304935CE12B4BD3182B492D
S1131D109BB28B4256D8E217A3185340284A9446E4
S1131D2063445B00074AD218128C04920A4AD318FF
S1131D3054229B5A984600239B4643E179030000B2
S1131D40670600002033000032FBFFFF98F9FFFF15
S1131D50FF0F0000CE04000020360000FF07000043
S1131D6071110000F5210000BD0C0000C90C000039
S1131D70C9110000910300009D0B0000A80500207C
S1131D80CD030000A903000004000020F9010000B5
S1131D904D020000A5290000952400000020804683
S1131DA025270000652900005902000000B07E4686
S1131DB06606000033030000CD0400009A09000009
S1131DC0CCFCFFFFA34B9C466244A34B92B29A42C5
S1131DD00ED8E217A3185340A04A944663445B000C
S1131DE09F4AD3181B8C04939B4600239846E9E032
S1131DF0E217A31853409B4A944663445B00984AF5
S1131E00D3181B8C9846984B9B460493DAE0974969
S1131E10974BD3189BB28B420FD8EA17AB18534099
S1131E209B3BFF3B5B008E4AD218128C9246914A30
S1131E30D31854229B5A0022D7E08F4BD3188F49D2
S1131E409BB28B4210D8EA17AB1853408C4A944685
S1131E5063445B00824AD218128C8649CB18542101
S1131E605B5A9A460023C0E07A4B9C4662447A4B04
S1131E7092B29A420DD8EA17AB185340774A944667
S1131E8063445B00764AD3181A8C130000218A46F7
S1131E90ABE0EA17AB185340724A944663445B00C4
S1131EA06F4AD3181B8C9A466F4B1A009DE0CD21C4
S1131EB089008F420BD80004000C081A4000684FB8
S1131EC03818018C0291039100210191A7E06D491A
S1131ED08F420FD80004000C081A4000604F3F18CE
S1131EE0398C0291634F38185427C15B019100214A
S1131EF0039194E0CD21C9008F4210D80004000C56
S1131F00081A4000564F3F18398C019159498C46A4
S1131F1060445421415A0391002102917FE000045E
S1131F20000C594F381A40004D4F3818018C03915A
S1131F3000210291019172E0002D76DA51460220CF
S1131F40524FB84771E05B46049A414601204F4F17
S1131F50B847039B029A019905204C4FB8474C4B54
S1131F6098474C4B1B79032B69D14A4B1B689B1B2D
S1131F70142B00D942E6484B98470028F1D00020A2
S1131F80464B9847002200210020454B9847414B7F
S1131F901B68059A9B1A022B00D97EE6A2B2130095
S1131FA09A33FF333F499BB28B4200D995E6E3173E
S1131FB0E2185A4052002A4B9B181B8C9B46002364
S1131FC004939846AAB213009A33FF3335499BB25F
S1131FD08B4200D91BE7EB17EA185A405200204BFA
S1131FE09B181B8C002200218A46E11767184F407A
S1131FF0E91768184840B84200DA380087B2CD21A2
S113200049008F4200D952E70004000C081A40002E
S1132010134F3818018C0191134903910291002D3B
S11320208ADD51460420194FB847002C8BDB90DD24
S11320305B46049A41460320144FB84789E7A246F9
S1132040A846144B1B79002B01D1FFF746F9114D1B
S1132050FFF77DFA67060000CE0C000032FBFFFF9D
S11320602033000098F9FFFFFF0F00006606000010
S11320703303000020360000CD0400009A0900005C
S1132080CCFCFFFFCE040000FF070000711100002C
S1132090F5210000A8050020BD0C0000C90C0000BB
S11320A0C911000032030000024A136801331360AF
S11320B07047C046A805002070B53B4BB520195C9D
S11320C00F26B143032529431954CA229C5C0121DC
S11320D00C439C5436241A5DB2432A431A551634D1
S11320E01A5D0A431A551C5C0F22224030242243F5
S11320F01A5416301A5C0A431A542C4A13680221E3
S11321008B431360D3699B07FCD4294A136A40218B
S11321100B431362274A284B5A801A0053785BB248
S1132120002BFBDB214A136801210B431360136866
S1132130DB07FCD4D369DB07F9D41C4B1A681F49AD
S11321400A401A601A681E491140802252020A434A
S11321501A601A681B490A401A601A681A490A4028
S11321601A601A6819490A401A601A681C218A43BD
S113217010390A431A605968802292020A435A604D
S11321801A00D3695B07FCD4084B0B221A731A6834
S113219002210A431A601A00D3699B07FCD48022E7
S11321A092010B4B1A6070BD0044004100180042BC
S11321B00004004018400000000C0040FFFFCFFF67
S11321C0FFFFFCFFFFFFFFBFFFFFFFDFFFFFFFEF8E
S11321D000E100E072B6064B1B78002B05D101220A
S11321E0034B1A7062B60120704762B60020FBE709
S11321F0B305002010B5064B9847002807D00122EC
S1132200044B1A70044B1978044B99629A7510BDEB
S1132210D52100000600002090050020001800428F
S1132220034B5878C0B2002801D000225A7070477E
S1132230B3050020164B1B7EDB0711D5154B1B780D
S1132240DBB2172B11D813490B78DBB25A1CD2B26C
S11322500A70114AD25C0E4B9A6201220C4B1A7618
S11322600B4B1B7E9B0706D47047094B01221A7542
S113227001329A75F1E7064B02221A761A75013A71
S1132280044B1A70054B5A7000221A70ECE7C046D2
S1132290001800420600002090050020B30500202D
S11322A00E4BD866C0011A6F000A120E12060243C2
S11322B01A675A6F120E120602435A679A6F120E69
S11322C0120602439A67DA6F120E12061043D86799
S11322D01A0093681B03FCD47047C04600200042D8
S11322E010B51B4A116A80235B000B431362194A21
S11322F0194B5A801A0053785BB2002BFBDB174A48
S1132300136802218B43136015494F200B5C012491
S113231023430B5418380C5C0F23234050242343CD
S11323200B54D36B07218B4306390B43D363936858
S11323305B06FCD4C8200B4B9847084B1A680A4923
S11323400A401A60196A802252040A431A6210BDB4
S1132350000400401A400000000C0040002000422D
S113236000440041A1220000FFF8FFFF024A136865
S113237002210B43136070470020004200224308EF
S11323808B4274D303098B425FD3030A8B4244D339
S1132390030B8B4228D3030C8B420DD3FF2209027B
S11323A012BA030C8B4202D31212090265D0030B3A
S11323B08B4219D300E0090AC30B8B4201D3CB0330
S11323C0C01A5241830B8B4201D38B03C01A524172
S11323D0430B8B4201D34B03C01A5241030B8B4274
S11323E001D30B03C01A5241C30A8B4201D3CB025F
S11323F0C01A5241830A8B4201D38B02C01A524144
S1132400430A8B4201D34B02C01A5241030A8B4246
S113241001D30B02C01A5241CDD2C3098B4201D35E
S1132420CB01C01A524183098B4201D38B01C01ADC
S1132430524143098B4201D34B01C01A5241030953
S11324408B4201D30B01C01A5241C3088B4201D302
S1132450CB00C01A524183088B4201D38B00C01AAF
S1132460524143088B4201D34B00C01A5241411AD6
S113247000D20146524110467047FFE701B50020E3
S113248000F006F802BDC0460029F7D076E7704791
S11324907047C046F0B557464E46DE464546E0B561
S11324A044024300C60F83B00F1C640A1B0EB246DD
S11324B053D0FF2B27D08022E400D20414437F2280
S11324C0524290469844002399469B467D027800E8
S11324D0FB0F6D0A000E009324D0FF2846D0802302
S11324E00021ED00DB041D437F384746381A4F4670
S11324F00F43BF00B9463300009A874F53404A4602
S1132500BA5801939746002C4ED108239946F733C5
S11325109846FD3B9B467D027800FB0F6D0A000E3A
S11325200093DAD1002D26D1002001213300009A36
S11325307A4F53404246101A4A460A439200BA5808
S11325401D009746009B2C009A468B465B46022B47
S113255031D15346FF21002438E0002C17D1042345
S113256099460023984601339B46AFE7FF20002D90
S11325700BD10221DAE7280000F064FA431F9D40E2
S113258076235B42181A0021AFE70321ADE7200050
S113259000F058FA431F9C4076235B421B1A98466E
S11325A0002399469B4691E70C239946F3339846BA
S11325B0FC3B9B468AE7032B00D1A5E05546012B43
S11325C000D081E00123002100242B406402C905CE
S11325D0600ADB070843184303B03CBC90469946A5
S11325E0A246AB46F0BD80240023E403FF21EDE7BF
S11325F0FF210024EAE70123591A1B2966DD019A09
S1132600134000210024E1E78023DB031C4238D07F
S11326101D4251D01C436402640A3300FF21D5E7F4
S113262063016C01A3423BD21B2600210138012522
S11326301F0049005B00002F01DB9C4201D81B1BDB
S11326402943013E002EF3D11C00631E9C410C4320
S113265001007F310029CEDD630704D00F2323401E
S1132660042B00D00434230103D501002C4B80310A
S11326701C40FE290DDD0123019AFF211340002493
S1132680A4E78023DB031C436402640A3300FF21B4
S11326909CE70123019AA401640AC9B2134095E797
S11326A01B1B1A260121C2E7009B8B469A46002475
S11326B04CE76302E5D500258024E4032C4364023F
S11326C0640A009BFF2181E70195C1E723002020D4
S11326D0CB40411A8C40611E8C411C43630704D0DB
S11326E00F232340042B00D00434630105D50123B8
S11326F0019A01211340002468E70123019AA401EF
S1132700640A1340002161E78023DB031C43640255
S1132710640A5346FF2159E7A8390000E83900004C
S1132720FFFFFFF7F8B557464E464546DE46E0B58F
S11327304702460088467F0A360EC40F002E47D053
S1132740FF2E24D0FB008027FF041F43002399465B
S11327509A467F3E43465D025800DB0F6D0A000E29
S1132760984643D0FF283BD0EB0080250022ED049F
S11327701D437F383618731C41469B464B466140C7
S113278013430F2B64D875489B00C3589F46002FF2
S113279042D108239946063BFF269A46DAE741468A
S11327A0022A28D0032A00D1CEE0012A00D0ACE0CE
S11327B0114000200022CCB24002D205400AE407B6
S11327C0104320433CBC90469946A246AB46F8BD14
S11327D0002F15D104239946033B00269A46B9E7F6
S11327E0FF200222002DC5D00322C3E7002D19D1FA
S11327F000200122BEE70124FF220C400020DBE779
S1132800380000F01FF97626431F9F4000237642CC
S1132810361A99469A469DE70C239946093BFF26AA
S11328209A4697E7280000F00DF9431F9D40762350
S11328305B42181A00229DE780200024C003FF2277
S1132840BAE73D005246ABE73D0021005246A7E7F8
S11328503B0C9C462A04120C2B0C14006046654663
S11328603F043F0C7C4342435D437B43270C9B184E
S1132870FF18BA4203D980235B029C4665442404B2
S11328803A04240C121993015C1EA3413F0C920ECE
S11328907D191A43AD0115432B0104D501235E466E
S11328A06A081D40154332007F32002A25DD6B077C
S11328B004D00F232B40042B00D004352B0103D567
S11328C03200274B80321D40FE2A94DC0124A801EB
S11328D0400AD2B20C406FE78020C003074207D001
S11328E0054205D128434002400A4446FF2263E7DB
S11328F038434002400AFF225EE70124A31A1B2B3F
S113290005DD0C400022002056E75E46CBE72A0096
S11329102020DA40C31A9D402B005D1EAB411343B7
S11329205A0704D00F221A40042A00D004335A0153
S113293004D5012401220C4000203DE701249B0121
S1132940580A0C40002237E780200124C0032843A2
S11329504002400A0C40FF222EE7C046283A0000FD
S1132960FFFFFFF741024300C20F490A1B0E00207C
S11329707E2B0DDD9D2B0CDC802000040143952B68
S11329800ADC9620C31AD9404842002A00D1080024
S11329907047034BD018FBE7963B9940F4E7C046D9
S11329A0FFFFFF7F70B5002830D0C317C4185C4008
S11329B0C50F200000F046F89E231B1A962B0DDC51
S11329C09622D21A94402A006402640ADBB264029A
S11329D0DB05600AD2071843104370BD992B19DC3C
S11329E09922D21A002A29DD94402200144C144062
S11329F0510704D00F210A40042A00D00434620194
S1132A0013D4A401640ADBB22A00E0E70022002305
S1132A100024DCE705222100121AD140B922D21A7F
S1132A209440621E94410C43DAE7054B2A001C4093
S1132A309F23A4011B1A640ADBB2C8E72200D5E76E
S1132A40FFFFFFFB1C2101231B04984201D3000C50
S1132A5010391B0A984201D3000A08391B0998420D
S1132A6001D30009043902A2105C40187047C04623
S1132A700403020201010101000000000000000043
S1132A8070B50D4E0D4D0024AD1BAD1005D0A30047
S1132A90F35801349847A542F9D100F0E7FF084EF6
S1132AA0084D0024AD1BAD1005D0A300F35801342C
S1132AB09847A542F9D170BD783A0000783A0000F1
S1132AC0783A0000803A0000F0B505000F2A2FD9AB
S1132AD00B0003439B0734D116000C000300103E87
S1132AE0350901352D01451927681F6067685F6046
S1132AF0A7689F60E7681034DF6010339D42F3D10C
S1132B000F239E431036851989191340032B1AD9B4
S1132B101E1F0023B4080134A400CF58EF5004331F
S1132B20A342FAD10324A643331D2240C918ED1849
S1132B30002A05D00023CC5CEC5401339342FAD133
S1132B40F0BD0500F6E71A00F2E7C046F0B58307CA
S1132B5043D0541E002A3FD0CEB20200032502E027
S1132B601A00013C38D3531C16702B42F8D1032CA5
S1132B702AD9FF220A40150215432A0415430F2CB3
S1132B8014D927001A00103F3E09013636019E1958
S1132B90156055609560D56010329642F8D10F22C9
S1132BA097431037DB191440032C0DD91A00271F43
S1132BB0BE080136B6009E1920C2B242FCD10322DF
S1132BC097430437DB191440002C05D0C9B21C19F3
S1132BD0197001339C42FBD1F0BD14000300C6E719
S1132BE0034B10B5002B02D0024800F005F810BDCD
S1132BF000000000092C000010B501000023002291
S1132C00002000F01FF810BD70B5094B094CE41A00
S1132C10A41009D0084AA518AD00ED182B68013C92
S1132C209847043D002CF9D100F02AFF70BDC0463E
S1132C308C3A0000903A0000FFFFFF3F7047C04607
S1132C407047C046F0B54E464546DE465746E0B5A9
S1132C50364D83B00600286898460F009146FFF76A
S1132C60EDFF334B1C68A4235B00E058002852D0CE
S1132C7043681F2B13DC5A1C0192002E28D1019AA1
S1132C8002339B0042601F502868FFF7D9FF0020E1
S1132C9003B03CBC90469946A246AB46F0BD254BDA
S1132CA0002B3DD0C820400000E000BF002837D0F2
S1132CB0A42200235200A15843600160A050403276
S1132CC0835004328350013301930023002ED6D065
S1132CD09A00924682444A46882154466250C4224D
S1132CE05200914681444A468739994012688B467E
S1132CF00A4394464A466146116084224146520082
S1132D00A150022EBBD102005C468D32FF32116805
S1132D100C431460B3E720004D30FF30E050A7E7C8
S1132D202868FFF78DFF01204042B1E730040020FE
S1132D30683A000000000000861100007E110000C7
S1132D40941100009E110000A8110000B2110000AF
S1132D50A4130000DE130000F81300000E1400009A
S1132D60281400003E14000006150000841500001D
S1132D70A0150000BE1500005416000072160000D5
S1132D808E160000B21600000A1700002417000077
S1132D90301700003C1700004817000054170000CB
S1132DA0000000000000000000000000000000001F
S1132DB0000000000000000000000000000000000F
S1132DC000000000000000000000000000000000FF
S1132DD000000000000000000100010001000100EB
S1132DE001000100010001000100010002000200D5
S1132DF002000200020002000300030003000300BB
S1132E000400040004000400050005000500060099
S1132E100600070007000700080008000900090071
S1132E200A000A000B000B000C000D000D000E0040
S1132E300F00100010001100120013001400140001
S1132E40150016001700180019001A001C001D00B8
S1132E501E001F002000220023002400260027005B
S1132E6028002A002C002D002F00300032003400EE
S1132E703600370039003B003D003F00410043006D
S1132E80450048004A004C004F00510053005600D2
S1132E9058005B005E0060006300660069006C001F
S1132EA06F007200750078007B007F00820086004E
S1132EB089008D009000940098009B009F00A3005F
S1132EC0A700AB00B000B400B800BD00C100C6004C
S1132ED0CA00CF00D400D900DD00E300E800ED0013
S1132EE0F200F700FD00020108010E0113011901AF
S1132EF01F0125012B01310138013E0145014B0120
S1132F00520159015F0166016D0175017C01830164
S1132F108B0192019A01A201AA01B201BA01C20174
S1132F20CA01D301DB01E401EC01F501FE01070252
S1132F3010021A0223022D02360240024A025402EF
S1132F405E02690273027D02880293029E02A90254
S1132F50B402BF02CB02D602E202EE02F902060379
S1132F6012031E032B033703440351035E036B0355
S1132F70780386039403A103AF03BD03CB03DA03F1
S1132F80E803F70306041504240433044304520439
S1132F906204720482049204A304B304C404D50436
S1132FA0E604F70409051A052C053E0550056205DB
S1132FB0740587059A05AD05C005D305E705FA052F
S1132FC00E06220637064B066006740689069E0620
S1132FD0B406C906DF06F5060B07210738074F07B5
S1132FE066077D079407AC07C307DB07F3070C08E4
S1132FF024083D0856086F088808A208BC08D608AB
S1133000F0080B09250940095B0977099209AE0903
S1133010CA09E609030A1F0A3C0A590A770A940AEC
S1133020B20AD00AEE0A0D0B2C0B4B0B6A0B8A0B5F
S1133030A90BC90BE90B0A0C2B0C4C0C6D0C8E0C58
S1133040B00CD20CF40C170D390D5C0D800DA30DD2
S1133050C70DEB0D0F0E340E580E7D0EA30EC80EC9
S1133060EE0E140F3B0F620F880FB00FD70FFF0F38
S1133070FF0FD70FB00F880F620F3B0F140FEE0E28
S1133080C80EA30E7D0E580E340E0F0EEB0DC70D99
S1133090A30D800D5C0D390D170DF40CD20CB00C82
S11330A08E0C6D0C4C0C2B0C0A0CE90BC90BA90BE8
S11330B08A0B6A0B4B0B2C0B0D0BEE0AD00AB20ACF
S11330C0940A770A590A3C0A1F0A030AE609CA093C
S11330D0AE09920977095B09400925090B09F00833
S11330E0D608BC08A20888086F0856083D082408BA
S11330F00C08F307DB07C307AC0794077D076607D3
S11331004F07380721070B07F506DF06C906B40683
S11331109E068906740660064B06370622060E06CE
S1133120FA05E705D305C005AD059A0587057405BD
S1133130620550053E052C051A050905F704E60449
S1133140D504C404B304A304920482047204620484
S1133150520443043304240415040604F703E80367
S1133160DA03CB03BD03AF03A103940386037803FF
S11331706B035E035103440337032B031E03120343
S11331800603F902EE02E202D602CB02BF02B40247
S1133190A9029E02930288027D02730269025E0202
S11331A054024A02400236022D0223021A0210027D
S11331B00702FE01F501EC01E401DB01D301CA01C0
S11331C0C201BA01B201AA01A2019A0192018B01C2
S11331D083017C0175016D0166015F015901520192
S11331E04B0145013E01380131012B0125011F012D
S11331F0190113010E0108010201FD00F700F2009C
S1133200ED00E800E300DD00D900D400CF00CA00DF
S1133210C600C100BD00B800B400B000AB00A700F8
S1133220A3009F009B009800940090008D008900EB
S1133230860082007F007B007800750072006F00BA
S11332406C0069006600630060005E005B0058006B
S11332505600530051004F004C004A0048004500FE
S1133260430041003F003D003B0039003700360079
S11332703400320030002F002D002C002A002800DA
S11332802700260024002300220020001F001E0027
S11332901D001C001A001900180017001600150064
S11332A014001400130012001100100010000F008D
S11332B00E000D000D000C000B000B000A000A00AC
S11332C009000900080008000700070007000600BD
S11332D006000500050005000400040004000400C5
S11332E003000300030003000200020002000200C6
S11332F002000200010001000100010001000100C0
S113330001000100010001000100010001000100B1
S113331000000000000000000000000000000000A9
S11333200000000000000000000000000000000099
S11333300000000000000000000000000000000089
S11333400000000000000000000000000000000079
S11333500000000000000000000000000000000069
S11333600000000000000000000001000100010056
S1133370010001000100010001000100020002003F
S11333800200020002000300030003000300040023
S11333900400040004000500050005000600060002
S11333A007000700070008000800090009000A00D8
S11333B00B000B000C000C000D000E000E000F00A3
S11333C01000100011001200130014001500150065
S11333D016001700180019001A001B001C001E001C
S11333E01F002000210022002300250026002700C2
S11333F029002A002C002D002F0030003200330059
S11334003500370038003A003C003E0040004100DF
S113341043004500470049004B004E005000520055
S11334205400560059005B005D00600062006500B6
S113343067006A006D006F007200750078007B0001
S11334407E008000830087008A008D009000930036
S113345097009A009D00A100A400A800AB00AF0053
S1133460B300B600BA00BE00C200C600CA00CE0057
S1133470D200D600DB00DF00E300E800EC00F1003E
S1133480F500FA00FE00030108010D011201170105
S11334901C01210126012B01310136013B014101AF
S11334A046014C01520157015D01630169016F013D
S11334B075017B01810187018E0194019B01A101AA
S11334C0A801AE01B501BC01C301CA01D101D801F3
S11334D0DF01E601ED01F501FC0104020B02130218
S11334E01B0222022A0232023A0242024B02530215
S11334F05B0264026C0275027D0286028F029802EE
S1133500A102AA02B302BC02C502CF02D802E2029F
S1133510EB02F502FF02090313031D032703310322
S11335203B03460350035B03650370037B0386037D
S113353091039C03A703B203BE03C903D503E003AD
S1133540EC03F803040410041C04280434044104A8
S11335504D045A046604730480048D049A04A70479
S1133560B404C204CF04DD04EA04F8040605140517
S1133570220530053E054D055B056A05780587057E
S11335809605A505B405C305D205E205F1050106B6
S113359010062006300640065006600671068106B5
S11335A09206A206B306C406D506E606F706080781
S11335B01A072B073D074F0761077307850797070E
S11335C0A907BC07CE07E107F40707081A082D0866
S11335D04008530867087B088E08A208B608CA0882
S11335E0DE08F30807091C09300945095A096F095F
S11335F084099A09AF09C509DA09F009060A1C0AFF
S1133600320A490A5F0A760A8C0AA30ABA0AD10A5C
S1133610E80A000B170B2F0B470B5E0B760B8F0B77
S1133620A70BBF0BD80BF00B090C220C3B0C540C52
S11336306E0C870CA10CBA0CD40CEE0C080D230DE7
S11336403D0D580D720D8D0DA80DC30DDE0DFA0D37
S1133650150E310E4D0E690E850EA10EBD0EDA0E3D
S1133660F70E130F300F4D0F6B0F880FA60FC30FFC
S1133670E10FFF0FFF0FE10FC30FA60F880F6B0FB2
S11336804D0F300F130FF70EDA0EBD0EA10E850E7F
S1133690690E4D0E310E150EFA0DDE0DC30DA80D7B
S11336A08D0D720D580D3D0D230D080DEE0CD40C2F
S11336B0BA0CA10C870C6E0C540C3B0C220C090C9C
S11336C0F00BD80BBF0BA70B8F0B760B5E0B470BC6
S11336D02F0B170B000BE80AD10ABA0AA30A8C0AAB
S11336E0760A5F0A490A320A1C0A060AF009DA094C
S11336F0C509AF099A0984096F095A0945093009AE
S11337001C090709F308DE08CA08B608A2088E08CF
S11337107B086708530840082D081A080708F407AF
S1133720E107CE07BC07A907970785077307610759
S11337304F073D072B071A070807F706E606D506C5
S1133740C406B306A20692068106710660065006F8
S113375040063006200610060106F105E205D205F2
S1133760C305B405A5059605870578056A055B05B7
S11337704D053E053005220514050605F804EA0446
S1133780DD04CF04C204B404A7049A048D048004A5
S1133790730466045A044D044104340428041C04CC
S11337A010040404F803EC03E003D503C903BE03C7
S11337B0B203A7039C03910386037B037003650391
S11337C05B03500346033B03310327031D03130329
S11337D00903FF02F502EB02E202D802CF02C5029E
S11337E0BC02B302AA02A10298028F0286027D02E1
S11337F075026C0264025B0253024B0242023A02FB
S113380032022A0222021B0213020B020402FC01EE
S1133810F501ED01E601DF01D801D101CA01C301BF
S1133820BC01B501AE01A801A1019B0194018E0167
S1133830870181017B0175016F01690163015D01EC
S1133840570152014C01460141013B01360131014E
S11338502B01260121011C01170112010D01080190
S11338600301FE00FA00F500F100EC00E800E300BB
S1133870DF00DB00D600D200CE00CA00C600C200C2
S1133880BE00BA00B600B300AF00AB00A800A400AD
S1133890A1009D009A009700930090008D008A007B
S11338A08700830080007E007B0078007500720032
S11338B06F006D006A0067006500620060005D00D3
S11338C05B00590056005400520050004E004B005B
S11338D04900470045004300410040003E003C00D1
S11338E03A003800370035003300320030002F0032
S11338F02D002C002A002900270026002500230083
S11339002200210020001F001E001C001B001A00C2
S113391019001800170016001500150014001300F4
S113392012001100100010000F000E000E000D0018
S11339300C000C000B000B000A0009000900080031
S11339400800070007000700060006000500050040
S11339500500040004000400040003000300030045
S11339600300020002000200020002000100010044
S1133970010001000100010001000100010000003C
S11339800000000000000000000000000000000033
S11339900000000000000000000000000000000023
S11339A0000000000000000020260000F0250000B8
S11339B0022600004425000002260000E62500003F
S11339C00226000044250000F0250000F025000038
S11339D0E6250000442500004C2500004C2500008D
S11339E04C25000008260000F0250000F02500000A
S11339F0C4250000A8260000C4250000E625000018
S1133A00C4250000A8260000F0250000F0250000D1
S1133A10E6250000A82600004C2500004C250000E7
S1133A204C250000B226000050280000A02700000A
S1133A30A02700009E270000422800004228000022
S1133A40382800009E270000422800003828000083
S1133A50422800009E270000482800004828000053
S1133A6048280000D828000008000020F8B5C04607
S1133A70F8BC08BC9E467047E12B0000DD00000046
S1133A80F8B5C046F8BC08BC9E467047B5000000B7
S1133A9040420F000102010000000000F402002077
S1133AA05C030020C40300200000000000000000AC
S1133AB00000000000000000000000000000000002
S1133AC000000000000000000000000000000000F2
S1133AD000000000000000000000000000000000E2
S1133AE000000000000000000000000000000000D2
S1133AF000000000000000000000000000000000C2
S1133B0000000000000000000000000000000000B1
S1133B1000000000000000000000000000000000A1
S1133B200000000000000000000000000000000091
S1133B300000000000000000000000000000000081
S1133B4001000000000000000E33CDAB34126DE61E
S1133B50ECDE05000B000000000000000000000087
S1133B600000000000000000000000000000000051
S1133B700000000000000000000000000000000041
S1133B800000000000000000000000000000000031
S1133B900000000000000000000000000000000021
S1073EC000060020D4
S9030000FC
