:10000000B0240020650200006102000061020000CF
:1000100000000000000000000000000000000000E0
:10002000000000000000000000000000610200006D
:100030000000000000000000610200000507000051
:100040006102000061020000610200006102000024
:100050006102000061020000610200006102000014
:100060006102000061020000610200006102000004
:1000700061020000550800006102000061020000FA
:100080006102000061020000E50100006102000061
:10009000610200000000000000000000610200009A
:1000A00061020000610200006102000061020000C4
:1000B0000000000010B5064C2378002B07D1054B3B
:1000C000002B02D0044800E000BF0123237010BDC4
:1000D000340400200000000054120000084B10B54A
:1000E000002B03D00749084800E000BF0748036819
:1000F000002B00D110BD064B002BFBD09847F9E731
:1001000000000000380400205412000054120000C7
:1001100000000000034B18751A00D37BDB09FCD1EB
:100120007047C046002C0042044A138802210B434A
:100130001380D37BDB09FCD17047C046002C004202
:10014000044A138802218B431380D37BDB09FCD143
:100150007047C046002C004210B51A4A116A80232D
:100160001B010B431362184B80229A608022D2013C
:100170009A60164A164B5A801A0053785BB2002BCD
:10018000FBDB144B9847144B01225A738021C902A0
:10019000124A11601A880C218A4304210A431A80EA
:1001A0001A8860218A431A805A8959398A43022160
:1001B0000A435A815A8920210A435A81FF20084B59
:1001C000984710BD00040040004400411B4000005F
:1001D000000C004041010000002C004200E100E062
:1001E0001501000000B585B0194B9B7BDB0729D5B5
:1001F0000122174B9A737F32164B9A614B2301935E
:10020000019B5A1E0192002BFAD18022D201114B80
:100210009A61C8230293029B5A1E0292002BFAD1C4
:100220008022D2010B4B5A614B230393039B5A1E2E
:100230000392002BFAD18022064B5A61064B1B78A1
:10024000002B01D105B000BD044B9847FAE7C0462A
:10025000002C004200440041040000202D08000052
:10026000FEE70000F8B52A4A2A4B9A4211D01A003C
:10027000294B9A420DD2294A03339B1A9B0801331A
:100280009B000022234822498C58845004329A4211
:10029000FAD1234A234B9A420AD2D34321495B180D
:1002A00003218B4304339B18002102C29342FCD1EB
:1002B0001D4AFF211D4B8B439360FD3990235B004A
:1002C0001B4AD1501B4AD3780325AB430224234356
:1002D000D370D3780C27BB4308263343D370164B17
:1002E000987B30229043202210439873997BB94326
:1002F000314399739A7BAA4322439A730F4A5368F6
:1003000080210B4353600E4B98470E4B9847FEE7F6
:1003100054120000000000203404002004000020DB
:1003200034040020B004002000ED00E000000000D4
:100330000070004100500041004800410040004171
:10034000BD0A0000A1050000574A53681E218B43D7
:100350001C390B435360554A936906310B43936133
:10036000534B544A9A829A8A02210A439A8219006C
:100370000222CB681A42FCD001224F4B1A701A009D
:10038000012113780B4203D053785BB2002BF8DBCA
:100390000122494B9A601A0053785BB2002BFBDBB9
:1003A000464A454B5A601A0053785BB2002BFBDB80
:1003B0008222D201404B5A801A0053785BB2002B44
:1003C000FBDB3B4A938C80218B43938411001022EA
:1003D000CB681A42FCD03A4A354BDA621900102237
:1003E000CB681A42FCD0324A938C36490B43938433
:1003F00011001022CB681A42FCD02D4A938C0221A6
:100400000B4393847E314020D3681942FCD0D368DB
:100410001842F9D026491022CB681A42FCD000229B
:10042000254B9A601A0053785BB2002BFBDB264AFF
:10043000214B5A601A0053785BB2002BFBDB1C4B3C
:100440001A6A22491140802252000A431A621A6A2B
:1004500080218A431A62184B03229A601C4A5A6010
:100460001A0053785BB2002BFBDB104B00221A7290
:100470005A729A72DA72174A174B1A60174B196838
:10048000174B1868C00E8B065B0F1B024901FF2239
:100490000A4002431343134A1385034A53688021D9
:1004A0000B4353607047C0460040004100040040C9
:1004B000000800400C060000000C0040010501008F
:1004C000B805FF7D040A000000070300FFFCFFFFE2
:1004D00003060100006CDC020000002024608000A4
:1004E00020608000004000420B4A136A02210B4347
:1004F00013620A4A0A4B5A801A0053785BB2002BE7
:10050000FBDB084B1A7801210A431A70892252003A
:100510001A81054A5A6070470004004007400000F5
:10052000000C0040000400420000250630B50528FC
:1005300007D88000184C205887461848C18382830A
:1005400043831648010020310500443503881B050C
:100550001B0D42881205120D1C090C701B01140A98
:10056000E3184B708A7004300331A942EED130BDDC
:100570000A480183C2828382E3E7084841820282FB
:10058000C381DEE70548818142810381D9E70348C1
:10059000C18082804380D4E75C0C000050040020BE
:1005A000F0B5DE4657464E464546E0B583B0414B72
:1005B0009847414A414B53604148036A1B021B0A5A
:1005C000C02109060B4303620023936007331360C5
:1005D0003C4B9847FA2080003B4B98473B4B984751
:1005E0003B4B98473B4B98473B4B98473B4B984777
:1005F0003B490B688022920213430B60394B1A600F
:100600000026394B9B4648E0019B1A880023374956
:100610002000374DA8470134E4B2062C2BD0052E1C
:10062000F9D83B689F464346198800232F4A20008B
:100630002F4DA847EFE7019B1B882C4A0021200083
:100640002B4DA847E7E743461A88284B0021200096
:10065000274DA847DFE7019B1988244B0022200083
:10066000234DA847D7E743461B8800221F49200097
:100670001F4DA847CFE7019D0C350C239C46E04455
:100680004D4504D01B4B1B6801240195C7E701367B
:10069000F0B20621184B9847CEB2184D50235B4458
:1006A0009846B4239B009946A944B700144B9C4636
:1006B0006744E7E74903000010E000E07FBB00006B
:1006C00000ED00E001090000C10800005901000030
:1006D00015070000E9040000950900002901000049
:1006E00000440041184400410C0F0000FF0F0000BF
:1006F0002D05000088040020B10A00008C0C0000C9
:10070000740C0000024A1368013313607047C0463E
:100710008804002070B53A4BB520195C0F26B14310
:10072000032529431954CA229C5C01210C439C5483
:1007300036241A5DB2432A431A5516341A5D0A4309
:100740001A551C5C0F222240302422431A541630C2
:100750001A5C0A431A542B4A136802218B43136014
:10076000D3699B07FCD4284A136A40210B431362C8
:10077000264A274B5A801A0053785BB2002BFBDBCA
:10078000204A136801210B4313601368DB07FCD474
:10079000D369DB07F9D41B4B1A681E490A401A605B
:1007A0001A681D491140802252020A431A601A68D1
:1007B0001A490A401A601A6819490A401A601A68E8
:1007C00018490A401A601A681C218A4310390A43E2
:1007D0001A605968802292020A435A600B221A73E7
:1007E0001A6802210A431A6003229A758022920134
:1007F0000D4B1A60034AD3699B07FCD470BDC046F9
:10080000004400410018004200040040184000006D
:10081000000C0040FFFFCFFFFFFFFCFFFFFFFFBF0B
:10082000FFFFFFDFFFFFFFEF00E100E0074A137E5D
:10083000DB07FCD5064B1A78044B9A6201229A75A5
:100840001A00137EDB07FCD57047C0460018004233
:1008500070040020164B1B7EDB0714D5154B1B784C
:10086000172B1CD8591C134A1170134AD25C104B19
:100870009A620022114B1A700D4A137E9B07FCD519
:1008800001220B4B1A760A4B1B7E9B0706D5084BA1
:1008900002221A761A75013A084B1A707047044BF7
:1008A00001221A7503490A7001329A75E8E7C046B9
:1008B0000018004205000020700400200400002001
:1008C0000E4BD866C0011A6F000A120E12060243C0
:1008D0001A675A6F120E120602435A679A6F120E67
:1008E000120602439A67DA6F120E12061043D86797
:1008F0001A0093681B03FCD47047C04600200042D6
:1009000010B51D4A116A80235B000B4313621B4A1A
:100910001B4B5A801A0053785BB2002BFBDB194A41
:10092000136802218B43136017494F200B5C01248D
:1009300023430B5418380C5C0F23234050242343CB
:100940000B54D36B07218B4306390B43D363936856
:100950005B06FCD464200D4B98470A4B1A680C497F
:100960000A401A60196A802252040A431A621A68FD
:1009700002210A431A6010BD000400401A40000022
:10098000000C00400020004200440041C10800006B
:10099000FFF8FFFF024A136802210B431360704700
:1009A00000200042002243088B4274D303098B428B
:1009B0005FD3030A8B4244D3030B8B4228D3030C2F
:1009C0008B420DD3FF22090212BA030C8B4202D3D1
:1009D0001212090265D0030B8B4219D300E0090AF9
:1009E000C30B8B4201D3CB03C01A5241830B8B4202
:1009F00001D38B03C01A5241430B8B4201D34B03EB
:100A0000C01A5241030B8B4201D30B03C01A52414F
:100A1000C30A8B4201D3CB02C01A5241830A8B42D4
:100A200001D38B02C01A5241430A8B4201D34B02BD
:100A3000C01A5241030A8B4201D30B02C01A524121
:100A4000CDD2C3098B4201D3CB01C01A52418309D5
:100A50008B4201D38B01C01A524143098B4201D30F
:100A60004B01C01A524103098B4201D30B01C01A3A
:100A70005241C3088B4201D3CB00C01A52418308B4
:100A80008B4201D38B00C01A524143088B4201D3E1
:100A90004B00C01A5241411A00D201465241104641
:100AA0007047FFE701B5002000F006F802BDC04620
:100AB0000029F7D076E770477047C04670B50D4EF5
:100AC0000D4D0024AD1BAD1005D0A300F35801342B
:100AD0009847A542F9D100F0ABFB084E084D002421
:100AE000AD1BAD1005D0A300F35801349847A542C3
:100AF000F9D170BD3C1200003C1200003C12000015
:100B000044120000034B10B5002B02D0024800F045
:100B100005F810BD000000002D0B000010B501000D
:100B200000230022002000F01FF810BD70B5094B13
:100B3000094CE41AA41009D0084AA518AD00ED1814
:100B40002B68013C9847043D002CF9D100F07AFB5A
:100B500070BDC0465012000054120000FFFFFF3F5E
:100B60007047C0467047C046F0B54E464546DE4623
:100B70005746E0B5364D83B00600286898460F000A
:100B80009146FFF7EDFF334B1C68A4235B00E05850
:100B9000002852D043681F2B13DC5A1C0192002EF0
:100BA00028D1019A02339B0042601F502868FFF74A
:100BB000D9FF002003B03CBC90469946A246AB4604
:100BC000F0BD254B002B3DD0C820400000E000BF09
:100BD000002837D0A42200235200A15843600160AE
:100BE000A0504032835004328350013301930023DC
:100BF000002ED6D09A00924682444A468821544616
:100C00006250C4225200914681444A468739994035
:100C100012688B460A4394464A4661461160842214
:100C200041465200A150022EBBD102005C468D32DB
:100C3000FF3211680C431460B3E720004D30FF30E1
:100C4000E050A7E72868FFF78DFF01204042B1E799
:100C5000300400202C1200000000000042050000BB
:100C60003A050000700500007A05000084050000C8
:100C70008E0500000806000026060000360600006B
:100C80004606000056060000660600000000000050
:100C9000000000000100010001000200020003004A
:100CA0000300040005000500060007000800090015
:100CB0000A000B000D000E000F00110012001400BE
:100CC0001500170019001B001D001F002100230044
:100CD0002500270029002B002E00300033003500AE
:100CE00038003B003E0040004300460049004C00F5
:100CF0004F005300560059005D006000640067001B
:100D00006B006F00720076007A007E008200860021
:100D10008A008F00930097009C00A000A500A90006
:100D2000AE00B300B800BC00C100C600CB00D000CC
:100D3000D600DB00E000E600EB00F000F600FC006F
:100D4000010107010D01130119011F0125012B01EB
:100D5000310137013E0144014B01510158015E014F
:100D600065016C0173017A01800187018F01960191
:100D70009D01A401AC01B301BA01C201CA01D101B4
:100D8000D901E101E901F001F801000209021102B3
:100D9000190221022A0232023B0243024C0254028F
:100DA0005D0266026F02780281028A0293029C024F
:100DB000A502AF02B802C102CB02D402DE02E802F1
:100DC000F202FB0205030F03190323032D0338036B
:100DD00042034C03570361036C03760381038B03C7
:100DE0009603A103AC03B703C203CD03D803E30307
:100DF000EF03FA03050411041C04280434043F041F
:100E00004B04570463046F047B0487049304A00419
:100E1000AC04B804C504D104DE04EA04F7040405F4
:100E200010051D052A053705440551055F056C05AC
:100E3000790587059405A205AF05BD05CA05D80546
:100E4000E605F405020610061E062C063A064906BB
:100E5000570665067406820691069F06AE06BD0615
:100E6000CC06DB06EA06F90608071707260735074A
:100E7000450754076407730783079207A207B20761
:100E8000C207D207E207F207020812082208330855
:100E9000430853086408740885089608A608B7082C
:100EA000C808D908EA08FB080C091D092F094009E0
:100EB00051096309740986099809A909BB09CD0973
:100EC000DF09F109030A150A270A390A4B0A5E0AE3
:100ED000700A830A950AA80ABA0ACD0AE00AF30A38
:100EE000060B190B2C0B3F0B520B650B780B8C0B65
:100EF0009F0BB30BC60BDA0BED0B010C150C290C79
:100F00003D0C510C650C790C8D0CA10CB60CCA0C67
:100F1000DE0CF30C070D1C0D310D460D5A0D6F0D37
:100F2000840D990DAE0DC30DD90DEE0D030E180EE7
:100F30002E0E430E590E6F0E840E9A0EB00EC60E74
:100F4000DC0EF20E080F1E0F340F4B0F610F770FE0
:100F50008E0FA40FBB0FD20FE80FFF0FFF0FFF0F75
:100F6000FF0FFF0FE80FD20FBB0FA40F8E0F770FED
:100F7000610F4B0F340F1E0F080FF20EDC0EC60E62
:100F8000B00E9A0E840E6F0E590E430E2E0E180ED2
:100F9000030EEE0DD90DC30DAE0D990D840D6F0D21
:100FA0005A0D460D310D1C0D070DF30CDE0CCA0C4D
:100FB000B60CA10C8D0C790C650C510C3D0C290C58
:100FC000150C010CED0BDA0BC60BB30B9F0B8C0B46
:100FD000780B650B520B3F0B2C0B190B060BF30A0E
:100FE000E00ACD0ABA0AA80A950A830A700A5E0ABC
:100FF0004B0A390A270A150A030AF109DF09CD0944
:10100000BB09A909980986097409630951094009AE
:101010002F091D090C09FB08EA08D908C808B708F8
:10102000A60896088508740864085308430833081E
:10103000220812080208F207E207D207C207B20725
:10104000A20792078307730764075407450735070C
:10105000260717070807F906EA06DB06CC06BD06D1
:10106000AE069F0691068206740665065706490677
:101070003A062C061E0610060206F405E605D805FB
:10108000CA05BD05AF05A2059405870579056C0560
:101090005F055105440537052A051D0510050405A2
:1010A000F704EA04DE04D104C504B804AC04A004C7
:1010B000930487047B046F04630457044B043F04C8
:1010C000340428041C0411040504FA03EF03E303A9
:1010D000D803CD03C203B703AC03A10396038B036C
:1010E000810376036C03610357034C034203380307
:1010F0002D03230319030F030503FB02F202E80289
:10110000DE02D402CB02C102B802AF02A5029C02E9
:1011100093028A02810278026F0266025D02540223
:101120004C0243023B0232022A022102190211023E
:1011300009020002F801F001E901E101D901D10140
:10114000CA01C201BA01B301AC01A4019D0196011B
:101150008F01870180017A0173016C0165015E01D5
:10116000580151014B0144013E01370131012B016E
:1011700025011F01190113010D0107010101FC00E7
:10118000F600F000EB00E600E000DB00D600D00047
:10119000CB00C600C100BC00B800B300AE00A9007F
:1011A000A500A0009C00970093008F008A00860095
:1011B00082007E007A00760072006F006B0067008C
:1011C000640060005D005900560053004F004C0061
:1011D00049004600430040003E003B003800350017
:1011E000330030002E002B002900270025002300AB
:1011F00021001F001D001B0019001700150014001E
:10120000120011000F000E000D000B000A00090073
:1012100008000700060005000500040003000300A5
:10122000020002000100010001000000080000208F
:10123000F8B5C046F8BC08BC9E467047050B0000D8
:10124000DD000000F8B5C046F8BC08BC9E467047FB
:04125000B5000000E5
:1012540040420F000101000000000000F4020020E1
:101264005C030020C4030020000000000000000014
:10127400000000000000000000000000000000006A
:10128400000000000000000000000000000000005A
:10129400000000000000000000000000000000004A
:1012A400000000000000000000000000000000003A
:1012B400000000000000000000000000000000002A
:1012C400000000000000000000000000000000001A
:1012D400000000000000000000000000000000000A
:1012E40000000000000000000000000000000000FA
:1012F40000000000000000000000000000000000EA
:1013040001000000000000000E33CDAB34126DE686
:10131400ECDE05000B0000000000000000000000EF
:1013240000000000000000000000000000000000B9
:1013340000000000000000000000000000000000A9
:101344000000000000000000000000000000000099
:101354000000000000000000000000000000000089
:041684008C040020B2
:00000001FF
