:10000000B8240020550200005102000051020000F7
:1000100000000000000000000000000000000000E0
:10002000000000000000000000000000510200007D
:1000300000000000000000005102000091060000D6
:100040005102000051020000510200005102000064
:100050005102000051020000510200005102000054
:100060005102000051020000510200005102000044
:1000700051020000E107000051020000510200009F
:100080005102000051020000E50100005102000091
:1000900051020000000000000000000051020000BA
:1000A0005102000051020000510200005102000004
:1000B0000000000010B5064C2378002B07D1054B3B
:1000C000002B02D0044800E000BF0123237010BDC4
:1000D0003404002000000000100B0000084B10B595
:1000E000002B03D00749084800E000BF0748036819
:1000F000002B00D110BD064B002BFBD09847F9E731
:100100000000000038040020100B0000100B00005D
:1001100000000000034B18751A00D37BDB09FCD1EB
:100120007047C046002C0042044A138802210B434A
:100130001380D37BDB09FCD17047C046002C004202
:10014000044A138802218B431380D37BDB09FCD143
:100150007047C046002C004210B51A4A116A80232D
:100160001B010B431362184B80229A608022D2013C
:100170009A60164A164B5A801A0053785BB2002BCD
:10018000FBDB144B9847144B01225A738021C902A0
:10019000124A11601A880C218A4304210A431A80EA
:1001A0001A8860218A431A805A8959398A43022160
:1001B0000A435A815A8920210A435A81FF20084B59
:1001C000984710BD00040040004400411B4000005F
:1001D000000C004041010000002C004200E100E062
:1001E0001501000000B585B0164B9B7BDB0727D5BA
:1001F0000122144B9A737F32134B9A614B23019364
:10020000019B5A1E0192002BFAD18022D2010E4B83
:100210009A61C8230293029B5A1E0292002BFAD1C4
:100220008022D201084B5A614B230393039B5A1E31
:100230000392002BFAD18022034B5A61034B98475B
:1002400005B000BD002C004200440041B907000089
:10025000FEE70000F8B52A4A2A4B9A4211D01A004C
:10026000294B9A420DD2294A03339B1A9B0801332A
:100270009B000022234822498C58845004329A4221
:10028000FAD1234A234B9A420AD2D34321495B181D
:1002900003218B4304339B18002102C29342FCD1FB
:1002A0001D4AFF211D4B8B439360FD3990235B005A
:1002B0001B4AD1501B4AD3780325AB430224234366
:1002C000D370D3780C27BB4308263343D370164B27
:1002D000987B30229043202210439873997BB94336
:1002E000314399739A7BAA4322439A730F4A536806
:1002F00080210B4353600E4B98470E4B9847FEE707
:10030000100B000000000020340400200400002036
:1003100034040020B404002000ED00E000000000E0
:100320000070004100500041004800410040004181
:100330003109000091050000574A53681E218B4384
:100340001C390B435360554A936906310B43936143
:10035000534B544A9A829A8A02210A439A8219007C
:100360000222CB681A42FCD001224F4B1A701A00AD
:10037000012113780B4203D053785BB2002BF8DBDA
:100380000122494B9A601A0053785BB2002BFBDBC9
:10039000464A454B5A601A0053785BB2002BFBDB90
:1003A0008222D201404B5A801A0053785BB2002B54
:1003B000FBDB3B4A938C80218B43938411001022FA
:1003C000CB681A42FCD03A4A354BDA621900102247
:1003D000CB681A42FCD0324A938C36490B43938443
:1003E00011001022CB681A42FCD02D4A938C0221B6
:1003F0000B4393847E314020D3681942FCD0D368EC
:100400001842F9D026491022CB681A42FCD00022AB
:10041000254B9A601A0053785BB2002BFBDB264A0F
:10042000214B5A601A0053785BB2002BFBDB1C4B4C
:100430001A6A22491140802252000A431A621A6A3B
:1004400080218A431A62184B03229A601C4A5A6020
:100450001A0053785BB2002BFBDB104B00221A72A0
:100460005A729A72DA72174A174B1A60174B196848
:10047000174B1868C00E8B065B0F1B024901FF2249
:100480000A4002431343134A1385034A53688021E9
:100490000B4353607047C0460040004100040040D9
:1004A000000800400C060000000C0040010501009F
:1004B000B805FF7D040A000000070300FFFCFFFFF2
:1004C00003060100006CDC020000002024608000B4
:1004D00020608000004000420B4A136A02210B4357
:1004E00013620A4A0A4B5A801A0053785BB2002BF7
:1004F000FBDB084B1A7801210A431A70892252004B
:100500001A81054A5A607047000400400740000005
:10051000000C0040000400420000250630B505280C
:1005200007D88000184C205887461848C18382831A
:1005300043831648010020310500443503881B051C
:100540001B0D42881205120D1C090C701B01140AA8
:10055000E3184B708A7004300331A942EED130BDEC
:100560000A480183C2828382E3E70848418202820B
:10057000C381DEE70548818142810381D9E70348D1
:10058000C18082804380D4E7D00A0000500400205C
:10059000F8B52D4B98472D4A2D4B53602D48036AD3
:1005A0001B021B0AC02109060B4303620023936050
:1005B00007331360284B9847FA208000274B984751
:1005C000274B9847274B9847274B9847274B9847E7
:1005D000274B984727490B688022920213430B60F0
:1005E000254B1A60254C264D264E0AE0022B23D0BF
:1005F00080229202244B1A6072B600221F4B1A60AE
:1006000062B62C22FF3223689342FCD928781F4B14
:1006100000220021B04728780138C0B20023002210
:100620000021B0472B780133DBB22B70052BDDD9CD
:100630000122134B1A70DBE7002300220021052062
:10064000104FB847D4E7C0463903000010E000E07F
:100650007FBB000000ED00E08D0800004D080000A9
:1006600059010000A1060000D90400002109000082
:100670002901000000440041184400418804002082
:10068000040000201D0500001C440041FF0F000075
:10069000024A1368013313607047C0468804002083
:1006A00070B53A4BB520195C0F26B1430325294399
:1006B0001954CA229C5C01210C439C5436241A5DB7
:1006C000B2432A431A5516341A5D0A431A551C5C64
:1006D0000F222240302422431A5416301A5C0A4357
:1006E0001A542B4A136802218B431360D3699B076A
:1006F000FCD4284A136A40210B431362264A274B35
:100700005A801A0053785BB2002BFBDB204A136837
:1007100001210B4313601368DB07FCD4D369DB07AB
:10072000F9D41B4B1A681E490A401A601A681D4901
:100730001140802252020A431A601A681A490A407C
:100740001A601A6819490A401A601A6818490A405A
:100750001A601A681C218A4310390A431A605968C2
:10076000802292020A435A600B221A731A680221ED
:100770000A431A6003229A75802292010D4B1A6077
:10078000034AD3699B07FCD470BDC04600440041B6
:10079000001800420004004018400000000C004017
:1007A000FFFFCFFFFFFFFCFFFFFFFFBFFFFFFFDFEC
:1007B000FFFFFFEF00E100E0074A137EDB07FCD5F7
:1007C000064B1A78044B9A6201229A751A00137E1E
:1007D000DB07FCD57047C0460018004270040020BB
:1007E000164B1B7EDB0714D5154B1B78172B1CD81B
:1007F000591C134A1170134AD25C104B9A620022A2
:10080000114B1A700D4A137E9B07FCD501220B4B2E
:100810001A760A4B1B7E9B0706D5084B02221A76D6
:100820001A75013A084B1A707047044B01221A7569
:1008300003490A7001329A75E8E7C0460018004281
:100840000600002070040020050000200E4BD86632
:10085000C0011A6F000A120E120602431A675A6F7D
:10086000120E120602435A679A6F120E12060243C4
:100870009A67DA6F120E12061043D8671A0093684F
:100880001B03FCD47047C0460020004210B51D4A2F
:10089000116A80235B000B4313621B4A1B4B5A8077
:1008A0001A0053785BB2002BFBDB194A1368022154
:1008B0008B43136017494F200B5C012423430B54D7
:1008C00018380C5C0F232340502423430B54D36B64
:1008D00007218B4306390B43D36393685B06FCD433
:1008E00064200D4B98470A4B1A680C490A401A605D
:1008F000196A802252040A431A621A6802210A43C2
:100900001A6010BD000400401A400000000C0040B6
:1009100000200042004400414D080000FFF8FFFFA6
:10092000024A136802210B43136070470020004203
:1009300070B50D4E0D4D0024AD1BAD1005D0A300BC
:10094000F35801349847A542F9D100F0CFF8084E8A
:10095000084D0024AD1BAD1005D0A300F3580134A1
:100960009847A542F9D170BDF80A0000F80A0000C6
:10097000F80A0000000B0000034B10B5002B02D05A
:10098000024800F005F810BD00000000A1090000B9
:1009900010B5010000230022002000F01FF810BD58
:1009A00070B5094B094CE41AA41009D0084AA518DF
:1009B000AD00ED182B68013C9847043D002CF9D19F
:1009C00000F09EF870BDC0460C0B0000100B00003C
:1009D000FFFFFF3F7047C0467047C046F0B54E4628
:1009E0004546DE465746E0B5364D83B006002868DA
:1009F00098460F009146FFF7EDFF334B1C68A42388
:100A00005B00E058002852D043681F2B13DC5A1CAF
:100A10000192002E28D1019A02339B0042601F50A0
:100A20002868FFF7D9FF002003B03CBC90469946E8
:100A3000A246AB46F0BD254B002B3DD0C820400060
:100A400000E000BF002837D0A42200235200A158A4
:100A500043600160A0504032835004328350013320
:100A600001930023002ED6D09A00924682444A4633
:100A7000882154466250C4225200914681444A461D
:100A80008739994012688B460A4394464A46614624
:100A90001160842241465200A150022EBBD10200B7
:100AA0005C468D32FF3211680C431460B3E72000BE
:100AB0004D30FF30E050A7E72868FFF78DFF012099
:100AC0004042B1E730040020E80A000000000000C6
:100AD000320500002A050000600500006A050000DC
:100AE000740500007E05000008000020F8B5C0462F
:100AF000F8BC08BC9E46704779090000DD00000084
:100B0000F8B5C046F8BC08BC9E467047B50000006A
:100B100040420F000101010000000000F40200202B
:100B20005C030020C403002000000000000000005F
:100B300000000000000000000000000000000000B5
:100B400000000000000000000000000000000000A5
:100B50000000000000000000000000000000000095
:100B60000000000000000000000000000000000085
:100B70000000000000000000000000000000000075
:100B80000000000000000000000000000000000065
:100B90000000000000000000000000000000000055
:100BA0000000000000000000000000000000000045
:100BB0000000000000000000000000000000000035
:100BC00001000000000000000E33CDAB34126DE6D2
:100BD000ECDE05000B00000000000000000000003B
:100BE0000000000000000000000000000000000005
:100BF00000000000000000000000000000000000F5
:100C000000000000000000000000000000000000E4
:100C100000000000000000000000000000000000D4
:040F400090040020F9
:00000001FF
