S00D00004C414231302E73726563E7
S1130000C0240020CD040000C9040000C90400007D
S113001000000000000000000000000000000000DC
S1130020000000000000000000000000C9040000FF
S11300300000000000000000C9040000650D00007D
S1130040C9040000C9040000C9040000C904000078
S1130050C9040000C9040000C9040000C904000068
S113006005060000C9040000C9040000C90400001A
S1130070C9040000F10E0000C9040000C904000016
S1130080C9040000C904000081040000C904000080
S1130090C90400000000000000000000AD020000E0
S11300A0C9040000C9040000C9040000C904000018
S11300B00000000010B5064C2378002B07D1054B37
S11300C0002B02D0044800E000BF0123237010BDC0
S11300D0340400200000000020190000084B10B573
S11300E0002B03D00749084800E000BF0748036815
S11300F0002B00D110BD064B002BFBD09847F9E72D
S1130100000000003804002020190000201900001D
S113011000000000384A116A80235B020B4313621B
S1130120364A374B5A801A005378DB09FCD1354ADA
S1130130137801210B4313701378DB07FCD4537E2F
S1130140DB09F9D12F4B1A7804218A431A701A78E3
S113015002398A431A705A780D318A4302200243C5
S11301605A709A78702082439A709A788A439A7067
S1130170DA7830318A43DA709A8823491140C022F0
S1130180D2000A439A809A8830218A439A809A88B6
S113019004210A439A809A8808218A439A801A0083
S11301A0537EDB09FCD1174B1969F02212050A436F
S11301B01A611A6915491140C02252010A431A6191
S11301C01A691F218A431D390A431A611A00537E92
S11301D0DB09FCD1802212040D4B1A60094B1978FB
S11301E00220014319701A7B02431A731A00537ECA
S11301F0DB09FCD17047C046000400401E400000EB
S1130200000C004000400042FFF8FFFFFFE0FFFF4A
S113021000E100E0034A537EDB09FCD1014B588B1B
S113022080B270470040004272B6044B1B889BB2F8
S113023062B680200001C01A00B27047500400204A
S113024072B6044B5B889BB262B680200001C01A70
S113025000B2704750040020074B9A8804210A43D7
S11302609A809A7D01210A439A751A691F218A434B
S11302701D390A431A61704700400042094B9A88AD
S113028004218A439A80DA7D01210A43DA75002128
S1130290054A11711A691F318A431D390A431A61CB
S11302A07047C0460040004250040020164B1B7E9D
S11302B0DB0716D50122144B1A76144B1B79002B3D
S11302C010D1114B5A8B92B210490A801A691F201F
S11302D082431A6101230B710B4A137B02210B43E6
S11302E013737047094B1B79012BF5D1064A538BC5
S11302F09BB206494B8013691F2083431D38034377
S1130300136100230B71E7E7004000425004002012
S11303100B4BC9201A5C02210A431A5485381A5C13
S11303200A431A5404301A5C0A431A54802189007F
S113033084229950743A5A60F0325A607047C04629
S1130340004400410100134AA023D3589B05DB0F4E
S1130350126AD20600D502330E4A126A0020D20570
S113036004D5002903D158424341D8B2704701292A
S113037006D0022909D0033B58424341D8B2F5E7DD
S1130380013B58424341D8B2F0E7023B5842434153
S1130390D8B2EBE700440041044A138802210B431E
S11303A01380D37BDB09FCD17047C046002C00428C
S11303B0044A138802218B431380D37BDB09FCD1CD
S11303C07047C046002C004210B51F4A116A8023B2
S11303D01B010B4313621D4B80229A608022D201C1
S11303E09A601B4A1B4B5A801A0053785BB2002B4D
S11303F0FBDB194B9847194A138801210B431380DF
S11304001388DB07FCD4D37BDB09F9D1134B1A889F
S11304100C218A431A801A8854318A4320210A43C2
S11304201A8096221A835A890720824302200243A3
S11304305A815A890A435A8101225A738022D2026C
S1130440074B1A6010BDC046000400400044004140
S11304501B400000000C0040B1030000002C0042CF
S113046000E100E0014B1878C0B270475504002049
S113047072B6024B187062B67047C046550400202D
S113048010B50D4B9B7BDB0700D410BD01220A4B3A
S11304909A737F32094B9A61094B9847002804D01C
S11304A0064B8022D2019A615A618022034B5A6121
S11304B00120044B9847E8E7002C00420044004127
S11304C0DD0E000071040000FEE70000F8B52A4AC2
S11304D02A4B9A4211D01A00294B9A420DD2294A2A
S11304E003339B1A9B0801339B00002223482249B3
S11304F08C58845004329A42FAD1234A234B9A42AC
S11305000AD2D34321495B1803218B4304339B183C
S1130510002102C29342FCD11D4AFF211D4B8B4393
S11305209360FD3990235B001B4AD1501B4AD3785A
S11305300325AB4302242343D370D3780C27BB4356
S113054008263343D370164B987B302290432022E5
S113055010439873997BB943314399739A7BAA43A7
S113056022439A730F4A536880210B4353600E4B06
S113057098470E4B9847FEE7201900000000002022
S1130580340400200400002034040020C0040020AF
S113059000ED00E000000000007000410050004148
S11305A0004800410040004151110000790700005B
S11305B0014A024B1A60704740420F0000000020BD
S11305C00B4A136A02210B4313620A4A0A4B5A80EC
S11305D01A0053785BB2002BFBDB084B1A7801211D
S11305E00A431A70892252001A81054A5A607047D8
S11305F00004004007400000000C004000040042DA
S113060000002506044B9B69DB0503D580225200BC
S1130610014B9A617047C04600040042F0B5CE46D3
S1130620474680B59446002A1ED000260025730054
S1130630C418228812094A55AF1CBFB20233C3182A
S11306406A1C92B2914624882401A0461C88240A7C
S1130650424614434A468C540335ADB21B88CB55ED
S11306600236B6B2B445E2D80CBC90469946F0BD09
S113067004490B688022920213430B60024B1A60F8
S11306807047C046004400411844004110B5052895
S113069007D88000104C205887461048C1838283B5
S11306A043830E480100203110220D4B984710BDA2
S11306B00A480183C2828382F3E7084841820282A6
S11306C0C381EEE70548818142810381E9E703485C
S11306D0C18082804380E4E7F012000058040020C7
S11306E01D06000010B50B4BD883188358829881DF
S11306F0D8809983D9821982598199805A839A82A0
S1130700DA811A815A801900203110221800024B14
S1130710984710BD580400201D06000010B5104B6A
S113072098472423632801D8180010BD0C4B984720
S11307300C4A01239042F7D8094B98470A4B984238
S113074005D9074B9847094A06239042ECD9044B34
S113075098470749074B984724234343DBB2E3E711
S113076015020000170C00009E0700006508000039
S1130770FF0F000039100000F0B5DE4657464E4624
S11307804546E0B587B0D84B9847D84AD84B536014
S1130790D848036A1B021B0AC02109060B430362E3
S11307A00023936007331360D34B9847D34B984788
S11307B0D34B9847D34B9847D34B9847D34B984741
S11307C0D34B9847D34B9847D34B9847D34B984731
S11307D0002200210020D24B9847D24B9847002694
S11307E0D14B9846D14C08E0CF4B1B689B1B142B74
S11307F00AD8CE4B984700284FD1CB4B1B79002BFE
S1130800F2D0C94FBB4636E1C74B1E680020C84B27
S11308109847002819D10120C54B9847002823D1B7
S11308200220C34B98470028E3D0C24B98470222CA
S1130830BD4B1A71002200210020B94B9847B94BD7
S113084098470020BC4B9847D3E7B44B9847B64D24
S113085000272F716F71002200210020B04B9847B0
S1130860B04B9847EF80D6E7AC4B9847AE4D012785
S11308702F71002200210020A94B9847A94B9847CB
S11308800020AD4B98470023EB802B72AB4B1F70BD
S113089002225A7000236B72C2E70020A64B9847CD
S11308A0A74B98470500A04B5A79052A5CD89300BA
S11308B0A44AD3589F469C4BDB885B00A24A9B5AB0
S11308C0039300230193A14B0293019A0399029885
S11308D0934B9847934B9847934BD888401980B2D1
S11308E06823FF33984244D88F4BD88085E78E4BDA
S11308F0DA885200964B9B1850229B5A029300238D
S11309000193924B0393E0E7874BDB885B008E4AAD
S11309109B5A01938D4B039300230293D5E7824B9B
S1130920DA8852008A4B9B1850229B5A0393874BB8
S1130930019300230293C8E77B4BDB885B00824A68
S11309409B5A0293814B019300230393BDE7764B9B
S1130950DA8852007E4B9B1850229B5A0193002345
S113096003937A4B0293B0E700230193039302931A
S1130970ABE76D4B0022DA805B790133DBB2052BE8
S113098002D8694A537138E70022674B5A7134E739
S11309905B461E680020664B9847002819D1012049
S11309A0634B9847002825D10220614B98470028C3
S11309B06AD0604B984702225B4B1A7100220021D7
S11309C00020574B9847574B984700205A4B98475D
S11309D05AE0524B9847544D002399462B716B7142
S11309E00022002100204E4B98474E4B98474B461F
S11309F0EB80D4E7494B98474B4D012399462B7123
S1130A00002200210020464B9847464B984700207F
S1130A10494B98470023EB802B72484B4A461A7087
S1130A2002225A7000236B72BEE73F4BDB885B00E7
S1130A30454A9B5A0193002305930493039302931D
S1130A403E4B9A461878019B039A0299414DA84758
S1130A5053465878059B00220499A847314B984780
S1130A60314BD888484480B26823FF33984200D978
S1130A70C7E02D4BD8803B79012B00D001E14346E0
S1130A801B689B1B142B83D8284B98470028F2D053
S1130A900020294B98472A4B98478146224B1A7AC3
S1130AA0072ACDD893002C4AD3589F461E4BDB8887
S1130AB05B00254A9B5A0293002305930493234B1E
S1130AC0019300230393BBE7174BDA885200204BB2
S1130AD09B1850229B5A019300230593049303937C
S1130AE01A4B0293ACE7C046B105000010E000E0E9
S1130AF07FBB000000ED00E0710600009D0F0000C8
S1130B00C9030000750D0000C105000011030000B9
S1130B10150100002910000099030000590200008B
S1130B20E5060000B10E00009004002065040000FA
S1130B30450300007D020000710400000400002051
S1130B401D0700000813000058130000FF0F0000E9
S1130B50D81500008D06000020130000754BDB88BB
S1130B605B00754A9B5A03930023059304930193F6
S1130B70724B029364E76F4BDA885200704B9B18F8
S1130B8050229B5A029300230593049301936B4BC9
S1130B90039355E7674BDB885B00674A9B5A0193D5
S1130BA0002305930493654B03930023029347E7C3
S1130BB0604BDB885B00624AD2185021525A039280
S1130BC05D4A9B5A0593002304935C4B01930023D5
S1130BD0029335E7574BDB885900594A5218502184
S1130BE0525A0192012A09D05B00534A9B5A04933A
S1130BF0524B059300230393029321E700220192B1
S1130C00F2E74C4B0022DA801B7A0133DBB2072B6C
S1130C1002D8484A13722EE7464B02221A72587AB7
S1130C20052808D88300474AD3589F46464B0222DA
S1130C301A7003325A700130C0B20621434B9847F0
S1130C403C4B597217E7404B05221A70013A5A700F
S1130C50F1E73D4B04221A70013A5A70EBE73A4B24
S1130C6003221A7002325A70E5E7374B05221A70D4
S1130C70043A5A70DFE7344B01221A7001325A7079
S1130C80D9E72C4D2B79022B00D0B6E5A0470028DC
S1130C90F8D000202E4B98472E4B9847323024DB57
S1130CA02C4B9847322829DC2B4B984732302EDBCB
S1130CB0294B9847322833DC274B98473230E1DB05
S1130CC0254B98473228DDDC224B98473230D9DB5C
S1130CD0204B98473228D5DC18490B000A00052020
S1130CE01E4FB8471E4B9847CCE714490B000A0027
S1130CF004201A4FB8471A4B9847D1E70F490B0005
S1130D000A000220154FB847154B9847CCE70B490A
S1130D100B000A000320114FB847114B9847C7E74F
S1130D2006490B000A0001200C4FB8470C4B9847AA
S1130D30C2E7C0469004002058130000FF0F0000D3
S1130D40D8150000401300000400002045110000E5
S1130D507104000041020000290200008D06000019
S1130D60B10E0000024A1368013313607047C04695
S1130D709004002070B53B4BB520195C0F26B1439D
S1130D80032529431954CA229C5C01210C439C5419
S1130D9036241A5DB2432A431A5516341A5D0A439F
S1130DA01A551C5C0F222240302422431A54163058
S1130DB01A5C0A431A542C4A136802218B431360A9
S1130DC0D3699B07FCD4294A136A40210B4313625D
S1130DD0274A284B5A801A0053785BB2002BFBDB5E
S1130DE0214A136801210B4313601368DB07FCD409
S1130DF0D369DB07F9D41C4B1A681F490A401A60EF
S1130E001A681E491140802252020A431A601A6865
S1130E101B490A401A601A681A490A401A601A687B
S1130E2019490A401A601A681C218A4310390A4376
S1130E301A605968802292020A435A601A00D369E0
S1130E405B07FCD4084B0B221A731A6802210A436D
S1130E501A601A00D3699B07FCD4802292010B4BC1
S1130E601A6070BD004400410018004200040040B4
S1130E7018400000000C0040FFFFCFFFFFFFFCFF05
S1130E80FFFFFFBFFFFFFFDFFFFFFFEF00E100E019
S1130E9072B6064B1B78002B05D10122034B1A7046
S1130EA062B60120704762B60020FBE79A04002076
S1130EB010B5064B9847002807D00122044B1A703E
S1130EC0044B1978044B99629A7510BD910E000079
S1130ED0060000207804002000180042034B5878D4
S1130EE0C0B2002801D000225A7070479A04002032
S1130EF0164B1B7EDB0711D5154B1B78DBB2172B6A
S1130F0011D813490B78DBB25A1CD2B20A70114AB9
S1130F10D25C0E4B9A6201220C4B1A760B4B1B7E51
S1130F209B0706D47047094B01221A7501329A7542
S1130F30F1E7064B02221A761A75013A044B1A702D
S1130F40054B5A7000221A70ECE7C04600180042A4
S1130F5006000020780400209A0400200E4BD86676
S1130F60C0011A6F000A120E120602431A675A6F62
S1130F70120E120602435A679A6F120E12060243A9
S1130F809A67DA6F120E12061043D8671A00936834
S1130F901B03FCD47047C0460020004210B51B4A16
S1130FA0116A80235B000B431362194A194B5A8060
S1130FB01A0053785BB2002BFBDB174A136802213B
S1130FC08B43136015494F200B5C012423430B54BE
S1130FD018380C5C0F232340502423430B54D36B49
S1130FE007218B4306390B43D36393685B06FCD418
S1130FF0C8200B4B9847084B1A680A490A401A60E4
S1131000196A802252040A431A6210BD0004004087
S11310101A400000000C004000200042004400413F
S11310205D0F0000FFF8FFFF024A136802210B4323
S11310301360704700200042002243088B4274D39F
S113104003098B425FD3030A8B4244D3030B8B42C5
S113105028D3030C8B420DD3FF22090212BA030CCE
S11310608B4202D31212090265D0030B8B4219D3AF
S113107000E0090AC30B8B4201D3CB03C01A5241CF
S1131080830B8B4201D38B03C01A5241430B8B4217
S113109001D34B03C01A5241030B8B4201D30B0300
S11310A0C01A5241C30A8B4201D3CB02C01A524127
S11310B0830A8B4201D38B02C01A5241430A8B42EA
S11310C001D34B02C01A5241030A8B4201D30B02D3
S11310D0C01A5241CDD2C3098B4201D3CB01C01AED
S11310E0524183098B4201D38B01C01A52414309F7
S11310F08B4201D34B01C01A524103098B4201D3E5
S11311000B01C01A5241C3088B4201D3CB00C01A51
S1131110524183088B4201D38B00C01A52414308C9
S11311208B4201D34B00C01A5241411A00D20146EE
S1131130524110467047FFE701B5002000F006F861
S113114002BDC0460029F7D076E770477047C04615
S113115070B50D4E0D4D0024AD1BAD1005D0A30090
S1131160F35801349847A542F9D100F0C7FB084E63
S1131170084D0024AD1BAD1005D0A300F358013475
S11311809847A542F9D170BD08190000081900005C
S11311900819000010190000034B10B5002B02D0F1
S11311A0024800F005F810BD00000000C111000065
S11311B010B5010000230022002000F01FF810BD2C
S11311C070B5094B094CE41AA41009D0084AA518B3
S11311D0AD00ED182B68013C9847043D002CF9D173
S11311E000F096FB70BDC0461C19000020190000D9
S11311F0FFFFFF3F7047C0467047C046F0B54E46FC
S11312004546DE465746E0B5364D83B006002868AD
S113121098460F009146FFF7EDFF334B1C68A4235B
S11312205B00E058002852D043681F2B13DC5A1C83
S11312300192002E28D1019A02339B0042601F5074
S11312402868FFF7D9FF002003B03CBC90469946BC
S1131250A246AB46F0BD254B002B3DD0C820400034
S113126000E000BF002837D0A42200235200A15878
S113127043600160A05040328350043283500133F4
S113128001930023002ED6D09A00924682444A4607
S1131290882154466250C4225200914681444A46F1
S11312A08739994012688B460A4394464A466146F8
S11312B01160842241465200A150022EBBD102008B
S11312C05C468D32FF3211680C431460B3E7200092
S11312D04D30FF30E050A7E72868FFF78DFF01206D
S11312E04042B1E730040020F8180000000000007C
S11312F0A20600009A060000B0060000BA0600002C
S1131300C4060000CE060000B6080000EE08000087
S1131310080900001E090000380900004E090000F9
S11313202A0A0000AC0A0000C80A00005C0B000096
S1131330760B0000940B0000B00B0000D40B0000EF
S11313402C0C0000460C0000520C00005E0C000047
S11313506A0C0000760C0000000000000000000091
S11313600000000000000000000000000000000079
S11313700000000000000000000000000000000069
S11313800000000000000000000000000000000059
S11313900100010001000100010001000100010041
S11313A0010001000200020002000200020002002B
S11313B0030003000300030004000400040004000D
S11313C005000500050006000600070007000700E9
S11313D008000800090009000A000A000B000B00BD
S11313E00C000D000D000E000F0010001000110085
S11313F01200130014001400150016001700180042
S113140019001A001C001D001E001F0020002200ED
S1131410230024002600270028002A002C002D0089
S11314202F003000320034003600370039003B0012
S11314303D003F0041004300450048004A004C0085
S11314404F0051005300560058005B005E006000DE
S11314506300660069006C006F007200750078001C
S11314607B007F008200860089008D00900094003C
S113147098009B009F00A300A700AB00B000B4003D
S1131480B800BD00C100C600CA00CF00D400D90016
S1131490DD00E300E800ED00F200F700FD000201CA
S11314A008010E01130119011F0125012B0131014E
S11314B038013E0145014B01520159015F016601AA
S11314C06D0175017C0183018B0192019A01A201D6
S11314D0AA01B201BA01C201CA01D301DB01E401CC
S11314E0EC01F501FE01070210021A0223022D028B
S11314F0360240024A0254025E02690273027D020D
S1131500880293029E02A902B402BF02CB02D60251
S1131510E202EE02F902060312031E032B03370351
S1131520440351035E036B03780386039403A1030E
S1131530AF03BD03CB03DA03E803F7030604150482
S113154024043304430452046204720482049204A3
S1131550A304B304C404D504E604F70409051A0576
S11315602C053E0550056205740587059A05AD05F1
S1131570C005D305E705FA050E06220637064B0615
S11315806006740689069E06B406C906DF06F506DB
S11315900B07210738074F0766077D079407AC0739
S11315A0C307DB07F3070C0824083D0856086F0837
S11315B08808A208BC08D608F0080B0925094009C8
S11315C05B0977099209AE09CA09E609030A1F0AE9
S11315D03C0A590A770A940AB20AD00AEE0A0D0B99
S11315E02C0B4B0B6A0B8A0BA90BC90BE90B0A0CCE
S11315F02B0C4C0C6D0C8E0CB00CD20CF40C170D87
S1131600390D5C0D800DA30DC70DEB0D0F0E340EBF
S1131610580E7D0EA30EC80EEE0E140F3B0F620F74
S1131620880FB00FD70FFF0FFF0FD70FB00F880F22
S1131630620F3B0F140FEE0EC80EA30E7D0E580E54
S1131640340E0F0EEB0DC70DA30D800D5C0D390D7F
S1131650170DF40CD20CB00C8E0C6D0C4C0C2B0C26
S11316600A0CE90BC90BA90B8A0B6A0B4B0B2C0B4D
S11316700D0BEE0AD00AB20A940A770A590A3C0AF8
S11316801F0A030AE609CA09AE09920977095B0928
S1131690400925090B09F008D608BC08A2088808E7
S11316A06F0856083D0824080C08F307DB07C30736
S11316B0AC0794077D0766074F07380721070B0718
S11316C0F506DF06C906B4069E068906740660069A
S11316D04B06370622060E06FA05E705D305C005B4
S11316E0AD059A0587057405620550053E052C0570
S11316F01A050905F704E604D504C404B304A304D5
S113170092048204720462045204430433042404E1
S113171015040604F703E803DA03CB03BD03AF03A0
S1131720A1039403860378036B035E03510344030C
S113173037032B031E0312030603F902EE02E2022F
S1131740D602CB02BF02B402A9029E02930288020F
S11317507D02730269025E0254024A0240023602AA
S11317602D0223021A0210020702FE01F501EC0108
S1131770E401DB01D301CA01C201BA01B201AA0129
S1131780A2019A0192018B0183017C0175016D0113
S113179066015F01590152014B0145013E013801C7
S11317A031012B0125011F01190113010E0108014B
S11317B00201FD00F700F200ED00E800E300DD00A7
S11317C0D900D400CF00CA00C600C100BD00B800D3
S11317D0B400B000AB00A700A3009F009B009800DA
S11317E0940090008D008900860082007F007B00B9
S11317F07800750072006F006C0069006600630079
S113180060005E005B0058005600530051004F001A
S11318104C004A0048004500430041003F003D00A1
S11318203B003900370036003400320030002F000E
S11318302D002C002A002800270026002400230065
S1131840220020001F001E001D001C001A001900A9
S113185018001700160015001400140013001200DD
S11318601100100010000F000E000D000D000C0000
S11318700B000B000A000A00090009000800080018
S11318800700070007000600060005000500050024
S11318900400040004000400030003000300030028
S11318A00200020002000200020002000100010026
S11318B0010001000100010001000100010001001C
S11318C00100010001000100000000000000000010
S11318D00000000000000000000000000000000004
S11318E000000000000000000000000000000000F4
S11318F0000000000000000008000020F8B5C04609
S1131900F8BC08BC9E46704799110000DD00000039
S1131910F8B5C046F8BC08BC9E467047B500000048
S113192040420F000102010000000000F402002008
S11319305C030020C403002000000000000000003D
S11319400000000000000000000000000000000093
S11319500000000000000000000000000000000083
S11319600000000000000000000000000000000073
S11319700000000000000000000000000000000063
S11319800000000000000000000000000000000053
S11319900000000000000000000000000000000043
S11319A00000000000000000000000000000000033
S11319B00000000000000000000000000000000023
S11319C00000000000000000000000000000000013
S11319D001000000000000000E33CDAB34126DE6B0
S11319E0ECDE05000B000000000000000000000019
S11319F000000000000000000000000000000000E3
S1131A0000000000000000000000000000000000D2
S1131A1000000000000000000000000000000000C2
S1131A2000000000000000000000000000000000B2
S1071D509C040020CB
S9030000FC
