:10000000B8240020610200005D0200005D020000D3
:1000100000000000000000000000000000000000E0
:100020000000000000000000000000005D02000071
:1000300000000000000000005D02000099050000C3
:100040005D0200005D0200005D0200005D02000034
:100050005D0200005D0200005D0200005D02000024
:10006000990300005D0200005D0200005D020000D7
:100070005D020000150700005D0200005D02000047
:100080005D0200005D020000090200005D02000048
:100090005D02000000000000000000005D020000A2
:1000A0005D0200005D0200005D0200005D020000D4
:1000B0000000000010B5064C2378002B07D1054B3B
:1000C000002B02D0044800E000BF0123237010BDC4
:1000D0003404002000000000E00F0000084B10B5C1
:1000E000002B03D00749084800E000BF0748036819
:1000F000002B00D110BD064B002BFBD09847F9E731
:100100000000000038040020E00F0000E00F0000B5
:1001100000000000034B18751A00D37BDB09FCD1EB
:100120007047C046002C0042044A138802210B434A
:100130001380D37BDB09FCD17047C046002C004202
:10014000044A138802218B431380D37BDB09FCD143
:100150007047C046002C004210B51A4A116A80232D
:100160001B010B431362184B80229A608022D2013C
:100170009A60164A164B5A801A0053785BB2002BCD
:10018000FBDB144B9847144B01225A738021C902A0
:10019000124A11601A880C218A4304210A431A80EA
:1001A0001A8860218A431A805A8959398A43022160
:1001B0000A435A815A8920210A435A81FF20084B59
:1001C000984710BD00040040004400411B4000005F
:1001D000000C004041010000002C004200E100E062
:1001E00015010000014B1878C0B270475004002080
:1001F000014B18707047C046500400200122014B8B
:100200005A7070475004002010B5104B9B7BDB07E1
:100210000FD501220D4B9A737F320D4B9A610D4B16
:100220005B78002B06D18022094B5A617F3A094B3B
:100230001A7010BD0022074B5A70054B8022D20164
:10024000DA61DA61044B9847EDE7C046002C0042C2
:100250000044004150040020DD060000FEE70000DD
:10026000F8B52A4A2A4B9A4211D01A00294B9A42D1
:100270000DD2294A03339B1A9B0801339B000022AD
:10028000234822498C58845004329A42FAD1234A96
:10029000234B9A420AD2D34321495B1803218B4353
:1002A00004339B18002102C29342FCD11D4AFF2156
:1002B0001D4B8B439360FD3990235B001B4AD1504B
:1002C0001B4AD3780325AB4302242343D370D3784E
:1002D0000C27BB4308263343D370164B987B302240
:1002E0009043202210439873997BB943314399730B
:1002F0009A7BAA4322439A730F4A536880210B4387
:1003000053600E4B98470E4B9847FEE7E00F0000F6
:1003100000000020340400200400002034040020E9
:10032000B804002000ED00E0000000000070004173
:1003300000500041004800410040004161080000B9
:1003400059040000014A024B1A60704740420F00F6
:10035000000000200B4A136A02210B4313620A4A71
:100360000A4B5A801A0053785BB2002BFBDB084B18
:100370001A7801210A431A70892252001A81054A0B
:100380005A6070470004004007400000000C004025
:100390000004004200002506044B9B69DB0503D5E1
:1003A00080225200014B9A617047C046000400420F
:1003B000F0B5CE46474680B59446002A1ED00026AA
:1003C00000257300C418228812094A55AF1CBFB219
:1003D0000233C3186A1C92B2914624882401A046B5
:1003E0001C88240A424614434A468C540335ADB255
:1003F0001B88CB550236B6B2B445E2D80CBC904649
:100400009946F0BD04490B688022920213430B60A9
:10041000024B1A607047C046004400411844004136
:1004200010B50B4BD883188358829881D880998354
:10043000D9821982598199805A839A82DA811A81E4
:100440005A801900203110221800024B984710BD25
:1004500054040020B1030000F0B5C64600B53B4B84
:1004600098473B4A3B4B53603B48036A1B021B0ABD
:10047000C02109060B430362002393600733136016
:10048000364B9847364B9847364B9847364B9847EC
:10049000364B9847364B9847364B984700220021F9
:1004A0000020354B9847354B984700250026344CA3
:1004B000344F354B984600E00025A0470028FCD07B
:1004C0000020B847052E3DD8B3004246D3589F467A
:1004D0006B002E4A995A00222D48274B9847274BEC
:1004E00098470635ADB26823FF339D42E5D9013602
:1004F000F6B2052EE0D900250026DEE76A00254B7E
:100500009B185022985A00222149E6E76B001F4AA7
:100510009A5A1F490020E0E76A001E4B9B185022A0
:10052000995A1B4A0020D8E76B00184A985A184A73
:100530000021D2E76A00174B9B1850229A5A0021DB
:100540001348CAE7002200210020C6E74503000047
:1005500010E000E07FBB000000ED00E005040000BB
:10056000BD07000059010000A90500005503000067
:10057000510800002901000021040000E9060000E4
:10058000E5010000F1010000000A0000180A000067
:10059000FF0F0000980C0000024A1368013313603B
:1005A0007047C0468C04002070B53B4BB520195CE9
:1005B0000F26B143032529431954CA229C5C01210B
:1005C0000C439C5436241A5DB2432A431A55163400
:1005D0001A5D0A431A551C5C0F2222403024224324
:1005E0001A5416301A5C0A431A542C4A1368022112
:1005F0008B431360D3699B07FCD4294A136A4021BB
:100600000B431362274A284B5A801A0053785BB277
:10061000002BFBDB214A136801210B431360136895
:10062000DB07FCD4D369DB07F9D41C4B1A681F49DC
:100630000A401A601A681E491140802252020A4379
:100640001A601A681B490A401A601A681A490A4057
:100650001A601A6819490A401A601A681C218A43EC
:1006600010390A431A605968802292020A435A607C
:100670001A00D3695B07FCD4084B0B221A731A6863
:1006800002210A431A601A00D3699B07FCD4802216
:1006900092010B4B1A6070BD0044004100180042EB
:1006A0000004004018400000000C0040FFFFCFFF96
:1006B000FFFFFCFFFFFFFFBFFFFFFFDFFFFFFFEFBD
:1006C00000E100E0044B1B780020002B03D1012245
:1006D000014B1A7001307047900400200022014B3A
:1006E0001A7070479004002010B5064B98470028F8
:1006F00007D00122044B1A70044B1978044B9962FD
:100700009A7510BDC5060000040000207404002086
:100710000018004210B5154B1B7EDB0711D5144B9A
:100720001B78DBB2172B11D811490B78DBB25A1C9E
:10073000D2B20A700F4AD25C0C4B9A6201220B4B68
:100740001A760A4B1B7E9B0706D410BD074B01226D
:100750001A7501329A75F1E7044B02221A761A755E
:10076000013A034B1A70044B9847EEE70018004219
:100770000400002074040020FD0100000E4BD86628
:10078000C0011A6F000A120E120602431A675A6F4E
:10079000120E120602435A679A6F120E1206024395
:1007A0009A67DA6F120E12061043D8671A00936820
:1007B0001B03FCD47047C0460020004210B51D4A00
:1007C000116A80235B000B4313621B4A1B4B5A8048
:1007D0001A0053785BB2002BFBDB194A1368022125
:1007E0008B43136017494F200B5C012423430B54A8
:1007F00018380C5C0F232340502423430B54D36B35
:1008000007218B4306390B43D36393685B06FCD403
:1008100064200D4B98470A4B1A680C490A401A602D
:10082000196A802252040A431A621A6802210A4392
:100830001A6010BD000400401A400000000C004087
:1008400000200042004400417D070000FFF8FFFF48
:10085000024A136802210B431360704700200042D4
:1008600070B50D4E0D4D0024AD1BAD1005D0A3008D
:10087000F35801349847A542F9D100F09FFB084E88
:10088000084D0024AD1BAD1005D0A300F358013472
:100890009847A542F9D170BDC80F0000C80F0000ED
:1008A000C80F0000D00F0000034B10B5002B02D082
:1008B000024800F005F810BD00000000D10800005B
:1008C00010B5010000230022002000F01FF810BD29
:1008D00070B5094B094CE41AA41009D0084AA518B0
:1008E000AD00ED182B68013C9847043D002CF9D170
:1008F00000F06EFB70BDC046DC0F0000E00F000092
:10090000FFFFFF3F7047C0467047C046F0B54E46F8
:100910004546DE465746E0B5364D83B006002868AA
:1009200098460F009146FFF7EDFF334B1C68A42358
:100930005B00E058002852D043681F2B13DC5A1C80
:100940000192002E28D1019A02339B0042601F5071
:100950002868FFF7D9FF002003B03CBC90469946B9
:10096000A246AB46F0BD254B002B3DD0C820400031
:1009700000E000BF002837D0A42200235200A15875
:1009800043600160A05040328350043283500133F1
:1009900001930023002ED6D09A00924682444A4604
:1009A000882154466250C4225200914681444A46EE
:1009B0008739994012688B460A4394464A466146F5
:1009C0001160842241465200A150022EBBD1020088
:1009D0005C468D32FF3211680C431460B3E720008F
:1009E0004D30FF30E050A7E72868FFF78DFF01206A
:1009F0004042B1E730040020B80F000000000000C2
:100A0000D0040000FC0400000C05000018050000E4
:100A1000280500003405000000000B00170022002C
:100A20002E003900450050005C00670073007E0016
:100A30008A009500A100AC00B800C300CF00DA0026
:100A4000E600F100FD00080114011F012B01360131
:100A500042014D015901640170017B01870192013E
:100A60009E01A901B501C001CC01D701E301EE014E
:100A7000FA01050211021C02280233023F024A0257
:100A8000560261026D02780284028F029B02A60266
:100A9000B202BD02C902D402E002EB02F702020375
:100AA0000E031903250330033C03470353035E037E
:100AB0006A03750381038C039803A303AF03BA038E
:100AC000C603D103DD03E803F403FF030B0416049C
:100AD00022042D043904440450045B0467047204A6
:100AE0007E0489049504A004AC04B704C304CE04B6
:100AF000DA04E504F104FC04080513051F052A05C2
:100B0000360541054D05580564056F057B058605CD
:100B100092059D05A905B405C005CB05D705E205DD
:100B2000EE05F905050610061C06270633063E06E7
:100B30004A06550661066C06780683068F069A06F5
:100B4000A606B106BD06C806D406DF06EB06F60605
:100B500002070D071907240730073B07470752070D
:100B60005E076907750780078C079707A307AE071D
:100B7000BA07C507D107DC07E807F307FF070A082C
:100B8000160821082D08380844084F085B08660835
:100B900072087D0889089408A008AB08B708C20845
:100BA000CE08D908E508F008FC08070913091E0952
:100BB0002A09350941094C09580963096F097A095D
:100BC000860991099D09A809B409BF09CB09D6096D
:100BD000E209ED09F909040A100A1B0A270A320A78
:100BE0003E0A490A550A600A6C0A770A830A8E0A85
:100BF0009A0AA50AB10ABC0AC80AD30ADF0AEA0A95
:100C0000F60A010B0D0B180B240B2F0B3B0B460B9D
:100C1000520B5D0B690B740B800B8B0B970BA20BAC
:100C2000AE0BB90BC50BD00BDC0BE70BF30BFE0BBC
:100C30000A0C150C210C2C0C380C430C4F0C5A0CC4
:100C4000660C710C7D0C880C940C9F0CAB0CB60CD4
:100C5000C20CCD0CD90CE40CF00CFB0C070D120DE2
:100C60001E0D290D350D400D4C0D570D630D6E0DEC
:100C70007A0D850D910D9C0DA80DB30DBF0DCA0DFC
:100C8000D60DE10DED0DF80D040E0F0E1B0E260E08
:100C9000320E3D0E490E540E600E6B0E770E820E14
:100CA0008E0E990EA50EB00EBC0EC70ED30EDE0E24
:100CB000EA0EF50E010F0C0F180F230F2F0F3A0F2E
:100CC000460F510F5D0F680F740F7F0F8B0F960F3C
:100CD000A20FAD0FB90FC40FD00FDB0FE70FF20F4C
:100CE000FF0F000000000000FF0FF20FE70FDB0F07
:100CF000D00FC40FB90FAD0FA20F960F8B0F7F0F40
:100D0000740F680F5D0F510F460F3A0F2F0F230F0F
:100D1000180F0C0F010FF50EEA0EDE0ED30EC70EE4
:100D2000BC0EB00EA50E990E8E0E820E770E6B0EB7
:100D3000600E540E490E3D0E320E260E1B0E0F0E87
:100D4000040EF80DED0DE10DD60DCA0DBF0DB30D5E
:100D5000A80D9C0D910D850D7A0D6E0D630D570D2F
:100D60004C0D400D350D290D1E0D120D070DFB0C00
:100D7000F00CE40CD90CCD0CC20CB60CAB0C9F0CD7
:100D8000940C880C7D0C710C660C5A0C4F0C430CA7
:100D9000380C2C0C210C150C0A0CFE0BF30BE70B7A
:100DA000DC0BD00BC50BB90BAE0BA20B970B8B0B4F
:100DB000800B740B690B5D0B520B460B3B0B2F0B1F
:100DC000240B180B0D0B010BF60AEA0ADF0AD30AF3
:100DD000C80ABC0AB10AA50A9A0A8E0A830A770AC7
:100DE0006C0A600A550A490A3E0A320A270A1B0A97
:100DF000100A040AF909ED09E209D609CB09BF096D
:100E0000B409A8099D09910986097A096F0963093E
:100E100058094C09410935092A091E09130907090E
:100E2000FC08F008E508D908CE08C208B708AB08E6
:100E3000A008940889087D08720866085B084F08B6
:100E4000440838082D08210816080A08FF07F30788
:100E5000E807DC07D107C507BA07AE07A30797075E
:100E60008C078007750769075E07520747073B072E
:100E70003007240719070D070207F606EB06DF0601
:100E8000D406C806BD06B106A6069A068F068306D6
:100E900078066C06610655064A063E0633062706A6
:100EA0001C0610060506F905EE05E205D705CB057B
:100EB000C005B405A9059D05920586057B056F054E
:100EC000640558054D05410536052A051F0513051E
:100ED0000805FC04F104E504DA04CE04C304B704F5
:100EE000AC04A004950489047E04720467045B04C6
:100EF0005004440439042D04220416040B04FF0397
:100F0000F403E803DD03D103C603BA03AF03A3036D
:100F100098038C03810375036A035E03530347033D
:100F20003C033003250319030E030203F702EB020F
:100F3000E002D402C902BD02B202A6029B028F02E5
:100F4000840278026D02610256024A023F023302B5
:100F500028021C0211020502FA01EE01E301D70189
:100F6000CC01C001B501A9019E01920187017B015D
:100F70007001640159014D01420136012B011F012D
:100F800014010801FD00F100E600DA00CF00C30003
:100F9000B800AC00A10095008A007E0073006700D5
:100FA0005C005000450039002E00220017000B00A5
:100FB000000000000000000008000020F8B5C04656
:100FC000F8BC08BC9E467047A9080000DD00000080
:100FD000F8B5C046F8BC08BC9E467047B500000096
:100FE00040420F000100000000000000F402002059
:100FF0005C030020C403002000000000000000008B
:1010000000000000000000000000000000000000E0
:1010100000000000000000000000000000000000D0
:1010200000000000000000000000000000000000C0
:1010300000000000000000000000000000000000B0
:1010400000000000000000000000000000000000A0
:101050000000000000000000000000000000000090
:101060000000000000000000000000000000000080
:101070000000000000000000000000000000000070
:101080000000000000000000000000000000000060
:1010900001000000000000000E33CDAB34126DE6FD
:1010A000ECDE05000B000000000000000000000066
:1010B0000000000000000000000000000000000030
:1010C0000000000000000000000000000000000020
:1010D0000000000000000000000000000000000010
:1010E0000000000000000000000000000000000000
:041410009404002020
:00000001FF
