S00D00004C414231302E73726563E7
S1130000C8240020CD040000C9040000C904000075
S113001000000000000000000000000000000000DC
S1130020000000000000000000000000C9040000FF
S11300300000000000000000C9040000AD10000032
S1130040C9040000C9040000C9040000C904000078
S1130050C9040000C9040000C9040000C904000068
S113006005060000C9040000C9040000C90400001A
S1130070C904000039120000C9040000C9040000CA
S1130080C9040000C904000081040000C904000080
S1130090C90400000000000000000000AD020000E0
S11300A0C9040000C9040000C9040000C904000018
S11300B00000000010B5064C2378002B07D1054B37
S11300C0002B02D0044800E000BF0123237010BDC0
S11300D03404002000000000D0220000084B10B5BA
S11300E0002B03D00749084800E000BF0748036815
S11300F0002B00D110BD064B002BFBD09847F9E72D
S11301000000000038040020D0220000D0220000AB
S113011000000000384A116A80235B020B4313621B
S1130120364A374B5A801A005378DB09FCD1354ADA
S1130130137801210B4313701378DB07FCD4537E2F
S1130140DB09F9D12F4B1A7804218A431A701A78E3
S113015002398A431A705A780D318A4302200243C5
S11301605A709A78702082439A709A788A439A7067
S1130170DA7830318A43DA709A8823491140C022F0
S1130180D2000A439A809A8830218A439A809A88B6
S113019004210A439A809A8808218A439A801A0083
S11301A0537EDB09FCD1174B1969F02212050A436F
S11301B01A611A6915491140C02252010A431A6191
S11301C01A691F218A431D390A431A611A00537E92
S11301D0DB09FCD1802212040D4B1A60094B1978FB
S11301E00220014319701A7B02431A731A00537ECA
S11301F0DB09FCD17047C046000400401E400000EB
S1130200000C004000400042FFF8FFFFFFE0FFFF4A
S113021000E100E0034A537EDB09FCD1014B588B1B
S113022080B270470040004272B6044B1B889BB2F8
S113023062B680200001C01A00B27047500400204A
S113024072B6044B5B889BB262B680200001C01A70
S113025000B2704750040020074B9A8804210A43D7
S11302609A809A7D01210A439A751A691F218A434B
S11302701D390A431A61704700400042094B9A88AD
S113028004218A439A80DA7D01210A43DA75002128
S1130290054A11711A691F318A431D390A431A61CB
S11302A07047C0460040004250040020164B1B7E9D
S11302B0DB0716D50122144B1A76144B1B79002B3D
S11302C010D1114B5A8B92B210490A801A691F201F
S11302D082431A6101230B710B4A137B02210B43E6
S11302E013737047094B1B79012BF5D1064A538BC5
S11302F09BB206494B8013691F2083431D38034377
S1130300136100230B71E7E7004000425004002012
S11303100B4BC9201A5C02210A431A5485381A5C13
S11303200A431A5404301A5C0A431A54802189007F
S113033084229950743A5A60F0325A607047C04629
S1130340004400410100134AA023D3589B05DB0F4E
S1130350126AD20600D502330E4A126A0020D20570
S113036004D5002903D158424341D8B2704701292A
S113037006D0022909D0033B58424341D8B2F5E7DD
S1130380013B58424341D8B2F0E7023B5842434153
S1130390D8B2EBE700440041044A138802210B431E
S11303A01380D37BDB09FCD17047C046002C00428C
S11303B0044A138802218B431380D37BDB09FCD1CD
S11303C07047C046002C004210B51F4A116A8023B2
S11303D01B010B4313621D4B80229A608022D201C1
S11303E09A601B4A1B4B5A801A0053785BB2002B4D
S11303F0FBDB194B9847194A138801210B431380DF
S11304001388DB07FCD4D37BDB09F9D1134B1A889F
S11304100C218A431A801A8854318A4320210A43C2
S11304201A8096221A835A890720824302200243A3
S11304305A815A890A435A8101225A738022D2026C
S1130440074B1A6010BDC046000400400044004140
S11304501B400000000C0040B1030000002C0042CF
S113046000E100E0014B1878C0B270475504002049
S113047072B6024B187062B67047C046550400202D
S113048010B50D4B9B7BDB0700D410BD01220A4B3A
S11304909A737F32094B9A61094B9847002804D01C
S11304A0064B8022D2019A615A618022034B5A6121
S11304B00120044B9847E8E7002C00420044004127
S11304C02512000071040000FEE70000F8B52A4A76
S11304D02A4B9A4211D01A00294B9A420DD2294A2A
S11304E003339B1A9B0801339B00002223482249B3
S11304F08C58845004329A42FAD1234A234B9A42AC
S11305000AD2D34321495B1803218B4304339B183C
S1130510002102C29342FCD11D4AFF211D4B8B4393
S11305209360FD3990235B001B4AD1501B4AD3785A
S11305300325AB4302242343D370D3780C27BB4356
S113054008263343D370164B987B302290432022E5
S113055010439873997BB943314399739A7BAA43A7
S113056022439A730F4A536880210B4353600E4B06
S113057098470E4B9847FEE7D02200000000002069
S1130580340400200400002034040020C4040020AB
S113059000ED00E000000000007000410050004148
S11305A00048004100400041991400007907000010
S11305B0014A024B1A60704740420F0000000020BD
S11305C00B4A136A02210B4313620A4A0A4B5A80EC
S11305D01A0053785BB2002BFBDB084B1A7801211D
S11305E00A431A70892252001A81054A5A607047D8
S11305F00004004007400000000C004000040042DA
S113060000002506044B9B69DB0503D580225200BC
S1130610014B9A617047C04600040042F0B5CE46D3
S1130620474680B59446002A1ED000260025730054
S1130630C418228812094A55AF1CBFB20233C3182A
S11306406A1C92B2914624882401A0461C88240A7C
S1130650424614434A468C540335ADB21B88CB55ED
S11306600236B6B2B445E2D80CBC90469946F0BD09
S113067004490B688022920213430B60024B1A60F8
S11306807047C046004400411844004110B5052895
S113069007D88000104C205887461048C1838283B5
S11306A043830E480100203110220D4B984710BDA2
S11306B00A480183C2828382F3E7084841820282A6
S11306C0C381EEE70548818142810381E9E703485C
S11306D0C18082804380E4E738160000580400207B
S11306E01D06000010B50B4BD883188358829881DF
S11306F0D8809983D9821982598199805A839A82A0
S1130700DA811A815A801900203110221800024B14
S1130710984710BD580400201D06000010B5104B6A
S113072098472423632801D8180010BD0C4B984720
S11307300C4A01239042F7D8094B98470A4B984238
S113074005D9074B9847094A06239042ECD9044B34
S113075098470749074B984724234343DBB2E3E711
S113076015020000170C00009E0700006508000039
S1130770FF0F000081130000F0B5DE4657464E46D9
S11307804546E0B58DB0D14B9847D14AD14B536023
S1130790D148036A1B021B0AC02109060B430362EA
S11307A00023936007331360CC4B9847CC4B984796
S11307B0CC4B9847CC4B9847CC4B9847CC4B98475D
S11307C0CC4B9847CC4B9847CC4B9847CC4B98474D
S11307D0002200210020CB4B9847CB4B98470023A5
S11307E09846CA4B9A469946464608E0C74B1B684A
S11307F09B1B142B09D8C64B984700283AD1C34BEE
S11308001B79002BF2D0C14DFEE00120C14B98476B
S1130810002815D10220BF4B98470028EBD0BB4CD1
S11308202668BD4B98470223237100220021002033
S1130830B44B9847B44B98470020B84B9847DAE735
S1130840B24C2668AE4B9847012525710022002141
S11308500020AC4B9847AC4B98470020AF4B9847CF
S11308600023E3802372AE4B1D7002225A700023D2
S11308706372CFE70020A94B9847AA4B984704001E
S1130880A24B9A7A052A5CD89300A74AD3589F466C
S11308909E4BDB885B00A54A9B5A09930023079370
S11308A0A34B0893079A09990898964B9847964B37
S11308B09847964BD888001980B26823FF33984232
S11308C044D8924BD8809AE7904BDA885200994BDF
S11308D09B1850229B5A089300230793944B099327
S11308E0E0E78A4BDB885B00904A9B5A0793904B66
S11308F0099300230893D5E7844BDA8852008D4B83
S11309009B1850229B5A0993894B07930023089301
S1130910C8E77E4BDB885B00844A9B5A0893844B70
S1130920079300230993BDE7784BDA885200814B83
S11309309B1850229B5A0793002309937C4B0893DE
S1130940B0E70023079309930893ABE76F4B0022AA
S1130950DA809B7A0133DBB2052B02D86B4A93729F
S11309604DE70022694B9A7249E70020694B98478A
S1130970002815D10220674B984700284DD0634CBE
S11309802668654B9847022323710022002100202A
S11309905C4B98475C4B98470020604B98473CE081
S11309A05A4C2668564B984700272771A772002295
S11309B000210020534B9847534B9847E780D9E7D1
S11309C0524BDB885B00594A9B5A079300230B93D5
S11309D00A9309930893524C2078079B099A089923
S11309E0554FB84760780B9B00220A99B847464B8D
S11309F09847464BD888404480B26823FF339842D6
S1130A0000D9C6E0414BD88053461B79012B00D056
S1130A10FFE02B689B1B142BA7D83D4B984700285D
S1130A20F2D000203D4B98473E4B98478046374BC9
S1130A301A7A072ACFD89300404AD3589F46334B9B
S1130A40DB885B00394A9B5A089300230B930A9373
S1130A50374B079300230993BDE72C4BDA885200E8
S1130A60344B9B1850229B5A079300230B930A93F1
S1130A7009932F4B0893AEE7244BDB885B002B4A8A
S1130A809B5A099300230B930A930793284B0893CB
S1130A90A1E71E4BDA885200264B9B1850229B5A22
S1130AA0089300230B930A930793214B099392E72E
S1130AB0164BDB885B001D4A9B5A079300230B935C
S1130AC00A931B4B09930023089384E7B1050000A4
S1130AD010E000E07FBB000000ED00E071060000C4
S1130AE0E5120000C9030000BD100000C1050000AC
S1130AF011030000150100007113000099030000A8
S1130B0059020000E5060000F911000090040020DD
S1130B1065040000450300007D020000710400002C
S1130B20040000201D07000050160000A01600005D
S1130B30FF0F0000201900008D0600006816000059
S1130B40D64BDB885B00D64AD2185021525A099200
S1130B50D44A9B5A0B9300230A93D34B0793002345
S1130B60089338E7CD4BDB885900CD4A5218502101
S1130B70525A0792012A09D05B00CA4A9B5A0A9327
S1130B80C94B0B9300230993089324E7002207928F
S1130B90F2E7C24B0022DA801B7A0133DBB2072B67
S1130BA002D8BE4A13722FE7BC4B02221A72587A3B
S1130BB0052808D88300BD4AD3589F46BC4B02225F
S1130BC01A7003325A700130C0B20621B94B9847EB
S1130BD0B24B597218E7B64B05221A70013A5A7093
S1130BE0F1E7B34B04221A70013A5A70EBE7B04BA9
S1130BF003221A7002325A70E5E7AD4B05221A70CF
S1130C00043A5A70DFE7AA4B01221A7001325A7073
S1130C10D9E7A24B9846AFE10020A74B984700289C
S1130C201FD10120A44B9847002800D1AFE19B4C71
S1130C302668A24B98470125257100220021002037
S1130C409F4B98479F4B984700209F4B9847002302
S1130C50E3802372964B1D7002225A700023637244
S1130C6095E18E4C2668954B984700252571A57211
S1130C70002200210020924B9847924B9847E58030
S1130C80CFE7924B9847C317C0185840904B9842EF
S1130C901ADC8E4CA047C317C01858409B38FF3845
S1130CA040008C4B1818038C0593A047C317C01839
S1130CB058409B38FF384000874B18185423C35AB8
S1130CC09B460023069385E1804B9847C317C018C1
S1130CD05840824B98421CDC7C4CA047C317C01878
S1130CE058407F4B9C46604440007A4B1818038C54
S1130CF00693A047C317C0185840794B9C466044DC
S1130D004000754B18185423C35A059300239B467F
S1130D1060E16E4B9847C317C0185840714B984216
S1130D201ADC6A4DA8476B4CC217831853406E4AAD
S1130D30944663445B00E3181B8C0693A847C317CF
S1130D40C0185840684B9C46604440002418238CCB
S1130D509B46002305933DE15C4B9847C317C0189D
S1130D605840624B9C46604440005A4B1818038C10
S1130D7005934D4B9B4606932CE15D4B9847C31757
S1130D80C0185840524B98421ADC594CA047C3171C
S1130D90C01858409B38FF3840004E4B1818038C3D
S1130DA00293A047C317C01858409B38FF3840002F
S1130DB0494B18185423C35A04930023039320E186
S1130DC04B4B9847C317C0185840444B98421CDCFF
S1130DD0474CA047C317C0185840414B9C46604439
S1130DE040003C4B1818038C0393A047C317C0184A
S1130DF058403B4B9C4660444000374B18185423E2
S1130E00C35A029300230493FBE0394B9847C3175A
S1130E10C0185840334B98421ADC354DA8472D4C26
S1130E20C21783185340304A944663445B00E31866
S1130E301B8C0393A847C317C01858402A4B9C46E1
S1130E40604440002418238C049300230293D8E0C8
S1130E50274B9847C317C0185840244B9C466044FE
S1130E6040001C4B1818038C02930F4B04930393FC
S1130E70C7E01F4B9847C317C018584080B2D4E04E
S1130E80CD239B00984235D8181A4000114B1818EE
S1130E90038C01931C000027D3E0C046900400207B
S1130EA020190000A0160000FF0F000088160000A3
S1130EB0040000208D1400004503000059020000C6
S1130EC0E5060000F9110000710400004102000071
S1130ED033030000201C0000201F0000CD0400008C
S1130EE0CCFCFFFF6706000032FBFFFF98F9FFFF11
S1130EF029020000614B98420BD8181A4000604B3D
S1130F001B181B8C01935F4B18185423C75A0024D9
S1130F1097E0CD23DB0098420BD8181A4000584BB9
S1130F201B181F8C574B18185423C45A00230193C1
S1130F3087E0554B181A4000514B1818048C0023B5
S1130F40019300277DE05B46069A059904204F4DE6
S1130F50A8474F4B9847002800DC83E0049B039A82
S1130F6002990120494DA8472300019A3900052020
S1130F70464CA047474B984743461B79022B00D069
S1130F803DE44B461B689B1B142B00D944E6424BA3
S1130F9098470028F0D00020404B984700220021B9
S1130FA000203F4B98473F4B9847C317C018584001
S1130FB09A23FF33984200DD63E63A4B9847C31700
S1130FC0C018584040002E4B1818038C9B46002331
S1130FD0069305932E4B9847C317C01858409A237D
S1130FE0FF33984200DDC8E6294B9847C317C01861
S1130FF058404000224B1818038C04930023039399
S11310000293284B98470400214B9847E317E418B0
S11310105C40C317C0185840844200DC29E7214BC8
S11310209847C317C018584080B2CD235B0098423C
S113103000D925E7181A4000114B1818078C1A4CD0
S11310400194184B9847002800DA7CE7154B984721
S1131050002800DC7DE75B46069A059902200B4DCB
S1131060A84776E70A4B9847002800DB7CE7049BF7
S1131070039A02990320054DA84775E7CE040000A2
S1131080201C0000201F0000FF0700008D06000048
S113109029020000F9110000650400007104000039
S11310A0E506000041020000FF0F0000024A136839
S11310B0013313607047C0469004002070B53B4B69
S11310C0B520195C0F26B143032529431954CA22BC
S11310D09C5C01210C439C5436241A5DB2432A4380
S11310E01A5516341A5D0A431A551C5C0F22224005
S11310F0302422431A5416301A5C0A431A542C4AD8
S1131100136802218B431360D3699B07FCD4294ADB
S1131110136A40210B431362274A284B5A801A0052
S113112053785BB2002BFBDB214A136801210B438C
S113113013601368DB07FCD4D369DB07F9D41C4BB9
S11311401A681F490A401A601A681E491140802211
S113115052020A431A601A681B490A401A601A6844
S11311601A490A401A601A6819490A401A601A682A
S11311701C218A4310390A431A605968802292025A
S11311800A435A601A00D3695B07FCD4084B0B224C
S11311901A731A6802210A431A601A00D3699B075A
S11311A0FCD4802292010B4B1A6070BD00440041B4
S11311B0001800420004004018400000000C0040E9
S11311C0FFFFCFFFFFFFFCFFFFFFFFBFFFFFFFDFBE
S11311D0FFFFFFEF00E100E072B6064B1B78002B27
S11311E005D10122034B1A7062B60120704762B622
S11311F00020FBE79B04002010B5064B984700280D
S113120007D00122044B1A70044B1978044B9962DD
S11312109A7510BDD9110000060000207804002042
S113122000180042034B5878C0B2002801D00022B5
S11312305A7070479B040020164B1B7EDB0711D5A8
S1131240154B1B78DBB2172B11D813490B78DBB283
S11312505A1CD2B20A70114AD25C0E4B9A62012215
S11312600C4B1A760B4B1B7E9B0706D47047094B1D
S113127001221A7501329A75F1E7064B02221A7699
S11312801A75013A044B1A70054B5A7000221A70F1
S1131290ECE7C04600180042060000207804002055
S11312A09B0400200E4BD866C0011A6F000A120E70
S11312B0120602431A675A6F120E120602435A6745
S11312C09A6F120E120602439A67DA6F120E120612
S11312D01043D8671A0093681B03FCD47047C046B8
S11312E00020004210B51B4A116A80235B000B43A7
S11312F01362194A194B5A801A0053785BB2002BB7
S1131300FBDB174A136802218B43136015494F20F6
S11313100B5C012423430B5418380C5C0F2323402B
S1131320502423430B54D36B07218B4306390B43BF
S1131330D36393685B06FCD4C8200B4B9847084BD7
S11313401A680A490A401A60196A802252040A4338
S11313501A6210BD000400401A400000000C004056
S11313600020004200440041A5120000FFF8FFFFE6
S1131370024A136802210B431360704700200042A5
S1131380002243088B4274D303098B425FD3030AC0
S11313908B4244D3030B8B4228D3030C8B420DD3D3
S11313A0FF22090212BA030C8B4202D31212090261
S11313B065D0030B8B4219D300E0090AC30B8B429F
S11313C001D3CB03C01A5241830B8B4201D38B034D
S11313D0C01A5241430B8B4201D34B03C01A5241F2
S11313E0030B8B4201D30B03C01A5241C30A8B4235
S11313F001D3CB02C01A5241830A8B4201D38B0220
S1131400C01A5241430A8B4201D34B02C01A5241C3
S1131410030A8B4201D30B02C01A5241CDD2C30935
S11314208B4201D3CB01C01A524183098B4201D3B1
S11314308B01C01A524143098B4201D34B01C01A9C
S1131440524103098B4201D30B01C01A5241C30814
S11314508B4201D3CB00C01A524183088B4201D383
S11314608B00C01A524143088B4201D34B00C01A6F
S11314705241411A00D20146524110467047FFE7DB
S113148001B5002000F006F802BDC0460029F7D0DF
S113149076E770477047C04670B50D4E0D4D002479
S11314A0AD1BAD1005D0A300F35801349847A542F5
S11314B0F9D100F0FBFE084E084D0024AD1BAD1021
S11314C005D0A300F35801349847A542F9D170BD63
S11314D0B8220000B8220000B8220000C022000098
S11314E0034B10B5002B02D0024800F005F810BDE4
S11314F0000000000915000010B5010000230022BF
S1131500002000F01FF810BD70B5094B094CE41A17
S1131510A41009D0084AA518AD00ED182B68013CA9
S11315209847043D002CF9D100F0CAFE70BDC046B6
S1131530CC220000D0220000FFFFFF3F7047C046CE
S11315407047C046F0B54E464546DE465746E0B5C0
S1131550364D83B00600286898460F009146FFF781
S1131560EDFF334B1C68A4235B00E058002852D0E5
S113157043681F2B13DC5A1C0192002E28D1019AB8
S113158002339B0042601F502868FFF7D9FF0020F8
S113159003B03CBC90469946A246AB46F0BD254BF1
S11315A0002B3DD0C820400000E000BF002837D009
S11315B0A42200235200A15843600160A05040328D
S11315C0835004328350013301930023002ED6D07C
S11315D09A00924682444A46882154466250C42264
S11315E05200914681444A468739994012688B4695
S11315F00A4394464A466146116084224146520099
S1131600A150022EBBD102005C468D32FF3211681C
S11316100C431460B3E720004D30FF30E050A7E7DF
S11316202868FFF78DFF01204042B1E73004002015
S1131630A822000000000000A20600009A06000094
S1131640B0060000BA060000C4060000CE06000082
S113165090080000C8080000E2080000F808000034
S11316601209000028090000C00900003E0A000019
S11316705A0A0000780A0000920A0000B00A00002A
S1131680400B0000640B0000BC0B0000D60B0000F4
S1131690E20B0000EE0B0000FA0B0000060C000049
S11316A00000000000000000000000000000000036
S11316B00000000000000000000000000000000026
S11316C00000000000000000000000000000000016
S11316D00000000000000000010001000100010002
S11316E001000100010001000100010002000200EC
S11316F002000200020002000300030003000300D2
S113170004000400040004000500050005000600B0
S11317100600070007000700080008000900090088
S11317200A000A000B000B000C000D000D000E0057
S11317300F00100010001100120013001400140018
S1131740150016001700180019001A001C001D00CF
S11317501E001F0020002200230024002600270072
S113176028002A002C002D002F0030003200340005
S11317703600370039003B003D003F004100430084
S1131780450048004A004C004F00510053005600E9
S113179058005B005E0060006300660069006C0036
S11317A06F007200750078007B007F008200860065
S11317B089008D009000940098009B009F00A30076
S11317C0A700AB00B000B400B800BD00C100C60063
S11317D0CA00CF00D400D900DD00E300E800ED002A
S11317E0F200F700FD00020108010E0113011901C6
S11317F01F0125012B01310138013E0145014B0137
S1131800520159015F0166016D0175017C0183017B
S11318108B0192019A01A201AA01B201BA01C2018B
S1131820CA01D301DB01E401EC01F501FE01070269
S113183010021A0223022D02360240024A02540206
S11318405E02690273027D02880293029E02A9026B
S1131850B402BF02CB02D602E202EE02F902060390
S113186012031E032B033703440351035E036B036C
S1131870780386039403A103AF03BD03CB03DA0308
S1131880E803F70306041504240433044304520450
S11318906204720482049204A304B304C404D5044D
S11318A0E604F70409051A052C053E0550056205F2
S11318B0740587059A05AD05C005D305E705FA0546
S11318C00E06220637064B066006740689069E0637
S11318D0B406C906DF06F5060B07210738074F07CC
S11318E066077D079407AC07C307DB07F3070C08FB
S11318F024083D0856086F088808A208BC08D608C2
S1131900F0080B09250940095B0977099209AE091A
S1131910CA09E609030A1F0A3C0A590A770A940A03
S1131920B20AD00AEE0A0D0B2C0B4B0B6A0B8A0B76
S1131930A90BC90BE90B0A0C2B0C4C0C6D0C8E0C6F
S1131940B00CD20CF40C170D390D5C0D800DA30DE9
S1131950C70DEB0D0F0E340E580E7D0EA30EC80EE0
S1131960EE0E140F3B0F620F880FB00FD70FFF0F4F
S1131970FF0FD70FB00F880F620F3B0F140FEE0E3F
S1131980C80EA30E7D0E580E340E0F0EEB0DC70DB0
S1131990A30D800D5C0D390D170DF40CD20CB00C99
S11319A08E0C6D0C4C0C2B0C0A0CE90BC90BA90BFF
S11319B08A0B6A0B4B0B2C0B0D0BEE0AD00AB20AE6
S11319C0940A770A590A3C0A1F0A030AE609CA0953
S11319D0AE09920977095B09400925090B09F0084A
S11319E0D608BC08A20888086F0856083D082408D1
S11319F00C08F307DB07C307AC0794077D076607EA
S1131A004F07380721070B07F506DF06C906B4069A
S1131A109E068906740660064B06370622060E06E5
S1131A20FA05E705D305C005AD059A0587057405D4
S1131A30620550053E052C051A050905F704E60460
S1131A40D504C404B304A30492048204720462049B
S1131A50520443043304240415040604F703E8037E
S1131A60DA03CB03BD03AF03A10394038603780316
S1131A706B035E035103440337032B031E0312035A
S1131A800603F902EE02E202D602CB02BF02B4025E
S1131A90A9029E02930288027D02730269025E0219
S1131AA054024A02400236022D0223021A02100294
S1131AB00702FE01F501EC01E401DB01D301CA01D7
S1131AC0C201BA01B201AA01A2019A0192018B01D9
S1131AD083017C0175016D0166015F0159015201A9
S1131AE04B0145013E01380131012B0125011F0144
S1131AF0190113010E0108010201FD00F700F200B3
S1131B00ED00E800E300DD00D900D400CF00CA00F6
S1131B10C600C100BD00B800B400B000AB00A7000F
S1131B20A3009F009B009800940090008D00890002
S1131B30860082007F007B007800750072006F00D1
S1131B406C0069006600630060005E005B00580082
S1131B505600530051004F004C004A004800450015
S1131B60430041003F003D003B0039003700360090
S1131B703400320030002F002D002C002A002800F1
S1131B802700260024002300220020001F001E003E
S1131B901D001C001A00190018001700160015007B
S1131BA014001400130012001100100010000F00A4
S1131BB00E000D000D000C000B000B000A000A00C3
S1131BC009000900080008000700070007000600D4
S1131BD006000500050005000400040004000400DC
S1131BE003000300030003000200020002000200DD
S1131BF002000200010001000100010001000100D7
S1131C0001000100010001000100010001000100C8
S1131C1000000000000000000000000000000000C0
S1131C2000000000000000000000000000000000B0
S1131C3000000000000000000000000000000000A0
S1131C400000000000000000000000000000000090
S1131C500000000000000000000000000000000080
S1131C60000000000000000000000100010001006D
S1131C700100010001000100010001000200020056
S1131C80020002000200030003000300030004003A
S1131C900400040004000500050005000600060019
S1131CA007000700070008000800090009000A00EF
S1131CB00B000B000C000C000D000E000E000F00BA
S1131CC0100010001100120013001400150015007C
S1131CD016001700180019001A001B001C001E0033
S1131CE01F002000210022002300250026002700D9
S1131CF029002A002C002D002F0030003200330070
S1131D003500370038003A003C003E0040004100F6
S1131D1043004500470049004B004E00500052006C
S1131D205400560059005B005D00600062006500CD
S1131D3067006A006D006F007200750078007B0018
S1131D407E008000830087008A008D00900093004D
S1131D5097009A009D00A100A400A800AB00AF006A
S1131D60B300B600BA00BE00C200C600CA00CE006E
S1131D70D200D600DB00DF00E300E800EC00F10055
S1131D80F500FA00FE00030108010D01120117011C
S1131D901C01210126012B01310136013B014101C6
S1131DA046014C01520157015D01630169016F0154
S1131DB075017B01810187018E0194019B01A101C1
S1131DC0A801AE01B501BC01C301CA01D101D8010A
S1131DD0DF01E601ED01F501FC0104020B0213022F
S1131DE01B0222022A0232023A0242024B0253022C
S1131DF05B0264026C0275027D0286028F02980205
S1131E00A102AA02B302BC02C502CF02D802E202B6
S1131E10EB02F502FF02090313031D032703310339
S1131E203B03460350035B03650370037B03860394
S1131E3091039C03A703B203BE03C903D503E003C4
S1131E40EC03F803040410041C04280434044104BF
S1131E504D045A046604730480048D049A04A70490
S1131E60B404C204CF04DD04EA04F804060514052E
S1131E70220530053E054D055B056A057805870595
S1131E809605A505B405C305D205E205F1050106CD
S1131E9010062006300640065006600671068106CC
S1131EA09206A206B306C406D506E606F706080798
S1131EB01A072B073D074F07610773078507970725
S1131EC0A907BC07CE07E107F40707081A082D087D
S1131ED04008530867087B088E08A208B608CA0899
S1131EE0DE08F30807091C09300945095A096F0976
S1131EF084099A09AF09C509DA09F009060A1C0A16
S1131F00320A490A5F0A760A8C0AA30ABA0AD10A73
S1131F10E80A000B170B2F0B470B5E0B760B8F0B8E
S1131F20A70BBF0BD80BF00B090C220C3B0C540C69
S1131F306E0C870CA10CBA0CD40CEE0C080D230DFE
S1131F403D0D580D720D8D0DA80DC30DDE0DFA0D4E
S1131F50150E310E4D0E690E850EA10EBD0EDA0E54
S1131F60F70E130F300F4D0F6B0F880FA60FC30F13
S1131F70E10FFF0FFF0FE10FC30FA60F880F6B0FC9
S1131F804D0F300F130FF70EDA0EBD0EA10E850E96
S1131F90690E4D0E310E150EFA0DDE0DC30DA80D92
S1131FA08D0D720D580D3D0D230D080DEE0CD40C46
S1131FB0BA0CA10C870C6E0C540C3B0C220C090CB3
S1131FC0F00BD80BBF0BA70B8F0B760B5E0B470BDD
S1131FD02F0B170B000BE80AD10ABA0AA30A8C0AC2
S1131FE0760A5F0A490A320A1C0A060AF009DA0963
S1131FF0C509AF099A0984096F095A0945093009C5
S11320001C090709F308DE08CA08B608A2088E08E6
S11320107B086708530840082D081A080708F407C6
S1132020E107CE07BC07A907970785077307610770
S11320304F073D072B071A070807F706E606D506DC
S1132040C406B306A206920681067106600650060F
S113205040063006200610060106F105E205D20509
S1132060C305B405A5059605870578056A055B05CE
S11320704D053E053005220514050605F804EA045D
S1132080DD04CF04C204B404A7049A048D048004BC
S1132090730466045A044D044104340428041C04E3
S11320A010040404F803EC03E003D503C903BE03DE
S11320B0B203A7039C03910386037B0370036503A8
S11320C05B03500346033B03310327031D03130340
S11320D00903FF02F502EB02E202D802CF02C502B5
S11320E0BC02B302AA02A10298028F0286027D02F8
S11320F075026C0264025B0253024B0242023A0212
S113210032022A0222021B0213020B020402FC0105
S1132110F501ED01E601DF01D801D101CA01C301D6
S1132120BC01B501AE01A801A1019B0194018E017E
S1132130870181017B0175016F01690163015D0103
S1132140570152014C01460141013B013601310165
S11321502B01260121011C01170112010D010801A7
S11321600301FE00FA00F500F100EC00E800E300D2
S1132170DF00DB00D600D200CE00CA00C600C200D9
S1132180BE00BA00B600B300AF00AB00A800A400C4
S1132190A1009D009A009700930090008D008A0092
S11321A08700830080007E007B0078007500720049
S11321B06F006D006A0067006500620060005D00EA
S11321C05B00590056005400520050004E004B0072
S11321D04900470045004300410040003E003C00E8
S11321E03A003800370035003300320030002F0049
S11321F02D002C002A00290027002600250023009A
S11322002200210020001F001E001C001B001A00D9
S1132210190018001700160015001500140013000B
S113222012001100100010000F000E000E000D002F
S11322300C000C000B000B000A0009000900080048
S11322400800070007000700060006000500050057
S1132250050004000400040004000300030003005C
S1132260030002000200020002000200010001005B
S11322700100010001000100010001000100000053
S1132280000000000000000000000000000000004A
S1132290000000000000000000000000000000003A
S11322A0000000000000000008000020F8B5C0464F
S11322B0F8BC08BC9E467047E1140000DD00000035
S11322C0F8B5C046F8BC08BC9E467047B50000008F
S11322D040420F000102010000000000F40200204F
S11322E05C030020C4030020000000000000000084
S11322F000000000000000000000000000000000DA
S113230000000000000000000000000000000000C9
S113231000000000000000000000000000000000B9
S113232000000000000000000000000000000000A9
S11323300000000000000000000000000000000099
S11323400000000000000000000000000000000089
S11323500000000000000000000000000000000079
S11323600000000000000000000000000000000069
S11323700000000000000000000000000000000059
S113238001000000000000000E33CDAB34126DE6F6
S1132390ECDE05000B00000000000000000000005F
S11323A00000000000000000000000000000000029
S11323B00000000000000000000000000000000019
S11323C00000000000000000000000000000000009
S11323D000000000000000000000000000000000F9
S1072700A00400200D
S9030000FC
